{
  "address": "0x028B1697b768D36cA457383741344F1BF9b6C9F5",
  "abi": [
    {
      "inputs": [
        {
          "internalType": "address",
          "name": "_weth",
          "type": "address"
        },
        {
          "internalType": "address",
          "name": "_factory",
          "type": "address"
        },
        {
          "internalType": "address",
          "name": "_masterVampire",
          "type": "address"
        }
      ],
      "stateMutability": "nonpayable",
      "type": "constructor"
    },
    {
      "inputs": [
        {
          "internalType": "address",
          "name": "",
          "type": "address"
        },
        {
          "internalType": "uint256",
          "name": "",
          "type": "uint256"
        },
        {
          "internalType": "uint256",
          "name": "victimPoolId",
          "type": "uint256"
        }
      ],
      "name": "claimReward",
      "outputs": [],
      "stateMutability": "nonpayable",
      "type": "function"
    },
    {
      "inputs": [
        {
          "internalType": "address",
          "name": "_adapter",
          "type": "address"
        },
        {
          "internalType": "uint256",
          "name": "poolId",
          "type": "uint256"
        },
        {
          "internalType": "uint256",
          "name": "amount",
          "type": "uint256"
        }
      ],
      "name": "deposit",
      "outputs": [
        {
          "internalType": "uint256",
          "name": "",
          "type": "uint256"
        }
      ],
      "stateMutability": "nonpayable",
      "type": "function"
    },
    {
      "inputs": [
        {
          "internalType": "address",
          "name": "",
          "type": "address"
        },
        {
          "internalType": "uint256",
          "name": "poolId",
          "type": "uint256"
        }
      ],
      "name": "emergencyWithdraw",
      "outputs": [],
      "stateMutability": "nonpayable",
      "type": "function"
    },
    {
      "inputs": [
        {
          "internalType": "uint256",
          "name": "poolId",
          "type": "uint256"
        }
      ],
      "name": "lockableToken",
      "outputs": [
        {
          "internalType": "contract IERC20",
          "name": "",
          "type": "address"
        }
      ],
      "stateMutability": "view",
      "type": "function"
    },
    {
      "inputs": [
        {
          "internalType": "address",
          "name": "user",
          "type": "address"
        },
        {
          "internalType": "uint256",
          "name": "poolId",
          "type": "uint256"
        }
      ],
      "name": "lockedAmount",
      "outputs": [
        {
          "internalType": "uint256",
          "name": "",
          "type": "uint256"
        }
      ],
      "stateMutability": "view",
      "type": "function"
    },
    {
      "inputs": [
        {
          "internalType": "address",
          "name": "",
          "type": "address"
        },
        {
          "internalType": "uint256",
          "name": "",
          "type": "uint256"
        }
      ],
      "name": "lockedValue",
      "outputs": [
        {
          "internalType": "uint256",
          "name": "",
          "type": "uint256"
        }
      ],
      "stateMutability": "pure",
      "type": "function"
    },
    {
      "inputs": [
        {
          "internalType": "uint256",
          "name": "amount",
          "type": "uint256"
        },
        {
          "internalType": "contract IUniswapV2Pair",
          "name": "lpToken",
          "type": "address"
        }
      ],
      "name": "lpTokenValue",
      "outputs": [
        {
          "internalType": "uint256",
          "name": "",
          "type": "uint256"
        }
      ],
      "stateMutability": "view",
      "type": "function"
    },
    {
      "inputs": [
        {
          "internalType": "uint256",
          "name": "",
          "type": "uint256"
        }
      ],
      "name": "normalizedAPY",
      "outputs": [
        {
          "internalType": "uint256",
          "name": "",
          "type": "uint256"
        }
      ],
      "stateMutability": "pure",
      "type": "function"
    },
    {
      "inputs": [
        {
          "internalType": "address",
          "name": "",
          "type": "address"
        },
        {
          "internalType": "uint256",
          "name": "",
          "type": "uint256"
        },
        {
          "internalType": "uint256",
          "name": "victimPoolId",
          "type": "uint256"
        }
      ],
      "name": "pendingReward",
      "outputs": [
        {
          "internalType": "uint256",
          "name": "",
          "type": "uint256"
        }
      ],
      "stateMutability": "view",
      "type": "function"
    },
    {
      "inputs": [
        {
          "internalType": "uint256",
          "name": "",
          "type": "uint256"
        }
      ],
      "name": "poolAddress",
      "outputs": [
        {
          "internalType": "address",
          "name": "",
          "type": "address"
        }
      ],
      "stateMutability": "pure",
      "type": "function"
    },
    {
      "inputs": [],
      "name": "poolCount",
      "outputs": [
        {
          "internalType": "uint256",
          "name": "",
          "type": "uint256"
        }
      ],
      "stateMutability": "view",
      "type": "function"
    },
    {
      "inputs": [],
      "name": "rewardToWethPool",
      "outputs": [
        {
          "internalType": "address",
          "name": "",
          "type": "address"
        }
      ],
      "stateMutability": "pure",
      "type": "function"
    },
    {
      "inputs": [
        {
          "internalType": "uint256",
          "name": "",
          "type": "uint256"
        }
      ],
      "name": "rewardToken",
      "outputs": [
        {
          "internalType": "contract IERC20",
          "name": "",
          "type": "address"
        }
      ],
      "stateMutability": "pure",
      "type": "function"
    },
    {
      "inputs": [
        {
          "internalType": "uint256",
          "name": "poolId",
          "type": "uint256"
        },
        {
          "internalType": "uint256",
          "name": "amount",
          "type": "uint256"
        }
      ],
      "name": "rewardValue",
      "outputs": [
        {
          "internalType": "uint256",
          "name": "",
          "type": "uint256"
        }
      ],
      "stateMutability": "view",
      "type": "function"
    },
    {
      "inputs": [
        {
          "internalType": "address",
          "name": "",
          "type": "address"
        },
        {
          "internalType": "uint256",
          "name": "",
          "type": "uint256"
        },
        {
          "internalType": "uint256",
          "name": "rewardAmount",
          "type": "uint256"
        },
        {
          "internalType": "address",
          "name": "to",
          "type": "address"
        }
      ],
      "name": "sellRewardForWeth",
      "outputs": [
        {
          "internalType": "uint256",
          "name": "",
          "type": "uint256"
        }
      ],
      "stateMutability": "nonpayable",
      "type": "function"
    },
    {
      "inputs": [
        {
          "internalType": "uint256",
          "name": "",
          "type": "uint256"
        }
      ],
      "name": "sellableRewardAmount",
      "outputs": [
        {
          "internalType": "uint256",
          "name": "",
          "type": "uint256"
        }
      ],
      "stateMutability": "pure",
      "type": "function"
    },
    {
      "inputs": [
        {
          "internalType": "uint256",
          "name": "",
          "type": "uint256"
        }
      ],
      "name": "totalLockedValue",
      "outputs": [
        {
          "internalType": "uint256",
          "name": "",
          "type": "uint256"
        }
      ],
      "stateMutability": "pure",
      "type": "function"
    },
    {
      "inputs": [
        {
          "internalType": "address",
          "name": "",
          "type": "address"
        },
        {
          "internalType": "uint256",
          "name": "poolId",
          "type": "uint256"
        },
        {
          "internalType": "uint256",
          "name": "amount",
          "type": "uint256"
        }
      ],
      "name": "withdraw",
      "outputs": [
        {
          "internalType": "uint256",
          "name": "",
          "type": "uint256"
        }
      ],
      "stateMutability": "nonpayable",
      "type": "function"
    }
  ],
  "transactionHash": "0xd7431288864e627e744e779fefe813dccfcbd9490bce18342e8b440e1b5ba41e",
  "args": [
    "0xC02aaA39b223FE8D0A0e5C4F27eAD9083C756Cc2",
    "0x5C69bEe701ef814a2B6a3EDD4B1652CB9cc5aA6f",
    "0xB58E80f655F451f4AD2278a7D806C475AcCdB8bd"
  ],
  "solcInputHash": "e166554613407b5e5de9c2eccf5906c7",
  "bytecode": "0x60e060405234801561001057600080fd5b506040516126f83803806126f88339818101604052606081101561003357600080fd5b50805160208201516040909201516001600160601b0319606092831b811660805292821b831660a052901b1660c05260805160601c60a05160601c60c05160601c6126396100bf600039806104a152508061079f52806109165250806107cf52806109455280610cf05280610da85280610f005280610ff95280611161528061129252506126396000f3fe608060405234801561001057600080fd5b50600436106101365760003560e01c806392e77e77116100b2578063b5c5f67211610081578063da9da52611610066578063da9da5261461039f578063f525cb68146103bc578063fbb88fa1146103c457610136565b8063b5c5f67214610341578063c2fc7d3e1461037357610136565b806392e77e771461027b57806395ccea67146102b55780639d06fc9a146102e3578063a61bb7641461031557610136565b8063509b6c3f116101095780636c261411116100ee5780636c2614111461017f57806379b846fd146102325780639007b3ae1461024f57610136565b8063509b6c3f146101f25780635cde4b5d1461020f57610136565b8063039857381461013b57806309f08a591461017f5780630efe6a8b1461019c5780633d969aac146101ce575b600080fd5b61016d6004803603606081101561015157600080fd5b506001600160a01b0381351690602081013590604001356103e1565b60408051918252519081900360200190f35b61016d6004803603602081101561019557600080fd5b503561053e565b61016d600480360360608110156101b257600080fd5b506001600160a01b03813516906020810135906040013561058d565b6101d661076f565b604080516001600160a01b039092168252519081900360200190f35b6101d66004803603602081101561020857600080fd5b5035610774565b61016d6004803603604081101561022557600080fd5b508035906020013561078d565b6101d66004803603602081101561024857600080fd5b5035610ac3565b61016d6004803603604081101561026557600080fd5b50803590602001356001600160a01b0316610b51565b61016d6004803603608081101561029157600080fd5b506001600160a01b038135811691602081013591604082013591606001351661131b565b6102e1600480360360408110156102cb57600080fd5b506001600160a01b03813516906020013561178c565b005b6102e1600480360360608110156102f957600080fd5b506001600160a01b0381351690602081013590604001356118a7565b61016d6004803603604081101561032b57600080fd5b506001600160a01b0381351690602001356119c3565b61016d6004803603606081101561035757600080fd5b506001600160a01b038135169060208101359060400135611a74565b61016d6004803603604081101561038957600080fd5b506001600160a01b03813516906020013561053e565b6101d6600480360360208110156103b557600080fd5b5035611b9d565b61016d611bb6565b61016d600480360360208110156103da57600080fd5b5035611c36565b60008073aed7384f03844af886b830862ff0a7afce0a632c6001600160a01b031663689d84e4846040518263ffffffff1660e01b81526004018082815260200191505060806040518083038186803b15801561043c57600080fd5b505afa158015610450573d6000803e3d6000fd5b505050506040513d608081101561046657600080fd5b5051604080517ffe0f3a130000000000000000000000000000000000000000000000000000000081526001600160a01b0380841660048301527f0000000000000000000000000000000000000000000000000000000000000000166024820152905191925073aed7384f03844af886b830862ff0a7afce0a632c9163fe0f3a1391604480820192602092909190829003018186803b15801561050757600080fd5b505afa15801561051b573d6000803e3d6000fd5b505050506040513d602081101561053157600080fd5b50519150505b9392505050565b60006040805162461bcd60e51b815260206004820152600f60248201527f6e6f7420696d706c656d656e7465640000000000000000000000000000000000604482015290519081900360640190fd5b6000808490506000816001600160a01b03166379b846fd866040518263ffffffff1660e01b81526004018082815260200191505060206040518083038186803b1580156105d957600080fd5b505afa1580156105ed573d6000803e3d6000fd5b505050506040513d602081101561060357600080fd5b5051604080517f095ea7b300000000000000000000000000000000000000000000000000000000815273aed7384f03844af886b830862ff0a7afce0a632c60048201527fffffffffffffffffffffffffffffffffffffffffffffffffffffffffffffffff602482015290519192506001600160a01b0383169163095ea7b3916044808201926020929091908290030181600087803b1580156106a457600080fd5b505af11580156106b8573d6000803e3d6000fd5b505050506040513d60208110156106ce57600080fd5b5050604080517f47e7ef240000000000000000000000000000000000000000000000000000000081526001600160a01b038316600482015260248101869052905173aed7384f03844af886b830862ff0a7afce0a632c916347e7ef2491604480830192600092919082900301818387803b15801561074b57600080fd5b505af115801561075f573d6000803e3d6000fd5b5060009998505050505050505050565b600090565b507343dfc4159d86f3a37a5a4b3d4580b888ad7d4ddd90565b60008061079984610774565b905060007f00000000000000000000000000000000000000000000000000000000000000006001600160a01b031663e6a43905837f00000000000000000000000000000000000000000000000000000000000000006040518363ffffffff1660e01b815260040180836001600160a01b03168152602001826001600160a01b031681526020019250505060206040518083038186803b15801561083b57600080fd5b505afa15801561084f573d6000803e3d6000fd5b505050506040513d602081101561086557600080fd5b505190506001600160a01b0381161561091457600080826001600160a01b0316630902f1ac6040518163ffffffff1660e01b815260040160606040518083038186803b1580156108b457600080fd5b505afa1580156108c8573d6000803e3d6000fd5b505050506040513d60608110156108de57600080fd5b5080516020909101516dffffffffffffffffffffffffffff9182169350169050610909868383611c5b565b945050505050610abd565b7f00000000000000000000000000000000000000000000000000000000000000006001600160a01b031663e6a439057f0000000000000000000000000000000000000000000000000000000000000000846040518363ffffffff1660e01b815260040180836001600160a01b03168152602001826001600160a01b031681526020019250505060206040518083038186803b1580156109b257600080fd5b505afa1580156109c6573d6000803e3d6000fd5b505050506040513d60208110156109dc57600080fd5b505190506001600160a01b038116610a255760405162461bcd60e51b815260040180806020018281038252602d8152602001806124bf602d913960400191505060405180910390fd5b600080826001600160a01b0316630902f1ac6040518163ffffffff1660e01b815260040160606040518083038186803b158015610a6157600080fd5b505afa158015610a75573d6000803e3d6000fd5b505050506040513d6060811015610a8b57600080fd5b5080516020909101516dffffffffffffffffffffffffffff9182169350169050610ab6868284611c5b565b9450505050505b92915050565b60008073aed7384f03844af886b830862ff0a7afce0a632c6001600160a01b031663689d84e4846040518263ffffffff1660e01b81526004018082815260200191505060806040518083038186803b158015610b1e57600080fd5b505afa158015610b32573d6000803e3d6000fd5b505050506040513d6080811015610b4857600080fd5b50519392505050565b6000806000836001600160a01b0316630902f1ac6040518163ffffffff1660e01b815260040160606040518083038186803b158015610b8f57600080fd5b505afa158015610ba3573d6000803e3d6000fd5b505050506040513d6060811015610bb957600080fd5b508051602091820151604080517f0dfe168100000000000000000000000000000000000000000000000000000000815290516dffffffffffffffffffffffffffff93841696509290911693506000926001600160a01b03881692630dfe1681926004808201939291829003018186803b158015610c3557600080fd5b505afa158015610c49573d6000803e3d6000fd5b505050506040513d6020811015610c5f57600080fd5b5051604080517fd21220a700000000000000000000000000000000000000000000000000000000815290519192506000916001600160a01b0388169163d21220a7916004808301926020929190829003018186803b158015610cc057600080fd5b505afa158015610cd4573d6000803e3d6000fd5b505050506040513d6020811015610cea57600080fd5b505190507f00000000000000000000000000000000000000000000000000000000000000006001600160a01b039081169083161415610da657610909866001600160a01b03166318160ddd6040518163ffffffff1660e01b815260040160206040518083038186803b158015610d5f57600080fd5b505afa158015610d73573d6000803e3d6000fd5b505050506040513d6020811015610d8957600080fd5b5051610da06002610d9a8b89611d33565b90611d33565b90611d8c565b7f00000000000000000000000000000000000000000000000000000000000000006001600160a01b0316816001600160a01b03161415610e5757610909866001600160a01b03166318160ddd6040518163ffffffff1660e01b815260040160206040518083038186803b158015610e1c57600080fd5b505afa158015610e30573d6000803e3d6000fd5b505050506040513d6020811015610e4657600080fd5b5051610da06002610d9a8b88611d33565b60006001600160a01b0316866001600160a01b031663c45a01556040518163ffffffff1660e01b815260040160206040518083038186803b158015610e9b57600080fd5b505afa158015610eaf573d6000803e3d6000fd5b505050506040513d6020811015610ec557600080fd5b5051604080517fe6a439050000000000000000000000000000000000000000000000000000000081526001600160a01b0386811660048301527f0000000000000000000000000000000000000000000000000000000000000000811660248301529151919092169163e6a43905916044808301926020929190829003018186803b158015610f5257600080fd5b505afa158015610f66573d6000803e3d6000fd5b505050506040513d6020811015610f7c57600080fd5b50516001600160a01b0316146110b85760008061101e886001600160a01b031663c45a01556040518163ffffffff1660e01b815260040160206040518083038186803b158015610fcb57600080fd5b505afa158015610fdf573d6000803e3d6000fd5b505050506040513d6020811015610ff557600080fd5b50517f000000000000000000000000000000000000000000000000000000000000000086611df3565b909250905060006110366002610d9a85818e8c611d33565b90506110aa896001600160a01b03166318160ddd6040518163ffffffff1660e01b815260040160206040518083038186803b15801561107457600080fd5b505afa158015611088573d6000803e3d6000fd5b505050506040513d602081101561109e57600080fd5b5051610da08385611d8c565b975050505050505050610abd565b60006001600160a01b0316866001600160a01b031663c45a01556040518163ffffffff1660e01b815260040160206040518083038186803b1580156110fc57600080fd5b505afa158015611110573d6000803e3d6000fd5b505050506040513d602081101561112657600080fd5b5051604080517fe6a439050000000000000000000000000000000000000000000000000000000081526001600160a01b0385811660048301527f0000000000000000000000000000000000000000000000000000000000000000811660248301529151919092169163e6a43905916044808301926020929190829003018186803b1580156111b357600080fd5b505afa1580156111c7573d6000803e3d6000fd5b505050506040513d60208110156111dd57600080fd5b50516001600160a01b031614156112255760405162461bcd60e51b815260040180806020018281038252602f815260200180612580602f913960400191505060405180910390fd5b6000806112b7886001600160a01b031663c45a01556040518163ffffffff1660e01b815260040160206040518083038186803b15801561126457600080fd5b505afa158015611278573d6000803e3d6000fd5b505050506040513d602081101561128e57600080fd5b50517f000000000000000000000000000000000000000000000000000000000000000085611df3565b909250905060006112cf6002610d9a85818e8b611d33565b905061130d896001600160a01b03166318160ddd6040518163ffffffff1660e01b815260040160206040518083038186803b15801561107457600080fd5b9a9950505050505050505050565b6000808311611371576040805162461bcd60e51b815260206004820152601560248201527f72657761726420616d6f756e74206973207a65726f0000000000000000000000604482015290519081900360640190fd5b604080517f095ea7b3000000000000000000000000000000000000000000000000000000008152738876819535b48b551c9e97ebc07332c7482b4b2d60048201526024810185905290517343dfc4159d86f3a37a5a4b3d4580b888ad7d4ddd9163095ea7b39160448083019260209291908290030181600087803b1580156113f857600080fd5b505af115801561140c573d6000803e3d6000fd5b505050506040513d602081101561142257600080fd5b505060408051600080825260208201928390527f8dae733300000000000000000000000000000000000000000000000000000000835260248201868152604483018290526060606484019081528351608485018190529294738876819535b48b551c9e97ebc07332c7482b4b2d94638dae7333948a948894929390929160a485019190808383895b838110156114c25781810151838201526020016114aa565b50505050905090810190601f1680156114ef5780820380516001836020036101000a031916815260200191505b50945050505050602060405180830381600087803b15801561151057600080fd5b505af1158015611524573d6000803e3d6000fd5b505050506040513d602081101561153a57600080fd5b5051905080611590576040805162461bcd60e51b815260206004820152601360248201527f444f444f20746f2055534454206661696c656400000000000000000000000000604482015290519081900360640190fd5b6115c373dac17f958d2ee523a2206206994597c13d831ec7730d4a11d5eeaac28ec3f61d100daf4d40471f185283611ec1565b600080730d4a11d5eeaac28ec3f61d100daf4d40471f18526001600160a01b0316630902f1ac6040518163ffffffff1660e01b815260040160606040518083038186803b15801561161357600080fd5b505afa158015611627573d6000803e3d6000fd5b505050506040513d606081101561163d57600080fd5b5080516020909101516dffffffffffffffffffffffffffff9182169350169050600061166a848385611c5b565b60408051600080825260208201928390527f022c0d9f00000000000000000000000000000000000000000000000000000000835260248201848152604483018290526001600160a01b038b166064840152608060848401908152835160a48501819052959650730d4a11d5eeaac28ec3f61d100daf4d40471f18529563022c0d9f9588958e9490939092909160c48501918083838a5b83811015611718578181015183820152602001611700565b50505050905090810190601f1680156117455780820380516001836020036101000a031916815260200191505b5095505050505050600060405180830381600087803b15801561176757600080fd5b505af115801561177b573d6000803e3d6000fd5b50929b9a5050505050505050505050565b600073aed7384f03844af886b830862ff0a7afce0a632c6001600160a01b031663689d84e4836040518263ffffffff1660e01b81526004018082815260200191505060806040518083038186803b1580156117e657600080fd5b505afa1580156117fa573d6000803e3d6000fd5b505050506040513d608081101561181057600080fd5b5051604080517f6ff1c9bc0000000000000000000000000000000000000000000000000000000081526001600160a01b0383166004820152905191925073aed7384f03844af886b830862ff0a7afce0a632c91636ff1c9bc9160248082019260009290919082900301818387803b15801561188a57600080fd5b505af115801561189e573d6000803e3d6000fd5b50505050505050565b600073aed7384f03844af886b830862ff0a7afce0a632c6001600160a01b031663689d84e4836040518263ffffffff1660e01b81526004018082815260200191505060806040518083038186803b15801561190157600080fd5b505afa158015611915573d6000803e3d6000fd5b505050506040513d608081101561192b57600080fd5b5051604080517f1e83409a0000000000000000000000000000000000000000000000000000000081526001600160a01b0383166004820152905191925073aed7384f03844af886b830862ff0a7afce0a632c91631e83409a9160248082019260009290919082900301818387803b1580156119a557600080fd5b505af11580156119b9573d6000803e3d6000fd5b5050505050505050565b604080517f93f1a40b000000000000000000000000000000000000000000000000000000008152600481018390526001600160a01b03841660248201528151600092839273aed7384f03844af886b830862ff0a7afce0a632c926393f1a40b92604480840193919291829003018186803b158015611a4057600080fd5b505afa158015611a54573d6000803e3d6000fd5b505050506040513d6040811015611a6a57600080fd5b5051949350505050565b60008073aed7384f03844af886b830862ff0a7afce0a632c6001600160a01b031663689d84e4856040518263ffffffff1660e01b81526004018082815260200191505060806040518083038186803b158015611acf57600080fd5b505afa158015611ae3573d6000803e3d6000fd5b505050506040513d6080811015611af957600080fd5b5051604080517ff3fef3a30000000000000000000000000000000000000000000000000000000081526001600160a01b038316600482015260248101869052905191925073aed7384f03844af886b830862ff0a7afce0a632c9163f3fef3a39160448082019260009290919082900301818387803b158015611b7a57600080fd5b505af1158015611b8e573d6000803e3d6000fd5b50600098975050505050505050565b5073aed7384f03844af886b830862ff0a7afce0a632c90565b600073aed7384f03844af886b830862ff0a7afce0a632c6001600160a01b031663081e3eda6040518163ffffffff1660e01b815260040160206040518083038186803b158015611c0557600080fd5b505afa158015611c19573d6000803e3d6000fd5b505050506040513d6020811015611c2f57600080fd5b5051905090565b507fffffffffffffffffffffffffffffffffffffffffffffffffffffffffffffffff90565b6000808411611c9b5760405162461bcd60e51b815260040180806020018281038252602b8152602001806125d9602b913960400191505060405180910390fd5b600083118015611cab5750600082115b611ce65760405162461bcd60e51b81526004018080602001828103825260288152602001806125376028913960400191505060405180910390fd5b6000611cf4856103e5611f46565b90506000611d028285611f46565b90506000611d1c83611d16886103e8611f46565b90611fb2565b9050808281611d2757fe5b04979650505050505050565b600082611d4257506000610abd565b82820282848281611d4f57fe5b04146105375760405162461bcd60e51b815260040180806020018281038252602181526020018061255f6021913960400191505060405180910390fd5b6000808211611de2576040805162461bcd60e51b815260206004820152601a60248201527f536166654d6174683a206469766973696f6e206279207a65726f000000000000604482015290519081900360640190fd5b818381611deb57fe5b049392505050565b6000806000611e02858561200a565b509050600080611e138888886120e8565b6001600160a01b0316630902f1ac6040518163ffffffff1660e01b815260040160606040518083038186803b158015611e4b57600080fd5b505afa158015611e5f573d6000803e3d6000fd5b505050506040513d6060811015611e7557600080fd5b5080516020909101516dffffffffffffffffffffffffffff91821693501690506001600160a01b0387811690841614611eaf578082611eb2565b81815b90999098509650505050505050565b604080516001600160a01b038416602482015260448082018490528251808303909101815260649091019091526020810180517bffffffffffffffffffffffffffffffffffffffffffffffffffffffff167fa9059cbb00000000000000000000000000000000000000000000000000000000179052611f419084906121d3565b505050565b6000811580611f6157505080820282828281611f5e57fe5b04145b610abd576040805162461bcd60e51b815260206004820152601460248201527f64732d6d6174682d6d756c2d6f766572666c6f77000000000000000000000000604482015290519081900360640190fd5b80820182811015610abd576040805162461bcd60e51b815260206004820152601460248201527f64732d6d6174682d6164642d6f766572666c6f77000000000000000000000000604482015290519081900360640190fd5b600080826001600160a01b0316846001600160a01b0316141561205e5760405162461bcd60e51b81526004018080602001828103825260258152602001806124ec6025913960400191505060405180910390fd5b826001600160a01b0316846001600160a01b03161061207e578284612081565b83835b90925090506001600160a01b0382166120e1576040805162461bcd60e51b815260206004820152601e60248201527f556e697377617056324c6962726172793a205a45524f5f414444524553530000604482015290519081900360640190fd5b9250929050565b60008060006120f7858561200a565b604080517fffffffffffffffffffffffffffffffffffffffff000000000000000000000000606094851b811660208084019190915293851b81166034830152825160288184030181526048830184528051908501207fff0000000000000000000000000000000000000000000000000000000000000060688401529a90941b9093166069840152607d8301989098527fe18a34eb0e04b04f7a0ac29a6e80748dca96319b42c54d679cb821dca90c6303609d808401919091528851808403909101815260bd909201909752805196019590952095945050505050565b6000612228826040518060400160405280602081526020017f5361666545524332303a206c6f772d6c6576656c2063616c6c206661696c6564815250856001600160a01b03166122849092919063ffffffff16565b805190915015611f415780806020019051602081101561224757600080fd5b5051611f415760405162461bcd60e51b815260040180806020018281038252602a8152602001806125af602a913960400191505060405180910390fd5b6060612293848460008561229b565b949350505050565b6060824710156122dc5760405162461bcd60e51b81526004018080602001828103825260268152602001806125116026913960400191505060405180910390fd5b6122e585612414565b612336576040805162461bcd60e51b815260206004820152601d60248201527f416464726573733a2063616c6c20746f206e6f6e2d636f6e7472616374000000604482015290519081900360640190fd5b600080866001600160a01b031685876040518082805190602001908083835b6020831061239257805182527fffffffffffffffffffffffffffffffffffffffffffffffffffffffffffffffe09092019160209182019101612355565b6001836020036101000a03801982511681845116808217855250505050505090500191505060006040518083038185875af1925050503d80600081146123f4576040519150601f19603f3d011682016040523d82523d6000602084013e6123f9565b606091505b509150915061240982828661241a565b979650505050505050565b3b151590565b60608315612429575081610537565b8251156124395782518084602001fd5b8160405162461bcd60e51b81526004018080602001828103825283818151815260200191508051906020019080838360005b8381101561248357818101518382015260200161246b565b50505050905090810190601f1680156124b05780820380516001836020036101000a031916815260200191505b509250505060405180910390fdfe4e65697468657220746f6b656e2d77657468206e6f7220776574682d746f6b656e207061697220657869737473556e697377617056324c6962726172793a204944454e544943414c5f414444524553534553416464726573733a20696e73756666696369656e742062616c616e636520666f722063616c6c556e697377617056324c6962726172793a20494e53554646494349454e545f4c4951554944495459536166654d6174683a206d756c7469706c69636174696f6e206f766572666c6f774e65697468657220746f6b656e302d77657468206e6f7220746f6b656e312d776574682070616972206578697374735361666545524332303a204552433230206f7065726174696f6e20646964206e6f742073756363656564556e697377617056324c6962726172793a20494e53554646494349454e545f494e5055545f414d4f554e54a26469706673582212202ed99ff5aba2bf8aeacb835a36692ca8182d546b294c52e477575e2dc44c9a2d64736f6c63430007060033",
  "devdoc": {
    "kind": "dev",
    "methods": {},
    "version": 1
  },
  "userdoc": {
    "kind": "user",
    "methods": {
      "lpTokenValue(uint256,address)": {
        "notice": "Calculates the WETH value of an LP token"
      },
      "rewardValue(uint256,uint256)": {
        "notice": "Calculates the WETH value for an amount of pool reward token"
      }
    },
    "version": 1
  },
  "storageLayout": {
    "storage": [],
    "types": null
  }
}