{
  "address": "0xcAABb5e44868F720924Aa2c8c4809d4F236Ed7Ee",
  "abi": [
    {
      "inputs": [
        {
          "internalType": "contract IERC20",
          "name": "_dracula",
          "type": "address"
        }
      ],
      "stateMutability": "nonpayable",
      "type": "constructor"
    },
    {
      "anonymous": false,
      "inputs": [
        {
          "indexed": true,
          "internalType": "address",
          "name": "owner",
          "type": "address"
        },
        {
          "indexed": true,
          "internalType": "address",
          "name": "spender",
          "type": "address"
        },
        {
          "indexed": false,
          "internalType": "uint256",
          "name": "value",
          "type": "uint256"
        }
      ],
      "name": "Approval",
      "type": "event"
    },
    {
      "anonymous": false,
      "inputs": [
        {
          "indexed": true,
          "internalType": "address",
          "name": "previousOwner",
          "type": "address"
        },
        {
          "indexed": true,
          "internalType": "address",
          "name": "newOwner",
          "type": "address"
        }
      ],
      "name": "OwnershipTransferred",
      "type": "event"
    },
    {
      "anonymous": false,
      "inputs": [
        {
          "indexed": true,
          "internalType": "address",
          "name": "from",
          "type": "address"
        },
        {
          "indexed": true,
          "internalType": "address",
          "name": "to",
          "type": "address"
        },
        {
          "indexed": false,
          "internalType": "uint256",
          "name": "value",
          "type": "uint256"
        }
      ],
      "name": "Transfer",
      "type": "event"
    },
    {
      "inputs": [
        {
          "internalType": "address",
          "name": "owner",
          "type": "address"
        },
        {
          "internalType": "address",
          "name": "spender",
          "type": "address"
        }
      ],
      "name": "allowance",
      "outputs": [
        {
          "internalType": "uint256",
          "name": "",
          "type": "uint256"
        }
      ],
      "stateMutability": "view",
      "type": "function"
    },
    {
      "inputs": [
        {
          "internalType": "address",
          "name": "spender",
          "type": "address"
        },
        {
          "internalType": "uint256",
          "name": "amount",
          "type": "uint256"
        }
      ],
      "name": "approve",
      "outputs": [
        {
          "internalType": "bool",
          "name": "",
          "type": "bool"
        }
      ],
      "stateMutability": "nonpayable",
      "type": "function"
    },
    {
      "inputs": [
        {
          "internalType": "address",
          "name": "account",
          "type": "address"
        }
      ],
      "name": "balance",
      "outputs": [
        {
          "internalType": "uint256",
          "name": "",
          "type": "uint256"
        }
      ],
      "stateMutability": "view",
      "type": "function"
    },
    {
      "inputs": [
        {
          "internalType": "address",
          "name": "account",
          "type": "address"
        }
      ],
      "name": "balanceOf",
      "outputs": [
        {
          "internalType": "uint256",
          "name": "",
          "type": "uint256"
        }
      ],
      "stateMutability": "view",
      "type": "function"
    },
    {
      "inputs": [],
      "name": "burnRate",
      "outputs": [
        {
          "internalType": "uint256",
          "name": "",
          "type": "uint256"
        }
      ],
      "stateMutability": "view",
      "type": "function"
    },
    {
      "inputs": [],
      "name": "decimals",
      "outputs": [
        {
          "internalType": "uint8",
          "name": "",
          "type": "uint8"
        }
      ],
      "stateMutability": "view",
      "type": "function"
    },
    {
      "inputs": [
        {
          "internalType": "address",
          "name": "spender",
          "type": "address"
        },
        {
          "internalType": "uint256",
          "name": "subtractedValue",
          "type": "uint256"
        }
      ],
      "name": "decreaseAllowance",
      "outputs": [
        {
          "internalType": "bool",
          "name": "",
          "type": "bool"
        }
      ],
      "stateMutability": "nonpayable",
      "type": "function"
    },
    {
      "inputs": [],
      "name": "dracula",
      "outputs": [
        {
          "internalType": "contract IERC20",
          "name": "",
          "type": "address"
        }
      ],
      "stateMutability": "view",
      "type": "function"
    },
    {
      "inputs": [
        {
          "internalType": "address",
          "name": "spender",
          "type": "address"
        },
        {
          "internalType": "uint256",
          "name": "addedValue",
          "type": "uint256"
        }
      ],
      "name": "increaseAllowance",
      "outputs": [
        {
          "internalType": "bool",
          "name": "",
          "type": "bool"
        }
      ],
      "stateMutability": "nonpayable",
      "type": "function"
    },
    {
      "inputs": [],
      "name": "name",
      "outputs": [
        {
          "internalType": "string",
          "name": "",
          "type": "string"
        }
      ],
      "stateMutability": "view",
      "type": "function"
    },
    {
      "inputs": [],
      "name": "owner",
      "outputs": [
        {
          "internalType": "address",
          "name": "",
          "type": "address"
        }
      ],
      "stateMutability": "view",
      "type": "function"
    },
    {
      "inputs": [],
      "name": "renounceOwnership",
      "outputs": [],
      "stateMutability": "nonpayable",
      "type": "function"
    },
    {
      "inputs": [
        {
          "internalType": "uint256",
          "name": "_burnRate",
          "type": "uint256"
        }
      ],
      "name": "setBurnRate",
      "outputs": [],
      "stateMutability": "nonpayable",
      "type": "function"
    },
    {
      "inputs": [
        {
          "internalType": "uint256",
          "name": "_amount",
          "type": "uint256"
        }
      ],
      "name": "stake",
      "outputs": [],
      "stateMutability": "nonpayable",
      "type": "function"
    },
    {
      "inputs": [],
      "name": "symbol",
      "outputs": [
        {
          "internalType": "string",
          "name": "",
          "type": "string"
        }
      ],
      "stateMutability": "view",
      "type": "function"
    },
    {
      "inputs": [],
      "name": "totalSupply",
      "outputs": [
        {
          "internalType": "uint256",
          "name": "",
          "type": "uint256"
        }
      ],
      "stateMutability": "view",
      "type": "function"
    },
    {
      "inputs": [
        {
          "internalType": "address",
          "name": "recipient",
          "type": "address"
        },
        {
          "internalType": "uint256",
          "name": "amount",
          "type": "uint256"
        }
      ],
      "name": "transfer",
      "outputs": [
        {
          "internalType": "bool",
          "name": "",
          "type": "bool"
        }
      ],
      "stateMutability": "nonpayable",
      "type": "function"
    },
    {
      "inputs": [
        {
          "internalType": "address",
          "name": "sender",
          "type": "address"
        },
        {
          "internalType": "address",
          "name": "recipient",
          "type": "address"
        },
        {
          "internalType": "uint256",
          "name": "amount",
          "type": "uint256"
        }
      ],
      "name": "transferFrom",
      "outputs": [
        {
          "internalType": "bool",
          "name": "",
          "type": "bool"
        }
      ],
      "stateMutability": "nonpayable",
      "type": "function"
    },
    {
      "inputs": [
        {
          "internalType": "address",
          "name": "newOwner",
          "type": "address"
        }
      ],
      "name": "transferOwnership",
      "outputs": [],
      "stateMutability": "nonpayable",
      "type": "function"
    },
    {
      "inputs": [
        {
          "internalType": "uint256",
          "name": "_share",
          "type": "uint256"
        }
      ],
      "name": "unstake",
      "outputs": [],
      "stateMutability": "nonpayable",
      "type": "function"
    }
  ],
  "transactionHash": "0x879c1d19b25f367808e84e1aae6ed39d1ed85b59d677d9926691c3423f502c4b",
  "args": [
    "0xb78B3320493a4EFaa1028130C5Ba26f0B6085Ef8"
  ],
  "solcInputHash": "e166554613407b5e5de9c2eccf5906c7",
  "bytecode": "0x60a0604052600a6006553480156200001657600080fd5b506040516200192a3803806200192a833981810160405260208110156200003c57600080fd5b5051604080518082018252600c81526b111c9858dd5b18521bd85c9960a21b6020828101918252835180850190945260048452637844524360e01b9084015281519192916200008e9160039162000130565b508051620000a490600490602084019062000130565b50506005805460ff19166012179055506000620000c06200012c565b60058054610100600160a81b0319166101006001600160a01b03841690810291909117909155604051919250906000907f8be0079c531659141344cd1fd0a4f28419497f9722a3daafe3b4186f6b6457e0908290a35060601b6001600160601b031916608052620001dc565b3390565b828054600181600116156101000203166002900490600052602060002090601f016020900481019282620001685760008555620001b3565b82601f106200018357805160ff1916838001178555620001b3565b82800160010185558215620001b3579182015b82811115620001b357825182559160200191906001019062000196565b50620001c1929150620001c5565b5090565b5b80821115620001c15760008155600101620001c6565b60805160601c61171262000218600039806106a2528061077952806108005280610af45280610c1c5280610cb15280610d2352506117126000f3fe608060405234801561001057600080fd5b506004361061016c5760003560e01c80638da5cb5b116100cd578063bed9985011610081578063dd62ed3e11610066578063dd62ed3e146103e3578063e3d670d714610411578063f2fde38b146104375761016c565b8063bed99850146103d3578063d3815bda146103db5761016c565b8063a457c2d7116100b2578063a457c2d71461035e578063a694fc3a1461038a578063a9059cbb146103a75761016c565b80638da5cb5b1461033257806395d89b41146103565761016c565b80632e17de7811610124578063395093511161010957806339509351146102d857806370a0823114610304578063715018a61461032a5761016c565b80632e17de781461029d578063313ce567146102ba5761016c565b806318160ddd1161015557806318160ddd1461022e578063189d165e1461024857806323b872dd146102675761016c565b806306fdde0314610171578063095ea7b3146101ee575b600080fd5b61017961045d565b6040805160208082528351818301528351919283929083019185019080838360005b838110156101b357818101518382015260200161019b565b50505050905090810190601f1680156101e05780820380516001836020036101000a031916815260200191505b509250505060405180910390f35b61021a6004803603604081101561020457600080fd5b506001600160a01b038135169060200135610511565b604080519115158252519081900360200190f35b61023661052f565b60408051918252519081900360200190f35b6102656004803603602081101561025e57600080fd5b5035610535565b005b61021a6004803603606081101561027d57600080fd5b506001600160a01b03813581169160208101359091169060400135610604565b610265600480360360208110156102b357600080fd5b503561068b565b6102c26108a8565b6040805160ff9092168252519081900360200190f35b61021a600480360360408110156102ee57600080fd5b506001600160a01b0381351690602001356108b1565b6102366004803603602081101561031a57600080fd5b50356001600160a01b03166108ff565b61026561091a565b61033a6109f5565b604080516001600160a01b039092168252519081900360200190f35b610179610a09565b61021a6004803603604081101561037457600080fd5b506001600160a01b038135169060200135610a88565b610265600480360360208110156103a057600080fd5b5035610af0565b61021a600480360360408110156103bd57600080fd5b506001600160a01b038135169060200135610c95565b610236610ca9565b61033a610caf565b610236600480360360408110156103f957600080fd5b506001600160a01b0381358116916020013516610cd3565b6102366004803603602081101561042757600080fd5b50356001600160a01b0316610cfe565b6102656004803603602081101561044d57600080fd5b50356001600160a01b0316610dd0565b60038054604080516020601f60027fffffffffffffffffffffffffffffffffffffffffffffffffffffffffffffffff6101006001881615020190951694909404938401819004810282018101909252828152606093909290918301828280156105075780601f106104dc57610100808354040283529160200191610507565b820191906000526020600020905b8154815290600101906020018083116104ea57829003601f168201915b5050505050905090565b600061052561051e610f07565b8484610f0b565b5060015b92915050565b60025490565b61053d610f07565b6001600160a01b031661054e6109f5565b6001600160a01b0316146105a9576040805162461bcd60e51b815260206004820181905260248201527f4f776e61626c653a2063616c6c6572206973206e6f7420746865206f776e6572604482015290519081900360640190fd5b600a8111156105ff576040805162461bcd60e51b815260206004820152601760248201527f496e76616c6964206275726e20726174652076616c7565000000000000000000604482015290519081900360640190fd5b600655565b6000610611848484610ff7565b6106818461061d610f07565b61067c85604051806060016040528060288152602001611626602891396001600160a01b038a1660009081526001602052604081209061065b610f07565b6001600160a01b031681526020810191909152604001600020549190611152565b610f0b565b5060019392505050565b600061069561052f565b90506000610746826107407f00000000000000000000000000000000000000000000000000000000000000006001600160a01b03166370a08231306040518263ffffffff1660e01b815260040180826001600160a01b0316815260200191505060206040518083038186803b15801561070d57600080fd5b505afa158015610721573d6000803e3d6000fd5b505050506040513d602081101561073757600080fd5b505186906111e9565b90611242565b905061075233846112a9565b600061076f6103e8610740600654856111e990919063ffffffff16565b905080156107f6577f00000000000000000000000000000000000000000000000000000000000000006001600160a01b03166342966c68826040518263ffffffff1660e01b815260040180828152602001915050600060405180830381600087803b1580156107dd57600080fd5b505af11580156107f1573d6000803e3d6000fd5b505050505b6001600160a01b037f00000000000000000000000000000000000000000000000000000000000000001663a9059cbb3361083085856113a5565b6040518363ffffffff1660e01b815260040180836001600160a01b0316815260200182815260200192505050602060405180830381600087803b15801561087657600080fd5b505af115801561088a573d6000803e3d6000fd5b505050506040513d60208110156108a057600080fd5b505050505050565b60055460ff1690565b60006105256108be610f07565b8461067c85600160006108cf610f07565b6001600160a01b03908116825260208083019390935260409182016000908120918c168152925290205490611402565b6001600160a01b031660009081526020819052604090205490565b610922610f07565b6001600160a01b03166109336109f5565b6001600160a01b03161461098e576040805162461bcd60e51b815260206004820181905260248201527f4f776e61626c653a2063616c6c6572206973206e6f7420746865206f776e6572604482015290519081900360640190fd5b60055460405160009161010090046001600160a01b0316907f8be0079c531659141344cd1fd0a4f28419497f9722a3daafe3b4186f6b6457e0908390a3600580547fffffffffffffffffffffff0000000000000000000000000000000000000000ff169055565b60055461010090046001600160a01b031690565b60048054604080516020601f60027fffffffffffffffffffffffffffffffffffffffffffffffffffffffffffffffff6101006001881615020190951694909404938401819004810282018101909252828152606093909290918301828280156105075780601f106104dc57610100808354040283529160200191610507565b6000610525610a95610f07565b8461067c856040518060600160405280602581526020016116b86025913960016000610abf610f07565b6001600160a01b03908116825260208083019390935260409182016000908120918d16815292529020549190611152565b60007f00000000000000000000000000000000000000000000000000000000000000006001600160a01b03166370a08231306040518263ffffffff1660e01b815260040180826001600160a01b0316815260200191505060206040518083038186803b158015610b5f57600080fd5b505afa158015610b73573d6000803e3d6000fd5b505050506040513d6020811015610b8957600080fd5b505190506000610b9761052f565b9050801580610ba4575081155b15610bb857610bb3338461145c565b610bd6565b6000610bc88361074086856111e9565b9050610bd4338261145c565b505b604080517f23b872dd0000000000000000000000000000000000000000000000000000000081523360048201523060248201526044810185905290516001600160a01b037f000000000000000000000000000000000000000000000000000000000000000016916323b872dd9160648083019260209291908290030181600087803b158015610c6457600080fd5b505af1158015610c78573d6000803e3d6000fd5b505050506040513d6020811015610c8e57600080fd5b5050505050565b6000610525610ca2610f07565b8484610ff7565b60065481565b7f000000000000000000000000000000000000000000000000000000000000000081565b6001600160a01b03918216600090815260016020908152604080832093909416825291909152205490565b600080610d0961052f565b905060008111610d1a576000610dc9565b610dc9816107407f00000000000000000000000000000000000000000000000000000000000000006001600160a01b03166370a08231306040518263ffffffff1660e01b815260040180826001600160a01b0316815260200191505060206040518083038186803b158015610d8e57600080fd5b505afa158015610da2573d6000803e3d6000fd5b505050506040513d6020811015610db857600080fd5b5051610dc3876108ff565b906111e9565b9392505050565b610dd8610f07565b6001600160a01b0316610de96109f5565b6001600160a01b031614610e44576040805162461bcd60e51b815260206004820181905260248201527f4f776e61626c653a2063616c6c6572206973206e6f7420746865206f776e6572604482015290519081900360640190fd5b6001600160a01b038116610e895760405162461bcd60e51b81526004018080602001828103825260268152602001806115976026913960400191505060405180910390fd5b6005546040516001600160a01b0380841692610100900416907f8be0079c531659141344cd1fd0a4f28419497f9722a3daafe3b4186f6b6457e090600090a3600580546001600160a01b03909216610100027fffffffffffffffffffffff0000000000000000000000000000000000000000ff909216919091179055565b3390565b6001600160a01b038316610f505760405162461bcd60e51b81526004018080602001828103825260248152602001806116946024913960400191505060405180910390fd5b6001600160a01b038216610f955760405162461bcd60e51b81526004018080602001828103825260228152602001806115bd6022913960400191505060405180910390fd5b6001600160a01b03808416600081815260016020908152604080832094871680845294825291829020859055815185815291517f8c5be1e5ebec7d5bd14f71427d1e84f3dd0314c0f7b2291e5b200ac8c7c3b9259281900390910190a3505050565b6001600160a01b03831661103c5760405162461bcd60e51b815260040180806020018281038252602581526020018061166f6025913960400191505060405180910390fd5b6001600160a01b0382166110815760405162461bcd60e51b81526004018080602001828103825260238152602001806115526023913960400191505060405180910390fd5b61108c83838361154c565b6110c9816040518060600160405280602681526020016115df602691396001600160a01b0386166000908152602081905260409020549190611152565b6001600160a01b0380851660009081526020819052604080822093909355908416815220546110f89082611402565b6001600160a01b038084166000818152602081815260409182902094909455805185815290519193928716927fddf252ad1be2c89b69c2b068fc378daa952ba7f163c4a11628f55a4df523b3ef92918290030190a3505050565b600081848411156111e15760405162461bcd60e51b81526004018080602001828103825283818151815260200191508051906020019080838360005b838110156111a657818101518382015260200161118e565b50505050905090810190601f1680156111d35780820380516001836020036101000a031916815260200191505b509250505060405180910390fd5b505050900390565b6000826111f857506000610529565b8282028284828161120557fe5b0414610dc95760405162461bcd60e51b81526004018080602001828103825260218152602001806116056021913960400191505060405180910390fd5b6000808211611298576040805162461bcd60e51b815260206004820152601a60248201527f536166654d6174683a206469766973696f6e206279207a65726f000000000000604482015290519081900360640190fd5b8183816112a157fe5b049392505050565b6001600160a01b0382166112ee5760405162461bcd60e51b815260040180806020018281038252602181526020018061164e6021913960400191505060405180910390fd5b6112fa8260008361154c565b61133781604051806060016040528060228152602001611575602291396001600160a01b0385166000908152602081905260409020549190611152565b6001600160a01b03831660009081526020819052604090205560025461135d90826113a5565b6002556040805182815290516000916001600160a01b038516917fddf252ad1be2c89b69c2b068fc378daa952ba7f163c4a11628f55a4df523b3ef9181900360200190a35050565b6000828211156113fc576040805162461bcd60e51b815260206004820152601e60248201527f536166654d6174683a207375627472616374696f6e206f766572666c6f770000604482015290519081900360640190fd5b50900390565b600082820183811015610dc9576040805162461bcd60e51b815260206004820152601b60248201527f536166654d6174683a206164646974696f6e206f766572666c6f770000000000604482015290519081900360640190fd5b6001600160a01b0382166114b7576040805162461bcd60e51b815260206004820152601f60248201527f45524332303a206d696e7420746f20746865207a65726f206164647265737300604482015290519081900360640190fd5b6114c36000838361154c565b6002546114d09082611402565b6002556001600160a01b0382166000908152602081905260409020546114f69082611402565b6001600160a01b0383166000818152602081815260408083209490945583518581529351929391927fddf252ad1be2c89b69c2b068fc378daa952ba7f163c4a11628f55a4df523b3ef9281900390910190a35050565b50505056fe45524332303a207472616e7366657220746f20746865207a65726f206164647265737345524332303a206275726e20616d6f756e7420657863656564732062616c616e63654f776e61626c653a206e6577206f776e657220697320746865207a65726f206164647265737345524332303a20617070726f766520746f20746865207a65726f206164647265737345524332303a207472616e7366657220616d6f756e7420657863656564732062616c616e6365536166654d6174683a206d756c7469706c69636174696f6e206f766572666c6f7745524332303a207472616e7366657220616d6f756e74206578636565647320616c6c6f77616e636545524332303a206275726e2066726f6d20746865207a65726f206164647265737345524332303a207472616e736665722066726f6d20746865207a65726f206164647265737345524332303a20617070726f76652066726f6d20746865207a65726f206164647265737345524332303a2064656372656173656420616c6c6f77616e63652062656c6f77207a65726fa26469706673582212206af5c8698876382bd5a6cdb77f5d45d037511e159cba3f419e86e3bf5c431cfa64736f6c63430007060033",
  "devdoc": {
    "kind": "dev",
    "methods": {
      "allowance(address,address)": {
        "details": "See {IERC20-allowance}."
      },
      "approve(address,uint256)": {
        "details": "See {IERC20-approve}. Requirements: - `spender` cannot be the zero address."
      },
      "balanceOf(address)": {
        "details": "See {IERC20-balanceOf}."
      },
      "decimals()": {
        "details": "Returns the number of decimals used to get its user representation. For example, if `decimals` equals `2`, a balance of `505` tokens should be displayed to a user as `5,05` (`505 / 10 ** 2`). Tokens usually opt for a value of 18, imitating the relationship between Ether and Wei. This is the value {ERC20} uses, unless {_setupDecimals} is called. NOTE: This information is only used for _display_ purposes: it in no way affects any of the arithmetic of the contract, including {IERC20-balanceOf} and {IERC20-transfer}."
      },
      "decreaseAllowance(address,uint256)": {
        "details": "Atomically decreases the allowance granted to `spender` by the caller. This is an alternative to {approve} that can be used as a mitigation for problems described in {IERC20-approve}. Emits an {Approval} event indicating the updated allowance. Requirements: - `spender` cannot be the zero address. - `spender` must have allowance for the caller of at least `subtractedValue`."
      },
      "increaseAllowance(address,uint256)": {
        "details": "Atomically increases the allowance granted to `spender` by the caller. This is an alternative to {approve} that can be used as a mitigation for problems described in {IERC20-approve}. Emits an {Approval} event indicating the updated allowance. Requirements: - `spender` cannot be the zero address."
      },
      "name()": {
        "details": "Returns the name of the token."
      },
      "owner()": {
        "details": "Returns the address of the current owner."
      },
      "renounceOwnership()": {
        "details": "Leaves the contract without owner. It will not be possible to call `onlyOwner` functions anymore. Can only be called by the current owner. NOTE: Renouncing ownership will leave the contract without an owner, thereby removing any functionality that is only available to the owner."
      },
      "symbol()": {
        "details": "Returns the symbol of the token, usually a shorter version of the name."
      },
      "totalSupply()": {
        "details": "See {IERC20-totalSupply}."
      },
      "transfer(address,uint256)": {
        "details": "See {IERC20-transfer}. Requirements: - `recipient` cannot be the zero address. - the caller must have a balance of at least `amount`."
      },
      "transferFrom(address,address,uint256)": {
        "details": "See {IERC20-transferFrom}. Emits an {Approval} event indicating the updated allowance. This is not required by the EIP. See the note at the beginning of {ERC20}. Requirements: - `sender` and `recipient` cannot be the zero address. - `sender` must have a balance of at least `amount`. - the caller must have allowance for ``sender``'s tokens of at least `amount`."
      },
      "transferOwnership(address)": {
        "details": "Transfers ownership of the contract to a new account (`newOwner`). Can only be called by the current owner."
      }
    },
    "version": 1
  },
  "userdoc": {
    "kind": "user",
    "methods": {
      "balance(address)": {
        "notice": "Return staked amount + rewards"
      }
    },
    "version": 1
  },
  "storageLayout": {
    "storage": [
      {
        "astId": 554,
        "contract": "contracts/DraculaHoard.sol:DraculaHoard",
        "label": "_balances",
        "offset": 0,
        "slot": "0",
        "type": "t_mapping(t_address,t_uint256)"
      },
      {
        "astId": 560,
        "contract": "contracts/DraculaHoard.sol:DraculaHoard",
        "label": "_allowances",
        "offset": 0,
        "slot": "1",
        "type": "t_mapping(t_address,t_mapping(t_address,t_uint256))"
      },
      {
        "astId": 562,
        "contract": "contracts/DraculaHoard.sol:DraculaHoard",
        "label": "_totalSupply",
        "offset": 0,
        "slot": "2",
        "type": "t_uint256"
      },
      {
        "astId": 564,
        "contract": "contracts/DraculaHoard.sol:DraculaHoard",
        "label": "_name",
        "offset": 0,
        "slot": "3",
        "type": "t_string_storage"
      },
      {
        "astId": 566,
        "contract": "contracts/DraculaHoard.sol:DraculaHoard",
        "label": "_symbol",
        "offset": 0,
        "slot": "4",
        "type": "t_string_storage"
      },
      {
        "astId": 568,
        "contract": "contracts/DraculaHoard.sol:DraculaHoard",
        "label": "_decimals",
        "offset": 0,
        "slot": "5",
        "type": "t_uint8"
      },
      {
        "astId": 7,
        "contract": "contracts/DraculaHoard.sol:DraculaHoard",
        "label": "_owner",
        "offset": 1,
        "slot": "5",
        "type": "t_address"
      },
      {
        "astId": 2766,
        "contract": "contracts/DraculaHoard.sol:DraculaHoard",
        "label": "burnRate",
        "offset": 0,
        "slot": "6",
        "type": "t_uint256"
      }
    ],
    "types": {
      "t_address": {
        "encoding": "inplace",
        "label": "address",
        "numberOfBytes": "20"
      },
      "t_mapping(t_address,t_mapping(t_address,t_uint256))": {
        "encoding": "mapping",
        "key": "t_address",
        "label": "mapping(address => mapping(address => uint256))",
        "numberOfBytes": "32",
        "value": "t_mapping(t_address,t_uint256)"
      },
      "t_mapping(t_address,t_uint256)": {
        "encoding": "mapping",
        "key": "t_address",
        "label": "mapping(address => uint256)",
        "numberOfBytes": "32",
        "value": "t_uint256"
      },
      "t_string_storage": {
        "encoding": "bytes",
        "label": "string",
        "numberOfBytes": "32"
      },
      "t_uint256": {
        "encoding": "inplace",
        "label": "uint256",
        "numberOfBytes": "32"
      },
      "t_uint8": {
        "encoding": "inplace",
        "label": "uint8",
        "numberOfBytes": "1"
      }
    }
  }
}