{
  "address": "0x62440aE6a5b861D01b0104D6ED77DbEDA29c4dc8",
  "abi": [
    {
      "inputs": [
        {
          "internalType": "address",
          "name": "weth_",
          "type": "address"
        },
        {
          "internalType": "address",
          "name": "drc_",
          "type": "address"
        },
        {
          "internalType": "address",
          "name": "_treasury",
          "type": "address"
        },
        {
          "internalType": "address",
          "name": "lpRewardPool_",
          "type": "address"
        },
        {
          "internalType": "address payable",
          "name": "drcRewardPool_",
          "type": "address"
        },
        {
          "internalType": "address",
          "name": "swapRouter_",
          "type": "address"
        }
      ],
      "stateMutability": "nonpayable",
      "type": "constructor"
    },
    {
      "anonymous": false,
      "inputs": [
        {
          "indexed": true,
          "internalType": "address",
          "name": "previousOwner",
          "type": "address"
        },
        {
          "indexed": true,
          "internalType": "address",
          "name": "newOwner",
          "type": "address"
        }
      ],
      "name": "OwnershipTransferred",
      "type": "event"
    },
    {
      "inputs": [
        {
          "internalType": "address payable",
          "name": "rewardPool_",
          "type": "address"
        }
      ],
      "name": "changeDRCRewardPool",
      "outputs": [],
      "stateMutability": "nonpayable",
      "type": "function"
    },
    {
      "inputs": [
        {
          "internalType": "uint256",
          "name": "gasShare_",
          "type": "uint256"
        },
        {
          "internalType": "uint256",
          "name": "treasuryShare_",
          "type": "uint256"
        },
        {
          "internalType": "uint256",
          "name": "lpRewardPoolShare_",
          "type": "uint256"
        },
        {
          "internalType": "uint256",
          "name": "drcRewardPoolShare_",
          "type": "uint256"
        }
      ],
      "name": "changeDistribution",
      "outputs": [],
      "stateMutability": "nonpayable",
      "type": "function"
    },
    {
      "inputs": [
        {
          "internalType": "address payable",
          "name": "drainController_",
          "type": "address"
        }
      ],
      "name": "changeDrainController",
      "outputs": [],
      "stateMutability": "nonpayable",
      "type": "function"
    },
    {
      "inputs": [
        {
          "internalType": "address",
          "name": "rewardPool_",
          "type": "address"
        }
      ],
      "name": "changeLPRewardPool",
      "outputs": [],
      "stateMutability": "nonpayable",
      "type": "function"
    },
    {
      "inputs": [
        {
          "internalType": "address",
          "name": "treasury_",
          "type": "address"
        }
      ],
      "name": "changeTreasury",
      "outputs": [],
      "stateMutability": "nonpayable",
      "type": "function"
    },
    {
      "inputs": [
        {
          "internalType": "uint256",
          "name": "tipAmount",
          "type": "uint256"
        }
      ],
      "name": "distribute",
      "outputs": [],
      "stateMutability": "payable",
      "type": "function"
    },
    {
      "inputs": [],
      "name": "drainController",
      "outputs": [
        {
          "internalType": "address payable",
          "name": "",
          "type": "address"
        }
      ],
      "stateMutability": "view",
      "type": "function"
    },
    {
      "inputs": [],
      "name": "drc",
      "outputs": [
        {
          "internalType": "address",
          "name": "",
          "type": "address"
        }
      ],
      "stateMutability": "view",
      "type": "function"
    },
    {
      "inputs": [],
      "name": "drcRewardPool",
      "outputs": [
        {
          "internalType": "address payable",
          "name": "",
          "type": "address"
        }
      ],
      "stateMutability": "view",
      "type": "function"
    },
    {
      "inputs": [],
      "name": "drcRewardPoolShare",
      "outputs": [
        {
          "internalType": "uint256",
          "name": "",
          "type": "uint256"
        }
      ],
      "stateMutability": "view",
      "type": "function"
    },
    {
      "inputs": [],
      "name": "gasShare",
      "outputs": [
        {
          "internalType": "uint256",
          "name": "",
          "type": "uint256"
        }
      ],
      "stateMutability": "view",
      "type": "function"
    },
    {
      "inputs": [],
      "name": "lpRewardPool",
      "outputs": [
        {
          "internalType": "address",
          "name": "",
          "type": "address"
        }
      ],
      "stateMutability": "view",
      "type": "function"
    },
    {
      "inputs": [],
      "name": "lpRewardPoolShare",
      "outputs": [
        {
          "internalType": "uint256",
          "name": "",
          "type": "uint256"
        }
      ],
      "stateMutability": "view",
      "type": "function"
    },
    {
      "inputs": [],
      "name": "owner",
      "outputs": [
        {
          "internalType": "address",
          "name": "",
          "type": "address"
        }
      ],
      "stateMutability": "view",
      "type": "function"
    },
    {
      "inputs": [],
      "name": "renounceOwnership",
      "outputs": [],
      "stateMutability": "nonpayable",
      "type": "function"
    },
    {
      "inputs": [
        {
          "internalType": "uint256",
          "name": "wethThreshold_",
          "type": "uint256"
        }
      ],
      "name": "setWETHThreshold",
      "outputs": [],
      "stateMutability": "nonpayable",
      "type": "function"
    },
    {
      "inputs": [],
      "name": "swapRouter",
      "outputs": [
        {
          "internalType": "contract IUniswapV2Router02",
          "name": "",
          "type": "address"
        }
      ],
      "stateMutability": "view",
      "type": "function"
    },
    {
      "inputs": [
        {
          "internalType": "address",
          "name": "newOwner",
          "type": "address"
        }
      ],
      "name": "transferOwnership",
      "outputs": [],
      "stateMutability": "nonpayable",
      "type": "function"
    },
    {
      "inputs": [],
      "name": "treasury",
      "outputs": [
        {
          "internalType": "address",
          "name": "",
          "type": "address"
        }
      ],
      "stateMutability": "view",
      "type": "function"
    },
    {
      "inputs": [],
      "name": "treasuryShare",
      "outputs": [
        {
          "internalType": "uint256",
          "name": "",
          "type": "uint256"
        }
      ],
      "stateMutability": "view",
      "type": "function"
    },
    {
      "inputs": [],
      "name": "wethThreshold",
      "outputs": [
        {
          "internalType": "uint256",
          "name": "",
          "type": "uint256"
        }
      ],
      "stateMutability": "view",
      "type": "function"
    },
    {
      "stateMutability": "payable",
      "type": "receive"
    }
  ],
  "transactionHash": "0xabaaf86779b8d35262a7fa15ae229e89fbf497c5c4e32c778c4b7545cbb54d49",
  "args": [
    "0xC02aaA39b223FE8D0A0e5C4F27eAD9083C756Cc2",
    "0xb78B3320493a4EFaa1028130C5Ba26f0B6085Ef8",
    "0x823Bf40F0FbCeB9832fB4f51eFc9aC19570b099a",
    "0xcA329C19396DfB92F570FD19E6F468AF87c9a9c1",
    "0xcAABb5e44868F720924Aa2c8c4809d4F236Ed7Ee",
    "0xd9e1cE17f2641f24aE83637ab66a2cca9C378B9F"
  ],
  "solcInputHash": "e166554613407b5e5de9c2eccf5906c7",
  "bytecode": "0x60e0604052606460015560fa60025561019060035560fa6004556702c68af0bb1400006005553480156200003257600080fd5b50604051620019cf380380620019cf833981810160405260c08110156200005857600080fd5b508051602082015160408301516060840151608085015160a0909501519394929391929091600062000089620002a0565b600080546001600160a01b0319166001600160a01b0383169081178255604051929350917f8be0079c531659141344cd1fd0a4f28419497f9722a3daafe3b4186f6b6457e0908290a3506004546003546002546001540101016103e81462000138576040805162461bcd60e51b815260206004820152601460248201527f696e76616c696420646973747269627574696f6e000000000000000000000000604482015290519081900360640190fd5b600780546001600160a01b038086166001600160a01b03199283161792839055600880548683169084161790556001600160601b0319606085811b821660c0528a811b821660805289901b1660a052600680548883169316929092179091556040805163095ea7b360e01b815292821660048401526000196024840152519088169163095ea7b39160448083019260209291908290030181600087803b158015620001e257600080fd5b505af1158015620001f7573d6000803e3d6000fd5b505050506040513d60208110156200020e57600080fd5b50506040805163095ea7b360e01b81526001600160a01b038381166004830152600019602483015291519188169163095ea7b3916044808201926020929091908290030181600087803b1580156200026557600080fd5b505af11580156200027a573d6000803e3d6000fd5b505050506040513d60208110156200029157600080fd5b50620002a49650505050505050565b3390565b60805160601c60a05160601c60c05160601c6116cd6200030260003980610ead528061101152806112c35250806107a05280610d79525080610725528061093152806109fa5280610b145280610c105280610d2b52506116cd6000f3fe60806040526004361061016e5760003560e01c80638da5cb5b116100cb578063c31c9c071161007f578063e75b377e11610059578063e75b377e146103a4578063f2fde38b146103ce578063ff1093031461040157610175565b8063c31c9c0714610365578063d24aeaee1461037a578063e0a9b09d1461038f57610175565b806391c05b0b116100b057806391c05b0b14610300578063aaf8a50b1461031d578063b14f2a391461033257610175565b80638da5cb5b146102b85780638de109ee146102cd57610175565b8063715018a6116101225780637b0c8deb116101075780637b0c8deb1461025b57806382c300121461028e5780638b83ba22146102a357610175565b8063715018a6146102315780637796ff371461024657610175565b80632b58a349116101535780632b58a349146101d2578063317ce0a8146101e757806361d027b31461021c57610175565b806321724f431461017a57806325df3a5c146101ab57610175565b3661017557005b600080fd5b34801561018657600080fd5b5061018f61043d565b604080516001600160a01b039092168252519081900360200190f35b3480156101b757600080fd5b506101c061044c565b60408051918252519081900360200190f35b3480156101de57600080fd5b5061018f610452565b3480156101f357600080fd5b5061021a6004803603602081101561020a57600080fd5b50356001600160a01b0316610461565b005b34801561022857600080fd5b5061018f610522565b34801561023d57600080fd5b5061021a610531565b34801561025257600080fd5b506101c0610607565b34801561026757600080fd5b5061021a6004803603602081101561027e57600080fd5b50356001600160a01b031661060d565b34801561029a57600080fd5b5061018f61079e565b3480156102af57600080fd5b506101c06107c2565b3480156102c457600080fd5b5061018f6107c8565b3480156102d957600080fd5b5061021a600480360360208110156102f057600080fd5b50356001600160a01b03166107d7565b61021a6004803603602081101561031657600080fd5b5035610898565b34801561032957600080fd5b506101c06111fa565b34801561033e57600080fd5b5061021a6004803603602081101561035557600080fd5b50356001600160a01b0316611200565b34801561037157600080fd5b5061018f6112c1565b34801561038657600080fd5b506101c06112e5565b34801561039b57600080fd5b5061018f6112eb565b3480156103b057600080fd5b5061021a600480360360208110156103c757600080fd5b50356112fa565b3480156103da57600080fd5b5061021a600480360360208110156103f157600080fd5b50356001600160a01b0316611373565b34801561040d57600080fd5b5061021a6004803603608081101561042457600080fd5b508035906020810135906040810135906060013561149f565b6007546001600160a01b031681565b60045481565b6008546001600160a01b031681565b610469611583565b6001600160a01b031661047a6107c8565b6001600160a01b0316146104d5576040805162461bcd60e51b815260206004820181905260248201527f4f776e61626c653a2063616c6c6572206973206e6f7420746865206f776e6572604482015290519081900360640190fd5b6001600160a01b0381166104e857600080fd5b600980547fffffffffffffffffffffffff0000000000000000000000000000000000000000166001600160a01b0392909216919091179055565b6006546001600160a01b031681565b610539611583565b6001600160a01b031661054a6107c8565b6001600160a01b0316146105a5576040805162461bcd60e51b815260206004820181905260248201527f4f776e61626c653a2063616c6c6572206973206e6f7420746865206f776e6572604482015290519081900360640190fd5b600080546040516001600160a01b03909116907f8be0079c531659141344cd1fd0a4f28419497f9722a3daafe3b4186f6b6457e0908390a3600080547fffffffffffffffffffffffff0000000000000000000000000000000000000000169055565b60025481565b610615611583565b6001600160a01b03166106266107c8565b6001600160a01b031614610681576040805162461bcd60e51b815260206004820181905260248201527f4f776e61626c653a2063616c6c6572206973206e6f7420746865206f776e6572604482015290519081900360640190fd5b6001600160a01b03811661069457600080fd5b600780547fffffffffffffffffffffffff0000000000000000000000000000000000000000166001600160a01b038381169190911791829055604080517f095ea7b300000000000000000000000000000000000000000000000000000000815292821660048401527fffffffffffffffffffffffffffffffffffffffffffffffffffffffffffffffff6024840152517f00000000000000000000000000000000000000000000000000000000000000009091169163095ea7b39160448083019260209291908290030181600087803b15801561076f57600080fd5b505af1158015610783573d6000803e3d6000fd5b505050506040513d602081101561079957600080fd5b505050565b7f000000000000000000000000000000000000000000000000000000000000000081565b60015481565b6000546001600160a01b031690565b6107df611583565b6001600160a01b03166107f06107c8565b6001600160a01b03161461084b576040805162461bcd60e51b815260206004820181905260248201527f4f776e61626c653a2063616c6c6572206973206e6f7420746865206f776e6572604482015290519081900360640190fd5b6001600160a01b03811661085e57600080fd5b600880547fffffffffffffffffffffffff0000000000000000000000000000000000000000166001600160a01b0392909216919091179055565b6009546001600160a01b03166108f5576040805162461bcd60e51b815260206004820152601160248201527f647261696e6374726c206e6f7420736574000000000000000000000000000000604482015290519081900360640190fd5b600554604080517f70a0823100000000000000000000000000000000000000000000000000000000815230600482015290516001600160a01b037f000000000000000000000000000000000000000000000000000000000000000016916370a08231916024808301926020929190829003018186803b15801561097757600080fd5b505afa15801561098b573d6000803e3d6000fd5b505050506040513d60208110156109a157600080fd5b505110156109f6576040805162461bcd60e51b815260206004820152601460248201527f776574682062616c616e636520746f6f206c6f77000000000000000000000000604482015290519081900360640190fd5b60007f00000000000000000000000000000000000000000000000000000000000000006001600160a01b03166370a08231306040518263ffffffff1660e01b815260040180826001600160a01b0316815260200191505060206040518083038186803b158015610a6557600080fd5b505afa158015610a79573d6000803e3d6000fd5b505050506040513d6020811015610a8f57600080fd5b5051600154909150600090610ab3906103e890610aad908590611587565b906115e9565b90506000610ad26103e8610aad6002548661158790919063ffffffff16565b90506000610af16103e8610aad6003548761158790919063ffffffff16565b90506000610b106103e8610aad6004548861158790919063ffffffff16565b90507f00000000000000000000000000000000000000000000000000000000000000006001600160a01b0316632e1a7d4d856040518263ffffffff1660e01b815260040180828152602001915050600060405180830381600087803b158015610b7857600080fd5b505af1158015610b8c573d6000803e3d6000fd5b50506009546040516001600160a01b03909116925086156108fc02915086906000818181858888f19350505050158015610bca573d6000803e3d6000fd5b50600654604080517fa9059cbb0000000000000000000000000000000000000000000000000000000081526001600160a01b0392831660048201526024810186905290517f00000000000000000000000000000000000000000000000000000000000000009092169163a9059cbb916044808201926020929091908290030181600087803b158015610c5b57600080fd5b505af1158015610c6f573d6000803e3d6000fd5b505050506040513d6020811015610c8557600080fd5b5050600754604080517fda3a5f720000000000000000000000000000000000000000000000000000000081526004810185905290516001600160a01b039092169163da3a5f729160248082019260009290919082900301818387803b158015610ced57600080fd5b505af1158015610d01573d6000803e3d6000fd5b505060408051600280825260608201835260009450909250906020830190803683370190505090507f000000000000000000000000000000000000000000000000000000000000000081600081518110610d5757fe5b60200260200101906001600160a01b031690816001600160a01b0316815250507f000000000000000000000000000000000000000000000000000000000000000081600181518110610da557fe5b6001600160a01b03909216602092830291909101909101528615610e6257604051600090419089908381818185875af1925050503d8060008114610e05576040519150601f19603f3d011682016040523d82523d6000602084013e610e0a565b606091505b5050905080610e60576040805162461bcd60e51b815260206004820152601360248201527f436f756c64206e6f7420746970206d696e657200000000000000000000000000604482015290519081900360640190fd5b505b604080517fd06ca61f00000000000000000000000000000000000000000000000000000000815260048101848152602482019283528351604483015283516000936001600160a01b037f0000000000000000000000000000000000000000000000000000000000000000169363d06ca61f9388938893919260640190602080860191028083838c5b83811015610f02578181015183820152602001610eea565b50505050905001935050505060006040518083038186803b158015610f2657600080fd5b505afa158015610f3a573d6000803e3d6000fd5b505050506040513d6000823e601f3d9081017fffffffffffffffffffffffffffffffffffffffffffffffffffffffffffffffe01682016040526020811015610f8157600080fd5b8101908080516040519392919084640100000000821115610fa157600080fd5b908301906020820185811115610fb657600080fd5b8251866020820283011164010000000082111715610fd357600080fd5b82525081516020918201928201910280838360005b83811015611000578181015183820152602001610fe8565b5050505090500160405250505090507f00000000000000000000000000000000000000000000000000000000000000006001600160a01b03166338ed1739848360018551038151811061104f57fe5b602002602001015185600860009054906101000a90046001600160a01b0316426040518663ffffffff1660e01b81526004018086815260200185815260200180602001846001600160a01b03168152602001838152602001828103825285818151815260200191508051906020019060200280838360005b838110156110df5781810151838201526020016110c7565b505050509050019650505050505050600060405180830381600087803b15801561110857600080fd5b505af115801561111c573d6000803e3d6000fd5b505050506040513d6000823e601f3d9081017fffffffffffffffffffffffffffffffffffffffffffffffffffffffffffffffe0168201604052602081101561116357600080fd5b810190808051604051939291908464010000000082111561118357600080fd5b90830190602082018581111561119857600080fd5b82518660208202830111640100000000821117156111b557600080fd5b82525081516020918201928201910280838360005b838110156111e25781810151838201526020016111ca565b50505050905001604052505050505050505050505050565b60035481565b611208611583565b6001600160a01b03166112196107c8565b6001600160a01b031614611274576040805162461bcd60e51b815260206004820181905260248201527f4f776e61626c653a2063616c6c6572206973206e6f7420746865206f776e6572604482015290519081900360640190fd5b6001600160a01b03811661128757600080fd5b600680547fffffffffffffffffffffffff0000000000000000000000000000000000000000166001600160a01b0392909216919091179055565b7f000000000000000000000000000000000000000000000000000000000000000081565b60055481565b6009546001600160a01b031681565b611302611583565b6001600160a01b03166113136107c8565b6001600160a01b03161461136e576040805162461bcd60e51b815260206004820181905260248201527f4f776e61626c653a2063616c6c6572206973206e6f7420746865206f776e6572604482015290519081900360640190fd5b600555565b61137b611583565b6001600160a01b031661138c6107c8565b6001600160a01b0316146113e7576040805162461bcd60e51b815260206004820181905260248201527f4f776e61626c653a2063616c6c6572206973206e6f7420746865206f776e6572604482015290519081900360640190fd5b6001600160a01b03811661142c5760405162461bcd60e51b81526004018080602001828103825260268152602001806116516026913960400191505060405180910390fd5b600080546040516001600160a01b03808516939216917f8be0079c531659141344cd1fd0a4f28419497f9722a3daafe3b4186f6b6457e091a3600080547fffffffffffffffffffffffff0000000000000000000000000000000000000000166001600160a01b0392909216919091179055565b6114a7611583565b6001600160a01b03166114b86107c8565b6001600160a01b031614611513576040805162461bcd60e51b815260206004820181905260248201527f4f776e61626c653a2063616c6c6572206973206e6f7420746865206f776e6572604482015290519081900360640190fd5b808284860101016103e81461156f576040805162461bcd60e51b815260206004820152601460248201527f696e76616c696420646973747269627574696f6e000000000000000000000000604482015290519081900360640190fd5b600193909355600291909155600355600455565b3390565b600082611596575060006115e3565b828202828482816115a357fe5b04146115e05760405162461bcd60e51b81526004018080602001828103825260218152602001806116776021913960400191505060405180910390fd5b90505b92915050565b600080821161163f576040805162461bcd60e51b815260206004820152601a60248201527f536166654d6174683a206469766973696f6e206279207a65726f000000000000604482015290519081900360640190fd5b81838161164857fe5b04939250505056fe4f776e61626c653a206e6577206f776e657220697320746865207a65726f2061646472657373536166654d6174683a206d756c7469706c69636174696f6e206f766572666c6f77a26469706673582212203695456a9f5e12fb21df840179f778952ad90841bb3c1f2941e8de4f566d3fb764736f6c63430007060033",
  "devdoc": {
    "kind": "dev",
    "methods": {
      "changeDRCRewardPool(address)": {
        "params": {
          "rewardPool_": "the new address"
        }
      },
      "changeDrainController(address)": {
        "params": {
          "drainController_": "the new address"
        }
      },
      "changeLPRewardPool(address)": {
        "params": {
          "rewardPool_": "the new address"
        }
      },
      "changeTreasury(address)": {
        "params": {
          "treasury_": "the new address"
        }
      },
      "constructor": {
        "params": {
          "drcRewardPool_": "address of the DRC reward pool",
          "lpRewardPool_": "address of the uniswap LP reward pool"
        }
      },
      "owner()": {
        "details": "Returns the address of the current owner."
      },
      "renounceOwnership()": {
        "details": "Leaves the contract without owner. It will not be possible to call `onlyOwner` functions anymore. Can only be called by the current owner. NOTE: Renouncing ownership will leave the contract without an owner, thereby removing any functionality that is only available to the owner."
      },
      "transferOwnership(address)": {
        "details": "Transfers ownership of the contract to a new account (`newOwner`). Can only be called by the current owner."
      }
    },
    "title": "Receives rewards from MasterVampire via drain and redistributes",
    "version": 1
  },
  "userdoc": {
    "kind": "user",
    "methods": {
      "changeDRCRewardPool(address)": {
        "notice": "Changes the address of the DRC->ETH reward pool"
      },
      "changeDistribution(uint256,uint256,uint256,uint256)": {
        "notice": "Changes the distribution percentage         Percentages are using decimal base of 1000 ie: 10% = 100"
      },
      "changeDrainController(address)": {
        "notice": "Changes the address of the Drain controller"
      },
      "changeLPRewardPool(address)": {
        "notice": "Changes the address of the uniswap LP reward pool"
      },
      "changeTreasury(address)": {
        "notice": "Changes the address of the treasury"
      },
      "constructor": {
        "notice": "Construct the contract"
      },
      "distribute(uint256)": {
        "notice": "Distributes drained rewards"
      },
      "setWETHThreshold(uint256)": {
        "notice": "Change the WETH distribute threshold"
      }
    },
    "version": 1
  },
  "storageLayout": {
    "storage": [
      {
        "astId": 7,
        "contract": "contracts/DrainDistributor.sol:DrainDistributor",
        "label": "_owner",
        "offset": 0,
        "slot": "0",
        "type": "t_address"
      },
      {
        "astId": 4503,
        "contract": "contracts/DrainDistributor.sol:DrainDistributor",
        "label": "gasShare",
        "offset": 0,
        "slot": "1",
        "type": "t_uint256"
      },
      {
        "astId": 4506,
        "contract": "contracts/DrainDistributor.sol:DrainDistributor",
        "label": "treasuryShare",
        "offset": 0,
        "slot": "2",
        "type": "t_uint256"
      },
      {
        "astId": 4509,
        "contract": "contracts/DrainDistributor.sol:DrainDistributor",
        "label": "lpRewardPoolShare",
        "offset": 0,
        "slot": "3",
        "type": "t_uint256"
      },
      {
        "astId": 4512,
        "contract": "contracts/DrainDistributor.sol:DrainDistributor",
        "label": "drcRewardPoolShare",
        "offset": 0,
        "slot": "4",
        "type": "t_uint256"
      },
      {
        "astId": 4515,
        "contract": "contracts/DrainDistributor.sol:DrainDistributor",
        "label": "wethThreshold",
        "offset": 0,
        "slot": "5",
        "type": "t_uint256"
      },
      {
        "astId": 4519,
        "contract": "contracts/DrainDistributor.sol:DrainDistributor",
        "label": "treasury",
        "offset": 0,
        "slot": "6",
        "type": "t_address"
      },
      {
        "astId": 4521,
        "contract": "contracts/DrainDistributor.sol:DrainDistributor",
        "label": "lpRewardPool",
        "offset": 0,
        "slot": "7",
        "type": "t_address"
      },
      {
        "astId": 4523,
        "contract": "contracts/DrainDistributor.sol:DrainDistributor",
        "label": "drcRewardPool",
        "offset": 0,
        "slot": "8",
        "type": "t_address_payable"
      },
      {
        "astId": 4525,
        "contract": "contracts/DrainDistributor.sol:DrainDistributor",
        "label": "drainController",
        "offset": 0,
        "slot": "9",
        "type": "t_address_payable"
      }
    ],
    "types": {
      "t_address": {
        "encoding": "inplace",
        "label": "address",
        "numberOfBytes": "20"
      },
      "t_address_payable": {
        "encoding": "inplace",
        "label": "address payable",
        "numberOfBytes": "20"
      },
      "t_uint256": {
        "encoding": "inplace",
        "label": "uint256",
        "numberOfBytes": "32"
      }
    }
  }
}