{
  "address": "0x4852a488F15AE544C75FED466908A2D1559EBAfa",
  "abi": [
    {
      "inputs": [
        {
          "internalType": "address",
          "name": "_chi",
          "type": "address"
        }
      ],
      "stateMutability": "nonpayable",
      "type": "constructor"
    },
    {
      "anonymous": false,
      "inputs": [
        {
          "indexed": true,
          "internalType": "address",
          "name": "previousOwner",
          "type": "address"
        },
        {
          "indexed": true,
          "internalType": "address",
          "name": "newOwner",
          "type": "address"
        }
      ],
      "name": "OwnershipTransferred",
      "type": "event"
    },
    {
      "inputs": [],
      "name": "chi",
      "outputs": [
        {
          "internalType": "contract IChiToken",
          "name": "",
          "type": "address"
        }
      ],
      "stateMutability": "view",
      "type": "function"
    },
    {
      "inputs": [
        {
          "internalType": "uint256[]",
          "name": "pids",
          "type": "uint256[]"
        }
      ],
      "name": "drainPools",
      "outputs": [],
      "stateMutability": "nonpayable",
      "type": "function"
    },
    {
      "inputs": [],
      "name": "isDrainable",
      "outputs": [
        {
          "internalType": "int32[]",
          "name": "",
          "type": "int32[]"
        }
      ],
      "stateMutability": "view",
      "type": "function"
    },
    {
      "inputs": [
        {
          "internalType": "address payable",
          "name": "to",
          "type": "address"
        }
      ],
      "name": "kill",
      "outputs": [],
      "stateMutability": "nonpayable",
      "type": "function"
    },
    {
      "inputs": [],
      "name": "masterVampire",
      "outputs": [
        {
          "internalType": "contract IMasterVampire",
          "name": "",
          "type": "address"
        }
      ],
      "stateMutability": "view",
      "type": "function"
    },
    {
      "inputs": [],
      "name": "maxGasPrice",
      "outputs": [
        {
          "internalType": "uint256",
          "name": "",
          "type": "uint256"
        }
      ],
      "stateMutability": "view",
      "type": "function"
    },
    {
      "inputs": [],
      "name": "owner",
      "outputs": [
        {
          "internalType": "address",
          "name": "",
          "type": "address"
        }
      ],
      "stateMutability": "view",
      "type": "function"
    },
    {
      "inputs": [],
      "name": "renounceOwnership",
      "outputs": [],
      "stateMutability": "nonpayable",
      "type": "function"
    },
    {
      "inputs": [
        {
          "internalType": "address",
          "name": "masterVampire_",
          "type": "address"
        }
      ],
      "name": "setMasterVampire",
      "outputs": [],
      "stateMutability": "nonpayable",
      "type": "function"
    },
    {
      "inputs": [
        {
          "internalType": "uint256",
          "name": "maxGasPrice_",
          "type": "uint256"
        }
      ],
      "name": "setMaxGasPrice",
      "outputs": [],
      "stateMutability": "nonpayable",
      "type": "function"
    },
    {
      "inputs": [
        {
          "internalType": "uint256",
          "name": "wethThreshold_",
          "type": "uint256"
        }
      ],
      "name": "setWETHThreshold",
      "outputs": [],
      "stateMutability": "nonpayable",
      "type": "function"
    },
    {
      "inputs": [
        {
          "internalType": "address",
          "name": "newOwner",
          "type": "address"
        }
      ],
      "name": "transferOwnership",
      "outputs": [],
      "stateMutability": "nonpayable",
      "type": "function"
    },
    {
      "inputs": [
        {
          "internalType": "address",
          "name": "account_",
          "type": "address"
        }
      ],
      "name": "unWhitelist",
      "outputs": [],
      "stateMutability": "nonpayable",
      "type": "function"
    },
    {
      "inputs": [],
      "name": "wethThreshold",
      "outputs": [
        {
          "internalType": "uint256",
          "name": "",
          "type": "uint256"
        }
      ],
      "stateMutability": "view",
      "type": "function"
    },
    {
      "inputs": [
        {
          "internalType": "address",
          "name": "account_",
          "type": "address"
        }
      ],
      "name": "whitelist",
      "outputs": [],
      "stateMutability": "nonpayable",
      "type": "function"
    },
    {
      "inputs": [
        {
          "internalType": "address payable",
          "name": "to",
          "type": "address"
        }
      ],
      "name": "withdrawETH",
      "outputs": [],
      "stateMutability": "nonpayable",
      "type": "function"
    },
    {
      "stateMutability": "payable",
      "type": "receive"
    }
  ],
  "transactionHash": "0x8a28a63339a6c2313ec3637b087a4ac1aa2d838c212e96a85499f37455377c0c",
  "args": [
    "0x0000000000004946c0e9F43F4Dee607b0eF1fA1c"
  ],
  "solcInputHash": "e166554613407b5e5de9c2eccf5906c7",
  "bytecode": "0x60a06040526702c68af0bb140000600255603c60035534801561002157600080fd5b506040516115f53803806115f5833981016040819052610040916100c9565b600061004a6100c5565b600080546001600160a01b0319166001600160a01b0383169081178255604051929350917f8be0079c531659141344cd1fd0a4f28419497f9722a3daafe3b4186f6b6457e0908290a3503360009081526004602052604090208054600160ff1990911617905560601b6001600160601b0319166080526100f7565b3390565b6000602082840312156100da578081fd5b81516001600160a01b03811681146100f0578182fd5b9392505050565b60805160601c6114dc61011960003980610a9252806110db52506114dc6000f3fe6080604052600436106100f75760003560e01c8063c92aecc41161008a578063e75b377e11610059578063e75b377e14610268578063f21af00714610288578063f2fde38b146102a8578063f6304d90146102c8576100fe565b8063c92aecc4146101fe578063cbf0b0c014610213578063d24aeaee14610233578063d2fa635e14610248576100fe565b8063715018a6116100c6578063715018a6146101925780638da5cb5b146101a75780639b19251a146101bc578063a7418259146101dc576100fe565b806315d22534146101035780633de39c111461012e5780634d8ce39614610150578063690d832014610172576100fe565b366100fe57005b600080fd5b34801561010f57600080fd5b506101186102e8565b6040516101259190611341565b60405180910390f35b34801561013a57600080fd5b50610143610304565b6040516101259190611434565b34801561015c57600080fd5b5061017061016b3660046111eb565b61030a565b005b34801561017e57600080fd5b5061017061018d3660046111eb565b6103ff565b34801561019e57600080fd5b506101706104d3565b3480156101b357600080fd5b506101186105d0565b3480156101c857600080fd5b506101706101d73660046111eb565b6105ec565b3480156101e857600080fd5b506101f16106c9565b6040516101259190611388565b34801561020a57600080fd5b50610118610a90565b34801561021f57600080fd5b5061017061022e3660046111eb565b610ab4565b34801561023f57600080fd5b50610143610b88565b34801561025457600080fd5b50610170610263366004611311565b610b8e565b34801561027457600080fd5b50610170610283366004611311565b610c21565b34801561029457600080fd5b506101706102a33660046111eb565b610cb4565b3480156102b457600080fd5b506101706102c33660046111eb565b610d8e565b3480156102d457600080fd5b506101706102e3366004611207565b610efb565b60015473ffffffffffffffffffffffffffffffffffffffff1681565b60035481565b610312611185565b73ffffffffffffffffffffffffffffffffffffffff166103306105d0565b73ffffffffffffffffffffffffffffffffffffffff1614610398576040805162461bcd60e51b815260206004820181905260248201527f4f776e61626c653a2063616c6c6572206973206e6f7420746865206f776e6572604482015290519081900360640190fd5b73ffffffffffffffffffffffffffffffffffffffff81166103b857600080fd5b600180547fffffffffffffffffffffffff00000000000000000000000000000000000000001673ffffffffffffffffffffffffffffffffffffffff92909216919091179055565b610407611185565b73ffffffffffffffffffffffffffffffffffffffff166104256105d0565b73ffffffffffffffffffffffffffffffffffffffff161461048d576040805162461bcd60e51b815260206004820181905260248201527f4f776e61626c653a2063616c6c6572206973206e6f7420746865206f776e6572604482015290519081900360640190fd5b60405173ffffffffffffffffffffffffffffffffffffffff8216904780156108fc02916000818181858888f193505050501580156104cf573d6000803e3d6000fd5b5050565b6104db611185565b73ffffffffffffffffffffffffffffffffffffffff166104f96105d0565b73ffffffffffffffffffffffffffffffffffffffff1614610561576040805162461bcd60e51b815260206004820181905260248201527f4f776e61626c653a2063616c6c6572206973206e6f7420746865206f776e6572604482015290519081900360640190fd5b6000805460405173ffffffffffffffffffffffffffffffffffffffff909116907f8be0079c531659141344cd1fd0a4f28419497f9722a3daafe3b4186f6b6457e0908390a3600080547fffffffffffffffffffffffff0000000000000000000000000000000000000000169055565b60005473ffffffffffffffffffffffffffffffffffffffff1690565b6105f4611185565b73ffffffffffffffffffffffffffffffffffffffff166106126105d0565b73ffffffffffffffffffffffffffffffffffffffff161461067a576040805162461bcd60e51b815260206004820181905260248201527f4f776e61626c653a2063616c6c6572206973206e6f7420746865206f776e6572604482015290519081900360640190fd5b73ffffffffffffffffffffffffffffffffffffffff16600090815260046020526040902080547fffffffffffffffffffffffffffffffffffffffffffffffffffffffffffffff00166001179055565b60606000600160009054906101000a900473ffffffffffffffffffffffffffffffffffffffff1673ffffffffffffffffffffffffffffffffffffffff1663081e3eda6040518163ffffffff1660e01b815260040160206040518083038186803b15801561073557600080fd5b505afa158015610749573d6000803e3d6000fd5b505050506040513d601f19601f8201168201806040525081019061076d9190611329565b905060008167ffffffffffffffff8111801561078857600080fd5b506040519080825280602002602001820160405280156107b2578160200160208202803683370190505b50905060005b82811015610a89577fffffffffffffffffffffffffffffffffffffffffffffffffffffffffffffffff8282815181106107ed57fe5b600392830b90920b602092830291909101909101526001546040517f1526fe27000000000000000000000000000000000000000000000000000000008152600091829173ffffffffffffffffffffffffffffffffffffffff90911690631526fe279061085d908690600401611434565b60e06040518083038186803b15801561087557600080fd5b505afa158015610889573d6000803e3d6000fd5b505050506040513d601f19601f820116820180604052508101906108ad91906112b5565b505050505091509150600073ffffffffffffffffffffffffffffffffffffffff168273ffffffffffffffffffffffffffffffffffffffff1614610a7f576001546040517f89c70e7900000000000000000000000000000000000000000000000000000000815260009173ffffffffffffffffffffffffffffffffffffffff16906389c70e7990610941908790600401611434565b60206040518083038186803b15801561095957600080fd5b505afa15801561096d573d6000803e3d6000fd5b505050506040513d601f19601f820116820180604052508101906109919190611329565b90508015610a7d576002546040517f9fe833db0000000000000000000000000000000000000000000000000000000081527344DdA8E799dE6A4a4a50052793D208B3bE16cA3390639fe833db90610a069073ffffffffffffffffffffffffffffffffffffffff881690879087906004016113cf565b60206040518083038186803b158015610a1e57600080fd5b505af4158015610a32573d6000803e3d6000fd5b505050506040513d601f19601f82011682018060405250810190610a569190611329565b10610a7d5783858581518110610a6857fe5b602002602001019060030b908160030b815250505b505b50506001016107b8565b5091505090565b7f000000000000000000000000000000000000000000000000000000000000000081565b610abc611185565b73ffffffffffffffffffffffffffffffffffffffff16610ada6105d0565b73ffffffffffffffffffffffffffffffffffffffff1614610b42576040805162461bcd60e51b815260206004820181905260248201527f4f776e61626c653a2063616c6c6572206973206e6f7420746865206f776e6572604482015290519081900360640190fd5b60405173ffffffffffffffffffffffffffffffffffffffff8216904780156108fc02916000818181858888f19350505050158015610b84573d6000803e3d6000fd5b5033ff5b60025481565b610b96611185565b73ffffffffffffffffffffffffffffffffffffffff16610bb46105d0565b73ffffffffffffffffffffffffffffffffffffffff1614610c1c576040805162461bcd60e51b815260206004820181905260248201527f4f776e61626c653a2063616c6c6572206973206e6f7420746865206f776e6572604482015290519081900360640190fd5b600355565b610c29611185565b73ffffffffffffffffffffffffffffffffffffffff16610c476105d0565b73ffffffffffffffffffffffffffffffffffffffff1614610caf576040805162461bcd60e51b815260206004820181905260248201527f4f776e61626c653a2063616c6c6572206973206e6f7420746865206f776e6572604482015290519081900360640190fd5b600255565b610cbc611185565b73ffffffffffffffffffffffffffffffffffffffff16610cda6105d0565b73ffffffffffffffffffffffffffffffffffffffff1614610d42576040805162461bcd60e51b815260206004820181905260248201527f4f776e61626c653a2063616c6c6572206973206e6f7420746865206f776e6572604482015290519081900360640190fd5b73ffffffffffffffffffffffffffffffffffffffff16600090815260046020526040902080547fffffffffffffffffffffffffffffffffffffffffffffffffffffffffffffff00169055565b610d96611185565b73ffffffffffffffffffffffffffffffffffffffff16610db46105d0565b73ffffffffffffffffffffffffffffffffffffffff1614610e1c576040805162461bcd60e51b815260206004820181905260248201527f4f776e61626c653a2063616c6c6572206973206e6f7420746865206f776e6572604482015290519081900360640190fd5b73ffffffffffffffffffffffffffffffffffffffff8116610e6e5760405162461bcd60e51b81526004018080602001828103825260268152602001806114606026913960400191505060405180910390fd5b6000805460405173ffffffffffffffffffffffffffffffffffffffff808516939216917f8be0079c531659141344cd1fd0a4f28419497f9722a3daafe3b4186f6b6457e091a3600080547fffffffffffffffffffffffff00000000000000000000000000000000000000001673ffffffffffffffffffffffffffffffffffffffff92909216919091179055565b3360009081526004602052604090205460ff16610f335760405162461bcd60e51b8152600401610f2a906113fd565b60405180910390fd5b60005a6003549091504790600090610f4f90633b9aca00611189565b6003549091503a9015801590610f6457508181115b15610f6c5750805b845160005b81811015611027576000878281518110610f8757fe5b60209081029190910101516001546040517ff6b19c7400000000000000000000000000000000000000000000000000000000815291925073ffffffffffffffffffffffffffffffffffffffff169063f6b19c7490610fe9908490600401611434565b600060405180830381600087803b15801561100357600080fd5b505af1158015611017573d6000803e3d6000fd5b5050505050806001019050610f71565b505060005a850362014c0801905081810280851061107857604051339082156108fc029083906000818181858888f1935050505015801561106c573d6000803e3d6000fd5b50505050505050611182565b604051339086156108fc029087906000818181858888f193505050501580156110a5573d6000803e3d6000fd5b505a860362014c0801915050818102600083868303816110c157fe5b04905073ffffffffffffffffffffffffffffffffffffffff7f00000000000000000000000000000000000000000000000000000000000000001663079d229f3361a3db61374a8501046040518363ffffffff1660e01b8152600401611127929190611362565b602060405180830381600087803b15801561114157600080fd5b505af1158015611155573d6000803e3d6000fd5b505050506040513d601f19601f820116820180604052508101906111799190611329565b50505050505050505b50565b3390565b600082611198575060006111e5565b828202828482816111a557fe5b04146111e25760405162461bcd60e51b81526004018080602001828103825260218152602001806114866021913960400191505060405180910390fd5b90505b92915050565b6000602082840312156111fc578081fd5b81356111e28161143d565b60006020808385031215611219578182fd5b823567ffffffffffffffff80821115611230578384fd5b818501915085601f830112611243578384fd5b81358181111561124f57fe5b8381026040518582820101818110858211171561126857fe5b604052828152858101935084860182860187018a1015611286578788fd5b8795505b838610156112a857803585526001959095019493860193860161128a565b5098975050505050505050565b600080600080600080600060e0888a0312156112cf578283fd5b87516112da8161143d565b602089015160408a015160608b015160808c015160a08d015160c0909d0151949e939d50919b909a50909850965090945092505050565b600060208284031215611322578081fd5b5035919050565b60006020828403121561133a578081fd5b5051919050565b73ffffffffffffffffffffffffffffffffffffffff91909116815260200190565b73ffffffffffffffffffffffffffffffffffffffff929092168252602082015260400190565b6020808252825182820181905260009190848201906040850190845b818110156113c357835160030b835292840192918401916001016113a4565b50909695505050505050565b73ffffffffffffffffffffffffffffffffffffffff9390931683526020830191909152604082015260600190565b6020808252601a908201527f6163636f756e74206973206e6f742077686974656c6973746564000000000000604082015260600190565b90815260200190565b73ffffffffffffffffffffffffffffffffffffffff8116811461118257600080fdfe4f776e61626c653a206e6577206f776e657220697320746865207a65726f2061646472657373536166654d6174683a206d756c7469706c69636174696f6e206f766572666c6f77a264697066735822122023377c7631de29ba16e0d307d818335fed33d458f01c7f88e6715c6cabb65d0064736f6c63430007060033",
  "deployedBytecode": "0x6080604052600436106100f75760003560e01c8063c92aecc41161008a578063e75b377e11610059578063e75b377e14610268578063f21af00714610288578063f2fde38b146102a8578063f6304d90146102c8576100fe565b8063c92aecc4146101fe578063cbf0b0c014610213578063d24aeaee14610233578063d2fa635e14610248576100fe565b8063715018a6116100c6578063715018a6146101925780638da5cb5b146101a75780639b19251a146101bc578063a7418259146101dc576100fe565b806315d22534146101035780633de39c111461012e5780634d8ce39614610150578063690d832014610172576100fe565b366100fe57005b600080fd5b34801561010f57600080fd5b506101186102e8565b6040516101259190611341565b60405180910390f35b34801561013a57600080fd5b50610143610304565b6040516101259190611434565b34801561015c57600080fd5b5061017061016b3660046111eb565b61030a565b005b34801561017e57600080fd5b5061017061018d3660046111eb565b6103ff565b34801561019e57600080fd5b506101706104d3565b3480156101b357600080fd5b506101186105d0565b3480156101c857600080fd5b506101706101d73660046111eb565b6105ec565b3480156101e857600080fd5b506101f16106c9565b6040516101259190611388565b34801561020a57600080fd5b50610118610a90565b34801561021f57600080fd5b5061017061022e3660046111eb565b610ab4565b34801561023f57600080fd5b50610143610b88565b34801561025457600080fd5b50610170610263366004611311565b610b8e565b34801561027457600080fd5b50610170610283366004611311565b610c21565b34801561029457600080fd5b506101706102a33660046111eb565b610cb4565b3480156102b457600080fd5b506101706102c33660046111eb565b610d8e565b3480156102d457600080fd5b506101706102e3366004611207565b610efb565b60015473ffffffffffffffffffffffffffffffffffffffff1681565b60035481565b610312611185565b73ffffffffffffffffffffffffffffffffffffffff166103306105d0565b73ffffffffffffffffffffffffffffffffffffffff1614610398576040805162461bcd60e51b815260206004820181905260248201527f4f776e61626c653a2063616c6c6572206973206e6f7420746865206f776e6572604482015290519081900360640190fd5b73ffffffffffffffffffffffffffffffffffffffff81166103b857600080fd5b600180547fffffffffffffffffffffffff00000000000000000000000000000000000000001673ffffffffffffffffffffffffffffffffffffffff92909216919091179055565b610407611185565b73ffffffffffffffffffffffffffffffffffffffff166104256105d0565b73ffffffffffffffffffffffffffffffffffffffff161461048d576040805162461bcd60e51b815260206004820181905260248201527f4f776e61626c653a2063616c6c6572206973206e6f7420746865206f776e6572604482015290519081900360640190fd5b60405173ffffffffffffffffffffffffffffffffffffffff8216904780156108fc02916000818181858888f193505050501580156104cf573d6000803e3d6000fd5b5050565b6104db611185565b73ffffffffffffffffffffffffffffffffffffffff166104f96105d0565b73ffffffffffffffffffffffffffffffffffffffff1614610561576040805162461bcd60e51b815260206004820181905260248201527f4f776e61626c653a2063616c6c6572206973206e6f7420746865206f776e6572604482015290519081900360640190fd5b6000805460405173ffffffffffffffffffffffffffffffffffffffff909116907f8be0079c531659141344cd1fd0a4f28419497f9722a3daafe3b4186f6b6457e0908390a3600080547fffffffffffffffffffffffff0000000000000000000000000000000000000000169055565b60005473ffffffffffffffffffffffffffffffffffffffff1690565b6105f4611185565b73ffffffffffffffffffffffffffffffffffffffff166106126105d0565b73ffffffffffffffffffffffffffffffffffffffff161461067a576040805162461bcd60e51b815260206004820181905260248201527f4f776e61626c653a2063616c6c6572206973206e6f7420746865206f776e6572604482015290519081900360640190fd5b73ffffffffffffffffffffffffffffffffffffffff16600090815260046020526040902080547fffffffffffffffffffffffffffffffffffffffffffffffffffffffffffffff00166001179055565b60606000600160009054906101000a900473ffffffffffffffffffffffffffffffffffffffff1673ffffffffffffffffffffffffffffffffffffffff1663081e3eda6040518163ffffffff1660e01b815260040160206040518083038186803b15801561073557600080fd5b505afa158015610749573d6000803e3d6000fd5b505050506040513d601f19601f8201168201806040525081019061076d9190611329565b905060008167ffffffffffffffff8111801561078857600080fd5b506040519080825280602002602001820160405280156107b2578160200160208202803683370190505b50905060005b82811015610a89577fffffffffffffffffffffffffffffffffffffffffffffffffffffffffffffffff8282815181106107ed57fe5b600392830b90920b602092830291909101909101526001546040517f1526fe27000000000000000000000000000000000000000000000000000000008152600091829173ffffffffffffffffffffffffffffffffffffffff90911690631526fe279061085d908690600401611434565b60e06040518083038186803b15801561087557600080fd5b505afa158015610889573d6000803e3d6000fd5b505050506040513d601f19601f820116820180604052508101906108ad91906112b5565b505050505091509150600073ffffffffffffffffffffffffffffffffffffffff168273ffffffffffffffffffffffffffffffffffffffff1614610a7f576001546040517f89c70e7900000000000000000000000000000000000000000000000000000000815260009173ffffffffffffffffffffffffffffffffffffffff16906389c70e7990610941908790600401611434565b60206040518083038186803b15801561095957600080fd5b505afa15801561096d573d6000803e3d6000fd5b505050506040513d601f19601f820116820180604052508101906109919190611329565b90508015610a7d576002546040517f9fe833db00000000000000000000000000000000000000000000000000000000815273__$73c6edfe3f2e6e88b24dd13808d31aba3f$__90639fe833db90610a069073ffffffffffffffffffffffffffffffffffffffff881690879087906004016113cf565b60206040518083038186803b158015610a1e57600080fd5b505af4158015610a32573d6000803e3d6000fd5b505050506040513d601f19601f82011682018060405250810190610a569190611329565b10610a7d5783858581518110610a6857fe5b602002602001019060030b908160030b815250505b505b50506001016107b8565b5091505090565b7f000000000000000000000000000000000000000000000000000000000000000081565b610abc611185565b73ffffffffffffffffffffffffffffffffffffffff16610ada6105d0565b73ffffffffffffffffffffffffffffffffffffffff1614610b42576040805162461bcd60e51b815260206004820181905260248201527f4f776e61626c653a2063616c6c6572206973206e6f7420746865206f776e6572604482015290519081900360640190fd5b60405173ffffffffffffffffffffffffffffffffffffffff8216904780156108fc02916000818181858888f19350505050158015610b84573d6000803e3d6000fd5b5033ff5b60025481565b610b96611185565b73ffffffffffffffffffffffffffffffffffffffff16610bb46105d0565b73ffffffffffffffffffffffffffffffffffffffff1614610c1c576040805162461bcd60e51b815260206004820181905260248201527f4f776e61626c653a2063616c6c6572206973206e6f7420746865206f776e6572604482015290519081900360640190fd5b600355565b610c29611185565b73ffffffffffffffffffffffffffffffffffffffff16610c476105d0565b73ffffffffffffffffffffffffffffffffffffffff1614610caf576040805162461bcd60e51b815260206004820181905260248201527f4f776e61626c653a2063616c6c6572206973206e6f7420746865206f776e6572604482015290519081900360640190fd5b600255565b610cbc611185565b73ffffffffffffffffffffffffffffffffffffffff16610cda6105d0565b73ffffffffffffffffffffffffffffffffffffffff1614610d42576040805162461bcd60e51b815260206004820181905260248201527f4f776e61626c653a2063616c6c6572206973206e6f7420746865206f776e6572604482015290519081900360640190fd5b73ffffffffffffffffffffffffffffffffffffffff16600090815260046020526040902080547fffffffffffffffffffffffffffffffffffffffffffffffffffffffffffffff00169055565b610d96611185565b73ffffffffffffffffffffffffffffffffffffffff16610db46105d0565b73ffffffffffffffffffffffffffffffffffffffff1614610e1c576040805162461bcd60e51b815260206004820181905260248201527f4f776e61626c653a2063616c6c6572206973206e6f7420746865206f776e6572604482015290519081900360640190fd5b73ffffffffffffffffffffffffffffffffffffffff8116610e6e5760405162461bcd60e51b81526004018080602001828103825260268152602001806114606026913960400191505060405180910390fd5b6000805460405173ffffffffffffffffffffffffffffffffffffffff808516939216917f8be0079c531659141344cd1fd0a4f28419497f9722a3daafe3b4186f6b6457e091a3600080547fffffffffffffffffffffffff00000000000000000000000000000000000000001673ffffffffffffffffffffffffffffffffffffffff92909216919091179055565b3360009081526004602052604090205460ff16610f335760405162461bcd60e51b8152600401610f2a906113fd565b60405180910390fd5b60005a6003549091504790600090610f4f90633b9aca00611189565b6003549091503a9015801590610f6457508181115b15610f6c5750805b845160005b81811015611027576000878281518110610f8757fe5b60209081029190910101516001546040517ff6b19c7400000000000000000000000000000000000000000000000000000000815291925073ffffffffffffffffffffffffffffffffffffffff169063f6b19c7490610fe9908490600401611434565b600060405180830381600087803b15801561100357600080fd5b505af1158015611017573d6000803e3d6000fd5b5050505050806001019050610f71565b505060005a850362014c0801905081810280851061107857604051339082156108fc029083906000818181858888f1935050505015801561106c573d6000803e3d6000fd5b50505050505050611182565b604051339086156108fc029087906000818181858888f193505050501580156110a5573d6000803e3d6000fd5b505a860362014c0801915050818102600083868303816110c157fe5b04905073ffffffffffffffffffffffffffffffffffffffff7f00000000000000000000000000000000000000000000000000000000000000001663079d229f3361a3db61374a8501046040518363ffffffff1660e01b8152600401611127929190611362565b602060405180830381600087803b15801561114157600080fd5b505af1158015611155573d6000803e3d6000fd5b505050506040513d601f19601f820116820180604052508101906111799190611329565b50505050505050505b50565b3390565b600082611198575060006111e5565b828202828482816111a557fe5b04146111e25760405162461bcd60e51b81526004018080602001828103825260218152602001806114866021913960400191505060405180910390fd5b90505b92915050565b6000602082840312156111fc578081fd5b81356111e28161143d565b60006020808385031215611219578182fd5b823567ffffffffffffffff80821115611230578384fd5b818501915085601f830112611243578384fd5b81358181111561124f57fe5b8381026040518582820101818110858211171561126857fe5b604052828152858101935084860182860187018a1015611286578788fd5b8795505b838610156112a857803585526001959095019493860193860161128a565b5098975050505050505050565b600080600080600080600060e0888a0312156112cf578283fd5b87516112da8161143d565b602089015160408a015160608b015160808c015160a08d015160c0909d0151949e939d50919b909a50909850965090945092505050565b600060208284031215611322578081fd5b5035919050565b60006020828403121561133a578081fd5b5051919050565b73ffffffffffffffffffffffffffffffffffffffff91909116815260200190565b73ffffffffffffffffffffffffffffffffffffffff929092168252602082015260400190565b6020808252825182820181905260009190848201906040850190845b818110156113c357835160030b835292840192918401916001016113a4565b50909695505050505050565b73ffffffffffffffffffffffffffffffffffffffff9390931683526020830191909152604082015260600190565b6020808252601a908201527f6163636f756e74206973206e6f742077686974656c6973746564000000000000604082015260600190565b90815260200190565b73ffffffffffffffffffffffffffffffffffffffff8116811461118257600080fdfe4f776e61626c653a206e6577206f776e657220697320746865207a65726f2061646472657373536166654d6174683a206d756c7469706c69636174696f6e206f766572666c6f77a264697066735822122023377c7631de29ba16e0d307d818335fed33d458f01c7f88e6715c6cabb65d0064736f6c63430007060033",
  "libraries": {
    "VampireAdapter": "0x44DdA8E799dE6A4a4a50052793D208B3bE16cA33"
  },
  "devdoc": {
    "kind": "dev",
    "methods": {
      "kill(address)": {
        "params": {
          "to": "Address to send any remaining ETH to before contract is destroyed"
        }
      },
      "owner()": {
        "details": "Returns the address of the current owner."
      },
      "renounceOwnership()": {
        "details": "Leaves the contract without owner. It will not be possible to call `onlyOwner` functions anymore. Can only be called by the current owner. NOTE: Renouncing ownership will leave the contract without an owner, thereby removing any functionality that is only available to the owner."
      },
      "transferOwnership(address)": {
        "details": "Transfers ownership of the contract to a new account (`newOwner`). Can only be called by the current owner."
      },
      "unWhitelist(address)": {
        "details": "Removes account from whitelist",
        "params": {
          "account_": "The address to remove from the whitelist"
        }
      },
      "whitelist(address)": {
        "details": "Adds account to whitelist",
        "params": {
          "account_": "The address to whitelist"
        }
      },
      "withdrawETH(address)": {
        "params": {
          "to": "Address to send ETH balance"
        }
      }
    },
    "title": "Controls the \"drain\" of pool rewards drainPools should be called by a whitelisted node. This function calls drain() for each pool in MasterVampire if the reward WETH value is greater then the configured threshold. This contract has \"gas treasury\" which is funded in ETH by DrainDistributor. ETH is refunded to the node to pay for a portion of the gas fee. Chi Tokens can be used for any remaining gas discounts if caller holds the tokens. If the contract needs to be replaced the deployer can destruct the contract and get a gas refund, as well as collect any remaining ETH to be deployed to the new contract.",
    "version": 1
  },
  "userdoc": {
    "kind": "user",
    "methods": {
      "drainPools(uint256[])": {
        "notice": "Drains the specified pools"
      },
      "isDrainable()": {
        "notice": "Determines if drain can be performed"
      },
      "kill(address)": {
        "notice": "Destruct contract to get a refund and also move any left over ETH to specified address"
      },
      "setMasterVampire(address)": {
        "notice": "Change MasterVampire contract"
      },
      "setMaxGasPrice(uint256)": {
        "notice": "Change the maximum gas price in Gwei for refunds"
      },
      "setWETHThreshold(uint256)": {
        "notice": "Change the WETH drain threshold"
      },
      "withdrawETH(address)": {
        "notice": "Provides a way to remove ETH balance from contract"
      }
    },
    "version": 1
  },
  "storageLayout": {
    "storage": [
      {
        "astId": 7,
        "contract": "contracts/DrainController.sol:DrainController",
        "label": "_owner",
        "offset": 0,
        "slot": "0",
        "type": "t_address"
      },
      {
        "astId": 3717,
        "contract": "contracts/DrainController.sol:DrainController",
        "label": "masterVampire",
        "offset": 0,
        "slot": "1",
        "type": "t_contract(IMasterVampire)3703"
      },
      {
        "astId": 3720,
        "contract": "contracts/DrainController.sol:DrainController",
        "label": "wethThreshold",
        "offset": 0,
        "slot": "2",
        "type": "t_uint256"
      },
      {
        "astId": 3723,
        "contract": "contracts/DrainController.sol:DrainController",
        "label": "maxGasPrice",
        "offset": 0,
        "slot": "3",
        "type": "t_uint256"
      },
      {
        "astId": 3727,
        "contract": "contracts/DrainController.sol:DrainController",
        "label": "whitelistedNode",
        "offset": 0,
        "slot": "4",
        "type": "t_mapping(t_address,t_bool)"
      }
    ],
    "types": {
      "t_address": {
        "encoding": "inplace",
        "label": "address",
        "numberOfBytes": "20"
      },
      "t_bool": {
        "encoding": "inplace",
        "label": "bool",
        "numberOfBytes": "1"
      },
      "t_contract(IMasterVampire)3703": {
        "encoding": "inplace",
        "label": "contract IMasterVampire",
        "numberOfBytes": "20"
      },
      "t_mapping(t_address,t_bool)": {
        "encoding": "mapping",
        "key": "t_address",
        "label": "mapping(address => bool)",
        "numberOfBytes": "32",
        "value": "t_bool"
      },
      "t_uint256": {
        "encoding": "inplace",
        "label": "uint256",
        "numberOfBytes": "32"
      }
    }
  }
}