{
  "address": "0xcA329C19396DfB92F570FD19E6F468AF87c9a9c1",
  "abi": [
    {
      "inputs": [
        {
          "internalType": "address",
          "name": "rewardToken_",
          "type": "address"
        },
        {
          "internalType": "address",
          "name": "stakingToken_",
          "type": "address"
        },
        {
          "internalType": "uint256",
          "name": "rewardsDuration_",
          "type": "uint256"
        },
        {
          "internalType": "address",
          "name": "rewardSupplier_",
          "type": "address"
        }
      ],
      "stateMutability": "nonpayable",
      "type": "constructor"
    },
    {
      "anonymous": false,
      "inputs": [
        {
          "indexed": true,
          "internalType": "address",
          "name": "previousOwner",
          "type": "address"
        },
        {
          "indexed": true,
          "internalType": "address",
          "name": "newOwner",
          "type": "address"
        }
      ],
      "name": "OwnershipTransferred",
      "type": "event"
    },
    {
      "anonymous": false,
      "inputs": [
        {
          "indexed": false,
          "internalType": "uint256",
          "name": "reward",
          "type": "uint256"
        }
      ],
      "name": "RewardAdded",
      "type": "event"
    },
    {
      "anonymous": false,
      "inputs": [
        {
          "indexed": true,
          "internalType": "address",
          "name": "user",
          "type": "address"
        },
        {
          "indexed": false,
          "internalType": "uint256",
          "name": "reward",
          "type": "uint256"
        }
      ],
      "name": "RewardPaid",
      "type": "event"
    },
    {
      "anonymous": false,
      "inputs": [
        {
          "indexed": true,
          "internalType": "address",
          "name": "user",
          "type": "address"
        },
        {
          "indexed": false,
          "internalType": "uint256",
          "name": "amount",
          "type": "uint256"
        }
      ],
      "name": "Staked",
      "type": "event"
    },
    {
      "anonymous": false,
      "inputs": [
        {
          "indexed": true,
          "internalType": "address",
          "name": "user",
          "type": "address"
        },
        {
          "indexed": false,
          "internalType": "uint256",
          "name": "amount",
          "type": "uint256"
        }
      ],
      "name": "Withdrawn",
      "type": "event"
    },
    {
      "inputs": [
        {
          "internalType": "address",
          "name": "supplier",
          "type": "address"
        }
      ],
      "name": "addRewardSupplier",
      "outputs": [],
      "stateMutability": "nonpayable",
      "type": "function"
    },
    {
      "inputs": [
        {
          "internalType": "address",
          "name": "account",
          "type": "address"
        }
      ],
      "name": "balanceOf",
      "outputs": [
        {
          "internalType": "uint256",
          "name": "",
          "type": "uint256"
        }
      ],
      "stateMutability": "view",
      "type": "function"
    },
    {
      "inputs": [
        {
          "internalType": "address",
          "name": "account",
          "type": "address"
        }
      ],
      "name": "earned",
      "outputs": [
        {
          "internalType": "uint256",
          "name": "",
          "type": "uint256"
        }
      ],
      "stateMutability": "view",
      "type": "function"
    },
    {
      "inputs": [
        {
          "internalType": "uint256",
          "name": "reward",
          "type": "uint256"
        }
      ],
      "name": "fundPool",
      "outputs": [],
      "stateMutability": "nonpayable",
      "type": "function"
    },
    {
      "inputs": [],
      "name": "getReward",
      "outputs": [],
      "stateMutability": "nonpayable",
      "type": "function"
    },
    {
      "inputs": [],
      "name": "lastTimeRewardApplicable",
      "outputs": [
        {
          "internalType": "uint256",
          "name": "",
          "type": "uint256"
        }
      ],
      "stateMutability": "view",
      "type": "function"
    },
    {
      "inputs": [],
      "name": "lastUpdateTime",
      "outputs": [
        {
          "internalType": "uint256",
          "name": "",
          "type": "uint256"
        }
      ],
      "stateMutability": "view",
      "type": "function"
    },
    {
      "inputs": [],
      "name": "owner",
      "outputs": [
        {
          "internalType": "address",
          "name": "",
          "type": "address"
        }
      ],
      "stateMutability": "view",
      "type": "function"
    },
    {
      "inputs": [],
      "name": "periodFinish",
      "outputs": [
        {
          "internalType": "uint256",
          "name": "",
          "type": "uint256"
        }
      ],
      "stateMutability": "view",
      "type": "function"
    },
    {
      "inputs": [
        {
          "internalType": "address",
          "name": "supplier",
          "type": "address"
        }
      ],
      "name": "removeRewardSupplier",
      "outputs": [],
      "stateMutability": "nonpayable",
      "type": "function"
    },
    {
      "inputs": [],
      "name": "renounceOwnership",
      "outputs": [],
      "stateMutability": "nonpayable",
      "type": "function"
    },
    {
      "inputs": [],
      "name": "rewardForDuration",
      "outputs": [
        {
          "internalType": "uint256",
          "name": "",
          "type": "uint256"
        }
      ],
      "stateMutability": "view",
      "type": "function"
    },
    {
      "inputs": [],
      "name": "rewardPerToken",
      "outputs": [
        {
          "internalType": "uint256",
          "name": "",
          "type": "uint256"
        }
      ],
      "stateMutability": "view",
      "type": "function"
    },
    {
      "inputs": [],
      "name": "rewardPerTokenStored",
      "outputs": [
        {
          "internalType": "uint256",
          "name": "",
          "type": "uint256"
        }
      ],
      "stateMutability": "view",
      "type": "function"
    },
    {
      "inputs": [],
      "name": "rewardRate",
      "outputs": [
        {
          "internalType": "uint256",
          "name": "",
          "type": "uint256"
        }
      ],
      "stateMutability": "view",
      "type": "function"
    },
    {
      "inputs": [],
      "name": "rewardToken",
      "outputs": [
        {
          "internalType": "contract IERC20",
          "name": "",
          "type": "address"
        }
      ],
      "stateMutability": "view",
      "type": "function"
    },
    {
      "inputs": [
        {
          "internalType": "address",
          "name": "",
          "type": "address"
        }
      ],
      "name": "rewards",
      "outputs": [
        {
          "internalType": "uint256",
          "name": "",
          "type": "uint256"
        }
      ],
      "stateMutability": "view",
      "type": "function"
    },
    {
      "inputs": [],
      "name": "rewardsDuration",
      "outputs": [
        {
          "internalType": "uint256",
          "name": "",
          "type": "uint256"
        }
      ],
      "stateMutability": "view",
      "type": "function"
    },
    {
      "inputs": [
        {
          "internalType": "uint256",
          "name": "amount",
          "type": "uint256"
        }
      ],
      "name": "stake",
      "outputs": [],
      "stateMutability": "nonpayable",
      "type": "function"
    },
    {
      "inputs": [
        {
          "internalType": "address",
          "name": "",
          "type": "address"
        }
      ],
      "name": "stakedBalances",
      "outputs": [
        {
          "internalType": "uint256",
          "name": "",
          "type": "uint256"
        }
      ],
      "stateMutability": "view",
      "type": "function"
    },
    {
      "inputs": [],
      "name": "stakingToken",
      "outputs": [
        {
          "internalType": "contract IERC20",
          "name": "",
          "type": "address"
        }
      ],
      "stateMutability": "view",
      "type": "function"
    },
    {
      "inputs": [
        {
          "internalType": "address",
          "name": "",
          "type": "address"
        }
      ],
      "name": "suppliers",
      "outputs": [
        {
          "internalType": "bool",
          "name": "",
          "type": "bool"
        }
      ],
      "stateMutability": "view",
      "type": "function"
    },
    {
      "inputs": [],
      "name": "totalStaked",
      "outputs": [
        {
          "internalType": "uint256",
          "name": "",
          "type": "uint256"
        }
      ],
      "stateMutability": "view",
      "type": "function"
    },
    {
      "inputs": [
        {
          "internalType": "address",
          "name": "newOwner",
          "type": "address"
        }
      ],
      "name": "transferOwnership",
      "outputs": [],
      "stateMutability": "nonpayable",
      "type": "function"
    },
    {
      "inputs": [
        {
          "internalType": "uint256",
          "name": "amount",
          "type": "uint256"
        }
      ],
      "name": "unstake",
      "outputs": [],
      "stateMutability": "nonpayable",
      "type": "function"
    },
    {
      "inputs": [
        {
          "internalType": "address",
          "name": "",
          "type": "address"
        }
      ],
      "name": "userRewardPerTokenPaid",
      "outputs": [
        {
          "internalType": "uint256",
          "name": "",
          "type": "uint256"
        }
      ],
      "stateMutability": "view",
      "type": "function"
    }
  ],
  "transactionHash": "0x032b7d8a3b126fddf890f30a9991a15df880cb7b83ec1b7c9e749975b5dff485",
  "args": [
    "0xC02aaA39b223FE8D0A0e5C4F27eAD9083C756Cc2",
    "0xC79FAEed130816B38E5996b79B1b3b6568cc599F",
    172800,
    "0x94627695F66Ab36Ae00c1995a30Bf5B30E139873"
  ],
  "solcInputHash": "e166554613407b5e5de9c2eccf5906c7",
  "bytecode": "0x608060405234801561001057600080fd5b506040516117fd3803806117fd8339818101604052608081101561003357600080fd5b50805160208201516040830151606090930151919290918060006100556100fa565b600080546001600160a01b0319166001600160a01b0383169081178255604051929350917f8be0079c531659141344cd1fd0a4f28419497f9722a3daafe3b4186f6b6457e0908290a3506001600160a01b039081166000908152600160208190526040909120805460ff191682179055600255600480549582166001600160a01b031996871617905560038054949091169390941692909217909255506005556100fe565b3390565b6116f08061010d6000396000f3fe608060405234801561001057600080fd5b50600436106101ad5760003560e01c8063817b1cd2116100ee578063cd3daf9d11610097578063df136d6511610071578063df136d65146103d5578063ebe2b12b146103dd578063f2fde38b146103e5578063f7c618c11461040b576101ad565b8063cd3daf9d1461038a578063d39f1c7a14610392578063da3a5f72146103b8576101ad565b8063a0f65ec3116100c8578063a0f65ec31461033f578063a694fc3a14610365578063c8f33c9114610382576101ad565b8063817b1cd2146103095780638b876347146103115780638da5cb5b14610337576101ad565b80633d18b9121161015b578063715018a611610135578063715018a6146102cd57806372f702f3146102d55780637b0a47ee146102f957806380faa57d14610301576101ad565b80633d18b912146102975780636946a2351461029f57806370a08231146102a7576101ad565b806316dc15fe1161018c57806316dc15fe146102365780632e17de7814610270578063386a95251461028f576101ad565b80628cc262146101b25780630700037d146101ea5780631460fa8714610210575b600080fd5b6101d8600480360360208110156101c857600080fd5b50356001600160a01b0316610413565b60408051918252519081900360200190f35b6101d86004803603602081101561020057600080fd5b50356001600160a01b0316610491565b6101d86004803603602081101561022657600080fd5b50356001600160a01b03166104a3565b61025c6004803603602081101561024c57600080fd5b50356001600160a01b03166104b5565b604080519115158252519081900360200190f35b61028d6004803603602081101561028657600080fd5b50356104ca565b005b6101d86104de565b61028d6104e4565b6101d86106b6565b6101d8600480360360208110156102bd57600080fd5b50356001600160a01b03166106d5565b61028d6106f0565b6102dd6107c6565b604080516001600160a01b039092168252519081900360200190f35b6101d86107d5565b6101d86107db565b6101d86107e9565b6101d86004803603602081101561032757600080fd5b50356001600160a01b03166107ef565b6102dd610801565b61028d6004803603602081101561035557600080fd5b50356001600160a01b0316610810565b61028d6004803603602081101561037b57600080fd5b50356108c9565b6101d8610a6a565b6101d8610a70565b61028d600480360360208110156103a857600080fd5b50356001600160a01b0316610abe565b61028d600480360360208110156103ce57600080fd5b5035610b71565b6101d8610d6a565b6101d8610d70565b61028d600480360360208110156103fb57600080fd5b50356001600160a01b0316610d76565b6102dd610ea2565b6001600160a01b0381166000908152600d6020908152604080832054600c90925282205461048b919061048590670de0b6b3a76400009061047f906104609061045a610a70565b90610eb1565b6001600160a01b0388166000908152600b602052604090205490610f0e565b90610f6e565b90610fd5565b92915050565b600d6020526000908152604090205481565b600b6020526000908152604090205481565b60016020526000908152604090205460ff1681565b6104d38161102f565b6104db6104e4565b50565b60055481565b60028054141561053b576040805162461bcd60e51b815260206004820152601f60248201527f5265656e7472616e637947756172643a207265656e7472616e742063616c6c00604482015290519081900360640190fd5b6002805533610548610a70565b6009556105536107db565b6008556001600160a01b0381161561059a5761056e81610413565b6001600160a01b0382166000908152600d6020908152604080832093909355600954600c909152919020555b336000908152600d602052604090205480156106ad57336000908152600d602090815260408083208390556004805482517f70a08231000000000000000000000000000000000000000000000000000000008152309281019290925291516001600160a01b03909216926370a0823192602480840193829003018186803b15801561062457600080fd5b505afa158015610638573d6000803e3d6000fd5b505050506040513d602081101561064e57600080fd5b505190508181101561065e578091505b600454610675906001600160a01b031633846111d2565b60408051838152905133917fe2403640ba68fed3a2f88b7557551d1993f84b99bb10ff833f0cf8db0c5e0486919081900360200190a2505b50506001600255565b60006106cf600554600754610f0e90919063ffffffff16565b90505b90565b6001600160a01b03166000908152600b602052604090205490565b6106f8611257565b6001600160a01b0316610709610801565b6001600160a01b031614610764576040805162461bcd60e51b815260206004820181905260248201527f4f776e61626c653a2063616c6c6572206973206e6f7420746865206f776e6572604482015290519081900360640190fd5b600080546040516001600160a01b03909116907f8be0079c531659141344cd1fd0a4f28419497f9722a3daafe3b4186f6b6457e0908390a3600080547fffffffffffffffffffffffff0000000000000000000000000000000000000000169055565b6003546001600160a01b031681565b60075481565b60006106cf4260065461125b565b600a5481565b600c6020526000908152604090205481565b6000546001600160a01b031690565b610818611257565b6001600160a01b0316610829610801565b6001600160a01b031614610884576040805162461bcd60e51b815260206004820181905260248201527f4f776e61626c653a2063616c6c6572206973206e6f7420746865206f776e6572604482015290519081900360640190fd5b6001600160a01b0316600090815260016020819052604090912080547fffffffffffffffffffffffffffffffffffffffffffffffffffffffffffffff00169091179055565b600280541415610920576040805162461bcd60e51b815260206004820152601f60248201527f5265656e7472616e637947756172643a207265656e7472616e742063616c6c00604482015290519081900360640190fd5b600280553361092d610a70565b6009556109386107db565b6008556001600160a01b0381161561097f5761095381610413565b6001600160a01b0382166000908152600d6020908152604080832093909355600954600c909152919020555b600082116109d4576040805162461bcd60e51b815260206004820152600e60248201527f43616e6e6f74207374616b652030000000000000000000000000000000000000604482015290519081900360640190fd5b600a546109e19083610fd5565b600a55336000908152600b60205260409020546109fe9083610fd5565b336000818152600b6020526040902091909155600354610a2b916001600160a01b03909116903085611271565b60408051838152905133917f9e71bc8eea02a63969f509818f2dafb9254532904319f9dbda79b67bd34a5f3d919081900360200190a250506001600255565b60085481565b6000600a5460001415610a8657506009546106d2565b6106cf610ab5600a5461047f670de0b6b3a7640000610aaf600754610aaf60085461045a6107db565b90610f0e565b60095490610fd5565b610ac6611257565b6001600160a01b0316610ad7610801565b6001600160a01b031614610b32576040805162461bcd60e51b815260206004820181905260248201527f4f776e61626c653a2063616c6c6572206973206e6f7420746865206f776e6572604482015290519081900360640190fd5b6001600160a01b0316600090815260016020526040902080547fffffffffffffffffffffffffffffffffffffffffffffffffffffffffffffff00169055565b60016000610b7d611257565b6001600160a01b0316815260208101919091526040016000205460ff161515600114610bf0576040805162461bcd60e51b815260206004820152601d60248201527f43616c6c6572206973206e6f742072657761726420737570706c696572000000604482015290519081900360640190fd5b6000610bfa610a70565b600955610c056107db565b6008556001600160a01b03811615610c4c57610c2081610413565b6001600160a01b0382166000908152600d6020908152604080832093909355600954600c909152919020555b7812725dd1d243aba0e75fe645cc4873f9e65afe688c928e1f218210610ca35760405162461bcd60e51b81526004018080602001828103825260398152602001806116376039913960400191505060405180910390fd5b600454610cbb906001600160a01b0316333085611271565b6006544210610cda57600554610cd2908390610f6e565b600755610d1d565b600654600090610cea9042610eb1565b90506000610d0360075483610f0e90919063ffffffff16565b600554909150610d179061047f8684610fd5565b60075550505b426008819055600554610d309190610fd5565b6006556040805183815290517fde88a922e0d3b88b24e9623efeb464919c6bf9f66857a65e2bfcf2ce87a9433d9181900360200190a15050565b60095481565b60065481565b610d7e611257565b6001600160a01b0316610d8f610801565b6001600160a01b031614610dea576040805162461bcd60e51b815260206004820181905260248201527f4f776e61626c653a2063616c6c6572206973206e6f7420746865206f776e6572604482015290519081900360640190fd5b6001600160a01b038116610e2f5760405162461bcd60e51b81526004018080602001828103825260268152602001806115eb6026913960400191505060405180910390fd5b600080546040516001600160a01b03808516939216917f8be0079c531659141344cd1fd0a4f28419497f9722a3daafe3b4186f6b6457e091a3600080547fffffffffffffffffffffffff0000000000000000000000000000000000000000166001600160a01b0392909216919091179055565b6004546001600160a01b031681565b600082821115610f08576040805162461bcd60e51b815260206004820152601e60248201527f536166654d6174683a207375627472616374696f6e206f766572666c6f770000604482015290519081900360640190fd5b50900390565b600082610f1d5750600061048b565b82820282848281610f2a57fe5b0414610f675760405162461bcd60e51b81526004018080602001828103825260218152602001806116706021913960400191505060405180910390fd5b9392505050565b6000808211610fc4576040805162461bcd60e51b815260206004820152601a60248201527f536166654d6174683a206469766973696f6e206279207a65726f000000000000604482015290519081900360640190fd5b818381610fcd57fe5b049392505050565b600082820183811015610f67576040805162461bcd60e51b815260206004820152601b60248201527f536166654d6174683a206164646974696f6e206f766572666c6f770000000000604482015290519081900360640190fd5b600280541415611086576040805162461bcd60e51b815260206004820152601f60248201527f5265656e7472616e637947756172643a207265656e7472616e742063616c6c00604482015290519081900360640190fd5b6002805533611093610a70565b60095561109e6107db565b6008556001600160a01b038116156110e5576110b981610413565b6001600160a01b0382166000908152600d6020908152604080832093909355600954600c909152919020555b6000821161113a576040805162461bcd60e51b815260206004820152601160248201527f43616e6e6f742077697468647261772030000000000000000000000000000000604482015290519081900360640190fd5b600a5482906111499082610eb1565b600a55336000908152600b60205260409020546111669084610eb1565b336000818152600b6020526040902091909155600354611192916001600160a01b0390911690836111d2565b60408051828152905133917f7084f5476618d8e60b11ef0d7d3f06914655adb8793e28ff7f018d4c76d505d5919081900360200190a25050600160025550565b604080516001600160a01b038416602482015260448082018490528251808303909101815260649091019091526020810180517bffffffffffffffffffffffffffffffffffffffffffffffffffffffff167fa9059cbb000000000000000000000000000000000000000000000000000000001790526112529084906112ff565b505050565b3390565b600081831061126a5781610f67565b5090919050565b604080516001600160a01b0380861660248301528416604482015260648082018490528251808303909101815260849091019091526020810180517bffffffffffffffffffffffffffffffffffffffffffffffffffffffff167f23b872dd000000000000000000000000000000000000000000000000000000001790526112f99085906112ff565b50505050565b6000611354826040518060400160405280602081526020017f5361666545524332303a206c6f772d6c6576656c2063616c6c206661696c6564815250856001600160a01b03166113b09092919063ffffffff16565b8051909150156112525780806020019051602081101561137357600080fd5b50516112525760405162461bcd60e51b815260040180806020018281038252602a815260200180611691602a913960400191505060405180910390fd5b60606113bf84846000856113c7565b949350505050565b6060824710156114085760405162461bcd60e51b81526004018080602001828103825260268152602001806116116026913960400191505060405180910390fd5b61141185611540565b611462576040805162461bcd60e51b815260206004820152601d60248201527f416464726573733a2063616c6c20746f206e6f6e2d636f6e7472616374000000604482015290519081900360640190fd5b600080866001600160a01b031685876040518082805190602001908083835b602083106114be57805182527fffffffffffffffffffffffffffffffffffffffffffffffffffffffffffffffe09092019160209182019101611481565b6001836020036101000a03801982511681845116808217855250505050505090500191505060006040518083038185875af1925050503d8060008114611520576040519150601f19603f3d011682016040523d82523d6000602084013e611525565b606091505b5091509150611535828286611546565b979650505050505050565b3b151590565b60608315611555575081610f67565b8251156115655782518084602001fd5b8160405162461bcd60e51b81526004018080602001828103825283818151815260200191508051906020019080838360005b838110156115af578181015183820152602001611597565b50505050905090810190601f1680156115dc5780820380516001836020036101000a031916815260200191505b509250505060405180910390fdfe4f776e61626c653a206e6577206f776e657220697320746865207a65726f2061646472657373416464726573733a20696e73756666696369656e742062616c616e636520666f722063616c6c746865206e6f746966696564207265776172642063616e6e6f7420696e766f6b65206d756c7469706c69636174696f6e206f766572666c6f77536166654d6174683a206d756c7469706c69636174696f6e206f766572666c6f775361666545524332303a204552433230206f7065726174696f6e20646964206e6f742073756363656564a26469706673582212202896e4e3c743ce25ba4c9899f59566f7f33783a96c25d75d89a43f786f2c159664736f6c63430007060033",
  "devdoc": {
    "details": "The rewards are transferred to the pool by calling `fundPool`.      Only the reward supplier can notify.",
    "kind": "dev",
    "methods": {
      "earned(address)": {
        "returns": {
          "_0": "amount earned by specified account"
        }
      },
      "fundPool(uint256)": {
        "details": "Should be called by external mechanism"
      },
      "owner()": {
        "details": "Returns the address of the current owner."
      },
      "renounceOwnership()": {
        "details": "Leaves the contract without owner. It will not be possible to call `onlyOwner` functions anymore. Can only be called by the current owner. NOTE: Renouncing ownership will leave the contract without an owner, thereby removing any functionality that is only available to the owner."
      },
      "transferOwnership(address)": {
        "details": "Transfers ownership of the contract to a new account (`newOwner`). Can only be called by the current owner."
      }
    },
    "title": "A reward pool that does not mint",
    "version": 1
  },
  "userdoc": {
    "kind": "user",
    "methods": {
      "balanceOf(address)": {
        "notice": "Staked balance for account"
      },
      "earned(address)": {
        "notice": "Calculate the earned rewards for an account"
      },
      "fundPool(uint256)": {
        "notice": "Transfers reward amount to pool and updates reward rate"
      },
      "getReward()": {
        "notice": "Claims reward for the sender account"
      },
      "lastTimeRewardApplicable()": {
        "notice": "Last time rewards were applicable"
      },
      "rewardForDuration()": {
        "notice": "Total rewards to distribute for the duration"
      },
      "rewardPerToken()": {
        "notice": "Reward per token staked"
      },
      "stake(uint256)": {
        "notice": "Stake specified amount"
      },
      "unstake(uint256)": {
        "notice": "Withdraw specified amount and collect rewards"
      }
    },
    "version": 1
  },
  "storageLayout": {
    "storage": [
      {
        "astId": 7,
        "contract": "contracts/RewardPool.sol:RewardPool",
        "label": "_owner",
        "offset": 0,
        "slot": "0",
        "type": "t_address"
      },
      {
        "astId": 5135,
        "contract": "contracts/RewardPool.sol:RewardPool",
        "label": "suppliers",
        "offset": 0,
        "slot": "1",
        "type": "t_mapping(t_address,t_bool)"
      },
      {
        "astId": 2153,
        "contract": "contracts/RewardPool.sol:RewardPool",
        "label": "_status",
        "offset": 0,
        "slot": "2",
        "type": "t_uint256"
      },
      {
        "astId": 6769,
        "contract": "contracts/RewardPool.sol:RewardPool",
        "label": "stakingToken",
        "offset": 0,
        "slot": "3",
        "type": "t_contract(IERC20)1118"
      },
      {
        "astId": 6771,
        "contract": "contracts/RewardPool.sol:RewardPool",
        "label": "rewardToken",
        "offset": 0,
        "slot": "4",
        "type": "t_contract(IERC20)1118"
      },
      {
        "astId": 6773,
        "contract": "contracts/RewardPool.sol:RewardPool",
        "label": "rewardsDuration",
        "offset": 0,
        "slot": "5",
        "type": "t_uint256"
      },
      {
        "astId": 6775,
        "contract": "contracts/RewardPool.sol:RewardPool",
        "label": "periodFinish",
        "offset": 0,
        "slot": "6",
        "type": "t_uint256"
      },
      {
        "astId": 6777,
        "contract": "contracts/RewardPool.sol:RewardPool",
        "label": "rewardRate",
        "offset": 0,
        "slot": "7",
        "type": "t_uint256"
      },
      {
        "astId": 6779,
        "contract": "contracts/RewardPool.sol:RewardPool",
        "label": "lastUpdateTime",
        "offset": 0,
        "slot": "8",
        "type": "t_uint256"
      },
      {
        "astId": 6781,
        "contract": "contracts/RewardPool.sol:RewardPool",
        "label": "rewardPerTokenStored",
        "offset": 0,
        "slot": "9",
        "type": "t_uint256"
      },
      {
        "astId": 6783,
        "contract": "contracts/RewardPool.sol:RewardPool",
        "label": "totalStaked",
        "offset": 0,
        "slot": "10",
        "type": "t_uint256"
      },
      {
        "astId": 6787,
        "contract": "contracts/RewardPool.sol:RewardPool",
        "label": "stakedBalances",
        "offset": 0,
        "slot": "11",
        "type": "t_mapping(t_address,t_uint256)"
      },
      {
        "astId": 6791,
        "contract": "contracts/RewardPool.sol:RewardPool",
        "label": "userRewardPerTokenPaid",
        "offset": 0,
        "slot": "12",
        "type": "t_mapping(t_address,t_uint256)"
      },
      {
        "astId": 6795,
        "contract": "contracts/RewardPool.sol:RewardPool",
        "label": "rewards",
        "offset": 0,
        "slot": "13",
        "type": "t_mapping(t_address,t_uint256)"
      }
    ],
    "types": {
      "t_address": {
        "encoding": "inplace",
        "label": "address",
        "numberOfBytes": "20"
      },
      "t_bool": {
        "encoding": "inplace",
        "label": "bool",
        "numberOfBytes": "1"
      },
      "t_contract(IERC20)1118": {
        "encoding": "inplace",
        "label": "contract IERC20",
        "numberOfBytes": "20"
      },
      "t_mapping(t_address,t_bool)": {
        "encoding": "mapping",
        "key": "t_address",
        "label": "mapping(address => bool)",
        "numberOfBytes": "32",
        "value": "t_bool"
      },
      "t_mapping(t_address,t_uint256)": {
        "encoding": "mapping",
        "key": "t_address",
        "label": "mapping(address => uint256)",
        "numberOfBytes": "32",
        "value": "t_uint256"
      },
      "t_uint256": {
        "encoding": "inplace",
        "label": "uint256",
        "numberOfBytes": "32"
      }
    }
  }
}