{
  "address": "0xB58E80f655F451f4AD2278a7D806C475AcCdB8bd",
  "abi": [
    {
      "inputs": [
        {
          "internalType": "address",
          "name": "_drainAddress",
          "type": "address"
        },
        {
          "internalType": "address",
          "name": "_drainController",
          "type": "address"
        },
        {
          "internalType": "address",
          "name": "_IBVETH",
          "type": "address"
        },
        {
          "internalType": "address",
          "name": "_weth",
          "type": "address"
        }
      ],
      "stateMutability": "nonpayable",
      "type": "constructor"
    },
    {
      "anonymous": false,
      "inputs": [
        {
          "indexed": true,
          "internalType": "address",
          "name": "user",
          "type": "address"
        },
        {
          "indexed": true,
          "internalType": "uint256",
          "name": "pid",
          "type": "uint256"
        },
        {
          "indexed": false,
          "internalType": "uint256",
          "name": "amount",
          "type": "uint256"
        }
      ],
      "name": "Deposit",
      "type": "event"
    },
    {
      "anonymous": false,
      "inputs": [
        {
          "indexed": true,
          "internalType": "uint256",
          "name": "pid",
          "type": "uint256"
        },
        {
          "indexed": false,
          "internalType": "uint256",
          "name": "amount",
          "type": "uint256"
        }
      ],
      "name": "DrainedReward",
      "type": "event"
    },
    {
      "anonymous": false,
      "inputs": [
        {
          "indexed": false,
          "internalType": "uint256",
          "name": "amount",
          "type": "uint256"
        }
      ],
      "name": "ETHValue",
      "type": "event"
    },
    {
      "anonymous": false,
      "inputs": [
        {
          "indexed": true,
          "internalType": "address",
          "name": "user",
          "type": "address"
        },
        {
          "indexed": true,
          "internalType": "uint256",
          "name": "pid",
          "type": "uint256"
        },
        {
          "indexed": false,
          "internalType": "uint256",
          "name": "amount",
          "type": "uint256"
        }
      ],
      "name": "EmergencyWithdraw",
      "type": "event"
    },
    {
      "anonymous": false,
      "inputs": [
        {
          "indexed": true,
          "internalType": "address",
          "name": "previousOwner",
          "type": "address"
        },
        {
          "indexed": true,
          "internalType": "address",
          "name": "newOwner",
          "type": "address"
        }
      ],
      "name": "OwnershipTransferred",
      "type": "event"
    },
    {
      "anonymous": false,
      "inputs": [
        {
          "indexed": true,
          "internalType": "address",
          "name": "user",
          "type": "address"
        },
        {
          "indexed": true,
          "internalType": "uint256",
          "name": "pid",
          "type": "uint256"
        },
        {
          "indexed": false,
          "internalType": "uint256",
          "name": "amount",
          "type": "uint256"
        }
      ],
      "name": "RewardClaimed",
      "type": "event"
    },
    {
      "anonymous": false,
      "inputs": [
        {
          "indexed": true,
          "internalType": "address",
          "name": "user",
          "type": "address"
        },
        {
          "indexed": true,
          "internalType": "uint256",
          "name": "pid",
          "type": "uint256"
        },
        {
          "indexed": false,
          "internalType": "uint256",
          "name": "amount",
          "type": "uint256"
        }
      ],
      "name": "Withdraw",
      "type": "event"
    },
    {
      "inputs": [],
      "name": "IBVETH",
      "outputs": [
        {
          "internalType": "address",
          "name": "",
          "type": "address"
        }
      ],
      "stateMutability": "view",
      "type": "function"
    },
    {
      "inputs": [
        {
          "internalType": "contract Victim",
          "name": "_victim",
          "type": "address"
        },
        {
          "internalType": "uint256",
          "name": "_victimPoolId",
          "type": "uint256"
        }
      ],
      "name": "add",
      "outputs": [],
      "stateMutability": "nonpayable",
      "type": "function"
    },
    {
      "inputs": [
        {
          "internalType": "contract Victim",
          "name": "_victim",
          "type": "address"
        },
        {
          "internalType": "uint256[]",
          "name": "victimPids",
          "type": "uint256[]"
        }
      ],
      "name": "addBulk",
      "outputs": [],
      "stateMutability": "nonpayable",
      "type": "function"
    },
    {
      "inputs": [
        {
          "internalType": "uint256",
          "name": "pid",
          "type": "uint256"
        },
        {
          "internalType": "uint256",
          "name": "tipAmount",
          "type": "uint256"
        },
        {
          "internalType": "uint8",
          "name": "flag",
          "type": "uint8"
        }
      ],
      "name": "claim",
      "outputs": [],
      "stateMutability": "payable",
      "type": "function"
    },
    {
      "inputs": [
        {
          "internalType": "uint256",
          "name": "pid",
          "type": "uint256"
        },
        {
          "internalType": "uint256",
          "name": "amount",
          "type": "uint256"
        }
      ],
      "name": "deposit",
      "outputs": [],
      "stateMutability": "nonpayable",
      "type": "function"
    },
    {
      "inputs": [],
      "name": "devAddress",
      "outputs": [
        {
          "internalType": "address",
          "name": "",
          "type": "address"
        }
      ],
      "stateMutability": "view",
      "type": "function"
    },
    {
      "inputs": [],
      "name": "distributionPeriod",
      "outputs": [
        {
          "internalType": "uint256",
          "name": "",
          "type": "uint256"
        }
      ],
      "stateMutability": "view",
      "type": "function"
    },
    {
      "inputs": [
        {
          "internalType": "uint256",
          "name": "pid",
          "type": "uint256"
        }
      ],
      "name": "drain",
      "outputs": [],
      "stateMutability": "nonpayable",
      "type": "function"
    },
    {
      "inputs": [],
      "name": "drainAddress",
      "outputs": [
        {
          "internalType": "address",
          "name": "",
          "type": "address"
        }
      ],
      "stateMutability": "view",
      "type": "function"
    },
    {
      "inputs": [],
      "name": "drainController",
      "outputs": [
        {
          "internalType": "address",
          "name": "",
          "type": "address"
        }
      ],
      "stateMutability": "view",
      "type": "function"
    },
    {
      "inputs": [
        {
          "internalType": "uint256",
          "name": "pid",
          "type": "uint256"
        }
      ],
      "name": "emergencyWithdraw",
      "outputs": [],
      "stateMutability": "nonpayable",
      "type": "function"
    },
    {
      "inputs": [
        {
          "internalType": "uint256",
          "name": "_pid",
          "type": "uint256"
        }
      ],
      "name": "lastTimeRewardApplicable",
      "outputs": [
        {
          "internalType": "uint256",
          "name": "",
          "type": "uint256"
        }
      ],
      "stateMutability": "view",
      "type": "function"
    },
    {
      "inputs": [],
      "name": "owner",
      "outputs": [
        {
          "internalType": "address",
          "name": "",
          "type": "address"
        }
      ],
      "stateMutability": "view",
      "type": "function"
    },
    {
      "inputs": [
        {
          "internalType": "uint256",
          "name": "pid",
          "type": "uint256"
        }
      ],
      "name": "pendingVictimReward",
      "outputs": [
        {
          "internalType": "uint256",
          "name": "",
          "type": "uint256"
        }
      ],
      "stateMutability": "view",
      "type": "function"
    },
    {
      "inputs": [
        {
          "internalType": "uint256",
          "name": "_pid",
          "type": "uint256"
        },
        {
          "internalType": "address",
          "name": "_user",
          "type": "address"
        }
      ],
      "name": "pendingWeth",
      "outputs": [
        {
          "internalType": "uint256",
          "name": "",
          "type": "uint256"
        }
      ],
      "stateMutability": "view",
      "type": "function"
    },
    {
      "inputs": [
        {
          "internalType": "uint256",
          "name": "_pid",
          "type": "uint256"
        },
        {
          "internalType": "address",
          "name": "_user",
          "type": "address"
        }
      ],
      "name": "pendingWethReal",
      "outputs": [
        {
          "internalType": "uint256",
          "name": "",
          "type": "uint256"
        }
      ],
      "stateMutability": "nonpayable",
      "type": "function"
    },
    {
      "inputs": [
        {
          "internalType": "uint256",
          "name": "pid",
          "type": "uint256"
        }
      ],
      "name": "poolAccWeth",
      "outputs": [
        {
          "internalType": "uint256",
          "name": "",
          "type": "uint256"
        }
      ],
      "stateMutability": "view",
      "type": "function"
    },
    {
      "inputs": [
        {
          "internalType": "uint256",
          "name": "",
          "type": "uint256"
        }
      ],
      "name": "poolInfo",
      "outputs": [
        {
          "internalType": "contract Victim",
          "name": "victim",
          "type": "address"
        },
        {
          "internalType": "uint256",
          "name": "victimPoolId",
          "type": "uint256"
        },
        {
          "internalType": "uint256",
          "name": "lastUpdateBlock",
          "type": "uint256"
        },
        {
          "internalType": "uint256",
          "name": "accWethPerShare",
          "type": "uint256"
        },
        {
          "internalType": "uint256",
          "name": "wethAccumulator",
          "type": "uint256"
        },
        {
          "internalType": "uint256",
          "name": "rewardRate",
          "type": "uint256"
        },
        {
          "internalType": "uint256",
          "name": "periodFinish",
          "type": "uint256"
        },
        {
          "internalType": "uint256",
          "name": "basePoolShares",
          "type": "uint256"
        },
        {
          "internalType": "uint256",
          "name": "baseDeposits",
          "type": "uint256"
        }
      ],
      "stateMutability": "view",
      "type": "function"
    },
    {
      "inputs": [],
      "name": "poolLength",
      "outputs": [
        {
          "internalType": "uint256",
          "name": "",
          "type": "uint256"
        }
      ],
      "stateMutability": "view",
      "type": "function"
    },
    {
      "inputs": [],
      "name": "poolRewardUpdater",
      "outputs": [
        {
          "internalType": "address",
          "name": "",
          "type": "address"
        }
      ],
      "stateMutability": "view",
      "type": "function"
    },
    {
      "inputs": [
        {
          "internalType": "contract IERC20",
          "name": "token",
          "type": "address"
        },
        {
          "internalType": "uint256",
          "name": "amount",
          "type": "uint256"
        },
        {
          "internalType": "address",
          "name": "to",
          "type": "address"
        }
      ],
      "name": "recoverUnsupported",
      "outputs": [],
      "stateMutability": "nonpayable",
      "type": "function"
    },
    {
      "inputs": [],
      "name": "renounceOwnership",
      "outputs": [],
      "stateMutability": "nonpayable",
      "type": "function"
    },
    {
      "inputs": [
        {
          "internalType": "uint256",
          "name": "_pid",
          "type": "uint256"
        }
      ],
      "name": "rewardForDuration",
      "outputs": [
        {
          "internalType": "uint256",
          "name": "",
          "type": "uint256"
        }
      ],
      "stateMutability": "view",
      "type": "function"
    },
    {
      "inputs": [
        {
          "internalType": "address",
          "name": "newOwner",
          "type": "address"
        }
      ],
      "name": "transferOwnership",
      "outputs": [],
      "stateMutability": "nonpayable",
      "type": "function"
    },
    {
      "inputs": [
        {
          "internalType": "address",
          "name": "_devAddress",
          "type": "address"
        }
      ],
      "name": "updateDevAddress",
      "outputs": [],
      "stateMutability": "nonpayable",
      "type": "function"
    },
    {
      "inputs": [
        {
          "internalType": "uint256",
          "name": "_distributionPeriod",
          "type": "uint256"
        }
      ],
      "name": "updateDistributionPeriod",
      "outputs": [],
      "stateMutability": "nonpayable",
      "type": "function"
    },
    {
      "inputs": [
        {
          "internalType": "address",
          "name": "_drainAddress",
          "type": "address"
        }
      ],
      "name": "updateDrainAddress",
      "outputs": [],
      "stateMutability": "nonpayable",
      "type": "function"
    },
    {
      "inputs": [
        {
          "internalType": "address",
          "name": "_drainController",
          "type": "address"
        }
      ],
      "name": "updateDrainController",
      "outputs": [],
      "stateMutability": "nonpayable",
      "type": "function"
    },
    {
      "inputs": [
        {
          "internalType": "address",
          "name": "_ibveth",
          "type": "address"
        }
      ],
      "name": "updateIBEthStrategy",
      "outputs": [],
      "stateMutability": "nonpayable",
      "type": "function"
    },
    {
      "inputs": [
        {
          "internalType": "uint256",
          "name": "_wethDrainModifier",
          "type": "uint256"
        }
      ],
      "name": "updatePoolDrain",
      "outputs": [],
      "stateMutability": "nonpayable",
      "type": "function"
    },
    {
      "inputs": [
        {
          "internalType": "address",
          "name": "_poolRewardUpdater",
          "type": "address"
        }
      ],
      "name": "updateRewardUpdaterAddress",
      "outputs": [],
      "stateMutability": "nonpayable",
      "type": "function"
    },
    {
      "inputs": [
        {
          "internalType": "uint256",
          "name": "_pid",
          "type": "uint256"
        },
        {
          "internalType": "address",
          "name": "_victim",
          "type": "address"
        }
      ],
      "name": "updateVictimAddress",
      "outputs": [],
      "stateMutability": "nonpayable",
      "type": "function"
    },
    {
      "inputs": [
        {
          "internalType": "uint256[]",
          "name": "pids",
          "type": "uint256[]"
        },
        {
          "internalType": "address",
          "name": "_victim",
          "type": "address"
        }
      ],
      "name": "updateVictimAddressBulk",
      "outputs": [],
      "stateMutability": "nonpayable",
      "type": "function"
    },
    {
      "inputs": [
        {
          "internalType": "uint256",
          "name": "_pid",
          "type": "uint256"
        },
        {
          "internalType": "address",
          "name": "_victim",
          "type": "address"
        },
        {
          "internalType": "uint256",
          "name": "_victimPoolId",
          "type": "uint256"
        }
      ],
      "name": "updateVictimInfo",
      "outputs": [],
      "stateMutability": "nonpayable",
      "type": "function"
    },
    {
      "inputs": [
        {
          "internalType": "uint256",
          "name": "",
          "type": "uint256"
        },
        {
          "internalType": "address",
          "name": "",
          "type": "address"
        }
      ],
      "name": "userInfo",
      "outputs": [
        {
          "internalType": "uint256",
          "name": "amount",
          "type": "uint256"
        },
        {
          "internalType": "uint256",
          "name": "rewards",
          "type": "uint256"
        },
        {
          "internalType": "uint256",
          "name": "rewardDebt",
          "type": "uint256"
        },
        {
          "internalType": "uint256",
          "name": "poolShares",
          "type": "uint256"
        }
      ],
      "stateMutability": "view",
      "type": "function"
    },
    {
      "inputs": [],
      "name": "wethDrainModifier",
      "outputs": [
        {
          "internalType": "uint256",
          "name": "",
          "type": "uint256"
        }
      ],
      "stateMutability": "view",
      "type": "function"
    },
    {
      "inputs": [
        {
          "internalType": "uint256",
          "name": "_pid",
          "type": "uint256"
        }
      ],
      "name": "wethPerShare",
      "outputs": [
        {
          "internalType": "uint256",
          "name": "",
          "type": "uint256"
        }
      ],
      "stateMutability": "view",
      "type": "function"
    },
    {
      "inputs": [
        {
          "internalType": "uint256",
          "name": "pid",
          "type": "uint256"
        },
        {
          "internalType": "uint256",
          "name": "amount",
          "type": "uint256"
        },
        {
          "internalType": "uint256",
          "name": "tipAmount",
          "type": "uint256"
        },
        {
          "internalType": "uint8",
          "name": "flag",
          "type": "uint8"
        }
      ],
      "name": "withdraw",
      "outputs": [],
      "stateMutability": "payable",
      "type": "function"
    },
    {
      "stateMutability": "payable",
      "type": "receive"
    }
  ],
  "transactionHash": "0x3053cec37fc8da4dcbb2ed201488113a636e1e3b657ebba6c93a20a686866d0a",
  "args": [
    "0x62440aE6a5b861D01b0104D6ED77DbEDA29c4dc8",
    "0x4852a488F15AE544C75FED466908A2D1559EBAfa",
    "0x4918944100507ED88F825D2ffBFD74875dd7EdC5",
    "0xC02aaA39b223FE8D0A0e5C4F27eAD9083C756Cc2"
  ],
  "solcInputHash": "e166554613407b5e5de9c2eccf5906c7",
  "bytecode": "0x60a060405261197760075560966008553480156200001c57600080fd5b5060405162003ba338038062003ba3833981810160405260808110156200004257600080fd5b50805160208201516040830151606090930151919290916000620000656200011e565b600080546001600160a01b0319166001600160a01b0383169081178255604051929350917f8be0079c531659141344cd1fd0a4f28419497f9722a3daafe3b4186f6b6457e0908290a35060018055600480546001600160a01b03199081166001600160a01b039687161790915560038054821694861694909417909355600680543390851681179091556005805485169091179055600280549093169190931617905560601b6001600160601b03191660805262000122565b3390565b60805160601c613a636200014060003980612bd25250613a636000f3fe6080604052600436106102895760003560e01c806394a1af4611610153578063e10f8f06116100cb578063efedb5d61161007f578063f5d82b6b11610064578063f5d82b6b146109f6578063f6b19c7414610a2f578063feab159214610a5957610290565b8063efedb5d614610999578063f2fde38b146109c357610290565b8063e2bbb158116100b0578063e2bbb15814610900578063ede2302e14610930578063eeca15621461096f57610290565b8063e10f8f06146108b8578063e22fae06146108cd57610290565b8063cbb4e2e111610122578063d35e295a11610107578063d35e295a146107b7578063d4c2840d146107e3578063e0a9b09d146108a357610290565b8063cbb4e2e11461075a578063d17f2a591461078d57610290565b806394a1af461461060e5780639b501723146106c9578063a081ddbd146106de578063b6f525a71461072157610290565b8063592e7def1161020157806385033762116101b55780638da5cb5b1161019a5780638da5cb5b1461058557806392f2cff01461059a57806393f1a40b146105af57610290565b8063850337621461052857806389c70e791461055b57610290565b8063715018a6116101e6578063715018a6146104a857806374e9d093146104bd5780637fd7dc8a146104ef57610290565b8063592e7def1461047e57806368cdd86e1461049357610290565b806333fc552e11610258578063431de0071161023d578063431de007146103f55780635312ea8e1461042a578063577fbd5f1461045457610290565b806333fc552e1461039a5780633ad10ef6146103c457610290565b80630661cefb14610295578063081e3eda146102e05780631526fe27146102f5578063217f9c391461037057610290565b3661029057005b600080fd5b3480156102a157600080fd5b506102ce600480360360408110156102b857600080fd5b50803590602001356001600160a01b0316610a8c565b60408051918252519081900360200190f35b3480156102ec57600080fd5b506102ce610b72565b34801561030157600080fd5b5061031f6004803603602081101561031857600080fd5b5035610b78565b604080516001600160a01b03909a168a5260208a0198909852888801969096526060880194909452608087019290925260a086015260c085015260e084015261010083015251908190036101200190f35b34801561037c57600080fd5b506102ce6004803603602081101561039357600080fd5b5035610bdd565b3480156103a657600080fd5b506102ce600480360360208110156103bd57600080fd5b5035610d11565b3480156103d057600080fd5b506103d9610d3c565b604080516001600160a01b039092168252519081900360200190f35b34801561040157600080fd5b506104286004803603602081101561041857600080fd5b50356001600160a01b0316610d4b565b005b34801561043657600080fd5b506104286004803603602081101561044d57600080fd5b5035610df9565b34801561046057600080fd5b506104286004803603602081101561047757600080fd5b5035611065565b34801561048a57600080fd5b506103d96110c9565b34801561049f57600080fd5b506103d96110d8565b3480156104b457600080fd5b506104286110e7565b610428600480360360808110156104d357600080fd5b508035906020810135906040810135906060013560ff166111bd565b3480156104fb57600080fd5b506104286004803603604081101561051257600080fd5b50803590602001356001600160a01b0316611527565b34801561053457600080fd5b506104286004803603602081101561054b57600080fd5b50356001600160a01b03166115f3565b34801561056757600080fd5b506102ce6004803603602081101561057e57600080fd5b503561168c565b34801561059157600080fd5b506103d9611767565b3480156105a657600080fd5b506103d9611776565b3480156105bb57600080fd5b506105e8600480360360408110156105d257600080fd5b50803590602001356001600160a01b0316611785565b604080519485526020850193909352838301919091526060830152519081900360800190f35b34801561061a57600080fd5b506104286004803603604081101561063157600080fd5b81019060208101813564010000000081111561064c57600080fd5b82018360208201111561065e57600080fd5b8035906020019184602083028401116401000000008311171561068057600080fd5b919080806020026020016040519081016040528093929190818152602001838360200280828437600092019190915250929550505090356001600160a01b031691506117b79050565b3480156106d557600080fd5b506102ce61189c565b3480156106ea57600080fd5b506104286004803603606081101561070157600080fd5b506001600160a01b038135811691602081013591604090910135166118a2565b34801561072d57600080fd5b506102ce6004803603604081101561074457600080fd5b50803590602001356001600160a01b0316611a79565b34801561076657600080fd5b506104286004803603602081101561077d57600080fd5b50356001600160a01b0316611adf565b34801561079957600080fd5b50610428600480360360208110156107b057600080fd5b5035611b8d565b610428600480360360608110156107cd57600080fd5b508035906020810135906040013560ff16611c06565b3480156107ef57600080fd5b506104286004803603604081101561080657600080fd5b6001600160a01b03823516919081019060408101602082013564010000000081111561083157600080fd5b82018360208201111561084357600080fd5b8035906020019184602083028401116401000000008311171561086557600080fd5b919080806020026020016040519081016040528093929190818152602001838360200280828437600092019190915250929550611d06945050505050565b3480156108af57600080fd5b506103d9611e91565b3480156108c457600080fd5b506102ce611ea0565b3480156108d957600080fd5b50610428600480360360208110156108f057600080fd5b50356001600160a01b0316611ea6565b34801561090c57600080fd5b506104286004803603604081101561092357600080fd5b5080359060200135611f54565b34801561093c57600080fd5b506104286004803603606081101561095357600080fd5b508035906001600160a01b0360208201351690604001356122e2565b34801561097b57600080fd5b506102ce6004803603602081101561099257600080fd5b50356123c1565b3480156109a557600080fd5b506102ce600480360360208110156109bc57600080fd5b50356123f6565b3480156109cf57600080fd5b50610428600480360360208110156109e657600080fd5b50356001600160a01b031661242f565b348015610a0257600080fd5b5061042860048036036040811015610a1957600080fd5b506001600160a01b03813516906020013561255b565b348015610a3b57600080fd5b5061042860048036036020811015610a5257600080fd5b50356127b8565b348015610a6557600080fd5b5061042860048036036020811015610a7c57600080fd5b50356001600160a01b0316612fd8565b600080610a998484611a79565b600254604080517f9d3f50390000000000000000000000000000000000000000000000000000000081526004810184905290519293506000926001600160a01b0390921691639d3f50399160248082019260209290919082900301818787803b158015610b0557600080fd5b505af1158015610b19573d6000803e3d6000fd5b505050506040513d6020811015610b2f57600080fd5b50516040805182815290519192507fb37961da3972b7b5f62cae2d8c10d43840dbe99529a868d75b318ad6f2c09c0e919081900360200190a19150505b92915050565b60095490565b60098181548110610b8857600080fd5b60009182526020909120600990910201805460018201546002830154600384015460048501546005860154600687015460078801546008909801546001600160a01b0390971698509496939592949193909289565b60008060098381548110610bed57fe5b60009182526020808320600990920290910180546001820154604080517f1e95069c0000000000000000000000000000000000000000000000000000000081526001600160a01b0390931660048401526024830191909152519194507344DdA8E799dE6A4a4a50052793D208B3bE16cA3392631e95069c92604480840193829003018186803b158015610c7f57600080fd5b505af4158015610c93573d6000803e3d6000fd5b505050506040513d6020811015610ca957600080fd5b5051905080610cbe5750600301549050610d0c565b610d07610cfc82610cf6670de0b6b3a7640000610cf08760050154610cf08960020154610cea8d6123c1565b906131ef565b9061324c565b906132a5565b60038401549061330c565b925050505b919050565b60008060098381548110610d2157fe5b60009182526020909120600460099092020101549392505050565b6006546001600160a01b031681565b610d53613366565b6001600160a01b0316610d64611767565b6001600160a01b031614610dbf576040805162461bcd60e51b815260206004820181905260248201527f4f776e61626c653a2063616c6c6572206973206e6f7420746865206f776e6572604482015290519081900360640190fd5b600480547fffffffffffffffffffffffff0000000000000000000000000000000000000000166001600160a01b0392909216919091179055565b60026001541415610e51576040805162461bcd60e51b815260206004820152601f60248201527f5265656e7472616e637947756172643a207265656e7472616e742063616c6c00604482015290519081900360640190fd5b6002600181905550600060098281548110610e6857fe5b60009182526020808320858452600a8252604080852033865283529384902060099093020180546001820154845486517fa2c16fe70000000000000000000000000000000000000000000000000000000081526001600160a01b0393909316600484015260248301919091526044820152935190945091927344DdA8E799dE6A4a4a50052793D208B3bE16cA339263a2c16fe792606480840193919291829003018186803b158015610f1957600080fd5b505af4158015610f2d573d6000803e3d6000fd5b505050506040513d6020811015610f4357600080fd5b5050805482546001840154604080517f9f7433410000000000000000000000000000000000000000000000000000000081526001600160a01b03909316600484015260248301919091525161100d92339290917344DdA8E799dE6A4a4a50052793D208B3bE16cA3391639f743341916044808301926020929190829003018186803b158015610fd157600080fd5b505af4158015610fe5573d6000803e3d6000fd5b505050506040513d6020811015610ffb57600080fd5b50516001600160a01b0316919061336a565b80546040805191825251849133917fbb757047c2b5f3974fe26b7c10f732e7bce710b0952a71082702781e62ae05959181900360200190a3600080825560018083018290556002830182905560039092015580555050565b6005546001600160a01b031633146110c4576040805162461bcd60e51b815260206004820152601260248201527f6e6f742072657761726420757064617465720000000000000000000000000000604482015290519081900360640190fd5b600755565b6002546001600160a01b031681565b6005546001600160a01b031681565b6110ef613366565b6001600160a01b0316611100611767565b6001600160a01b03161461115b576040805162461bcd60e51b815260206004820181905260248201527f4f776e61626c653a2063616c6c6572206973206e6f7420746865206f776e6572604482015290519081900360640190fd5b600080546040516001600160a01b03909116907f8be0079c531659141344cd1fd0a4f28419497f9722a3daafe3b4186f6b6457e0908390a3600080547fffffffffffffffffffffffff0000000000000000000000000000000000000000169055565b60026001541415611215576040805162461bcd60e51b815260206004820152601f60248201527f5265656e7472616e637947756172643a207265656e7472616e742063616c6c00604482015290519081900360640190fd5b6002600181905550833360006009838154811061122e57fe5b9060005260206000209060090201905061124783610bdd565b6003820155611255836123c1565b60028201556001600160a01b038216156112a6576000838152600a602090815260408083206001600160a01b038616845290915290206112958484611a79565b600182015560038201546002909101555b6000600988815481106112b557fe5b600091825260208083208b8452600a8252604080852033865290925292206009909102909101915087158015906112ed575080548811155b61133e576040805162461bcd60e51b815260206004820152601260248201527f77697468647261773a206e6f7420676f6f640000000000000000000000000000604482015290519081900360640190fd5b805461134a90896131ef565b815581546001830154604080517fa2c16fe70000000000000000000000000000000000000000000000000000000081526001600160a01b0390931660048401526024830191909152604482018a9052516000917344DdA8E799dE6A4a4a50052793D208B3bE16cA339163a2c16fe791606480820192602092909190829003018186803b1580156113d957600080fd5b505af41580156113ed573d6000803e3d6000fd5b505050506040513d602081101561140357600080fd5b50519050801561144a57600783015461141c90826131ef565b60078401556008830154611430908a6131ef565b6008840155600382015461144490826131ef565b60038301555b82546001840154604080517f9f7433410000000000000000000000000000000000000000000000000000000081526001600160a01b0390931660048401526024830191909152516114d59133918c917344DdA8E799dE6A4a4a50052793D208B3bE16cA3391639f74334191604480820192602092909190829003018186803b158015610fd157600080fd5b6114e08a89896133ea565b604080518a815290518b9133917ff279e6a1f5e320cca91135676d9cb6e44ca8a08c0b88342bcdb1144f6511b5689181900360200190a35050600180555050505050505050565b61152f613366565b6001600160a01b0316611540611767565b6001600160a01b03161461159b576040805162461bcd60e51b815260206004820181905260248201527f4f776e61626c653a2063616c6c6572206973206e6f7420746865206f776e6572604482015290519081900360640190fd5b80600983815481106115a957fe5b6000918252602090912060099091020180547fffffffffffffffffffffffff0000000000000000000000000000000000000000166001600160a01b03929092169190911790555050565b6006546001600160a01b03163314611652576040805162461bcd60e51b815260206004820152600760248201527f6e6f742064657600000000000000000000000000000000000000000000000000604482015290519081900360640190fd5b600680547fffffffffffffffffffffffff0000000000000000000000000000000000000000166001600160a01b0392909216919091179055565b6000806009838154811061169c57fe5b600091825260209182902060099091020180546001820154604080517f3d0dfc3b0000000000000000000000000000000000000000000000000000000081526001600160a01b039093166004840152602483018890526044830191909152519193507344DdA8E799dE6A4a4a50052793D208B3bE16cA3392633d0dfc3b92606480840193829003018186803b15801561173457600080fd5b505af4158015611748573d6000803e3d6000fd5b505050506040513d602081101561175e57600080fd5b50519392505050565b6000546001600160a01b031690565b6004546001600160a01b031681565b600a60209081526000928352604080842090915290825290208054600182015460028301546003909301549192909184565b6005546001600160a01b03163314611816576040805162461bcd60e51b815260206004820152601260248201527f6e6f742072657761726420757064617465720000000000000000000000000000604482015290519081900360640190fd5b60005b825181101561189757600083828151811061183057fe5b60200260200101519050826009828154811061184857fe5b6000918252602090912060099091020180547fffffffffffffffffffffffff0000000000000000000000000000000000000000166001600160a01b039290921691909117905550600101611819565b505050565b60075481565b6118aa613366565b6001600160a01b03166118bb611767565b6001600160a01b031614611916576040805162461bcd60e51b815260206004820181905260248201527f4f776e61626c653a2063616c6c6572206973206e6f7420746865206f776e6572604482015290519081900360640190fd5b60095460005b81811015611a5e5760006009828154811061193357fe5b60009182526020808320600990920290910180546001820154604080517f9f7433410000000000000000000000000000000000000000000000000000000081526001600160a01b0390931660048401526024830191909152519194507344DdA8E799dE6A4a4a50052793D208B3bE16cA3392639f74334192604480840193829003018186803b1580156119c557600080fd5b505af41580156119d9573d6000803e3d6000fd5b505050506040513d60208110156119ef57600080fd5b505190506001600160a01b038781169082161415611a54576040805162461bcd60e51b815260206004820152600d60248201527f21706f6f6c2e6c70546f6b656e00000000000000000000000000000000000000604482015290519081900360640190fd5b505060010161191c565b50611a736001600160a01b038516838561336a565b50505050565b6000828152600a602090815260408083206001600160a01b0385168452909152812060018101546002820154611ad79190611ad190670de0b6b3a764000090610cf690611ac990610cea8b610bdd565b86549061324c565b9061330c565b949350505050565b611ae7613366565b6001600160a01b0316611af8611767565b6001600160a01b031614611b53576040805162461bcd60e51b815260206004820181905260248201527f4f776e61626c653a2063616c6c6572206973206e6f7420746865206f776e6572604482015290519081900360640190fd5b600380547fffffffffffffffffffffffff0000000000000000000000000000000000000000166001600160a01b0392909216919091179055565b611b95613366565b6001600160a01b0316611ba6611767565b6001600160a01b031614611c01576040805162461bcd60e51b815260206004820181905260248201527f4f776e61626c653a2063616c6c6572206973206e6f7420746865206f776e6572604482015290519081900360640190fd5b600855565b60026001541415611c5e576040805162461bcd60e51b815260206004820152601f60248201527f5265656e7472616e637947756172643a207265656e7472616e742063616c6c00604482015290519081900360640190fd5b60026001819055508233600060098381548110611c7757fe5b90600052602060002090600902019050611c9083610bdd565b6003820155611c9e836123c1565b60028201556001600160a01b03821615611cef576000838152600a602090815260408083206001600160a01b03861684529091529020611cde8484611a79565b600182015560038201546002909101555b611cfa8686866133ea565b50506001805550505050565b611d0e613366565b6001600160a01b0316611d1f611767565b6001600160a01b031614611d7a576040805162461bcd60e51b815260206004820181905260248201527f4f776e61626c653a2063616c6c6572206973206e6f7420746865206f776e6572604482015290519081900360640190fd5b60005b8151811015611897576009604051806101200160405280856001600160a01b03168152602001848481518110611daf57fe5b6020908102919091018101518252600082820181905260408084018290526060808501839052608080860184905260a080870185905260c080880186905260e0978801869052895460018082018c559a875295879020895160099097020180547fffffffffffffffffffffffff0000000000000000000000000000000000000000166001600160a01b0390971696909617865595880151858a0155928701516002850155908601516003840155850151600483015584015160058201559083015160068201559082015160078201556101009091015160089091015501611d7d565b6003546001600160a01b031681565b60085481565b611eae613366565b6001600160a01b0316611ebf611767565b6001600160a01b031614611f1a576040805162461bcd60e51b815260206004820181905260248201527f4f776e61626c653a2063616c6c6572206973206e6f7420746865206f776e6572604482015290519081900360640190fd5b600580547fffffffffffffffffffffffff0000000000000000000000000000000000000000166001600160a01b0392909216919091179055565b60026001541415611fac576040805162461bcd60e51b815260206004820152601f60248201527f5265656e7472616e637947756172643a207265656e7472616e742063616c6c00604482015290519081900360640190fd5b60026001819055508133600060098381548110611fc557fe5b90600052602060002090600902019050611fde83610bdd565b6003820155611fec836123c1565b60028201556001600160a01b0382161561203d576000838152600a602090815260408083206001600160a01b0386168452909152902061202c8484611a79565b600182015560038201546002909101555b60008411612092576040805162461bcd60e51b815260206004820152601060248201527f43616e6e6f74206465706f736974203000000000000000000000000000000000604482015290519081900360640190fd5b6000600986815481106120a157fe5b60009182526020808320898452600a82526040808520338087529084529481902060099094029091018054600182015483517f9f7433410000000000000000000000000000000000000000000000000000000081526001600160a01b0392909216600483015260248201529151909550929361219193909230928b927344DdA8E799dE6A4a4a50052793D208B3bE16cA3392639f7433419260448082019391829003018186803b15801561215457600080fd5b505af4158015612168573d6000803e3d6000fd5b505050506040513d602081101561217e57600080fd5b50516001600160a01b03169291906135fa565b81546001830154604080517ff8c35b370000000000000000000000000000000000000000000000000000000081526001600160a01b039093166004840152602483019190915260448201889052516000917344DdA8E799dE6A4a4a50052793D208B3bE16cA339163f8c35b3791606480820192602092909190829003018186803b15801561221e57600080fd5b505af4158015612232573d6000803e3d6000fd5b505050506040513d602081101561224857600080fd5b50519050801561228f576007830154612261908261330c565b60078401556008830154612275908861330c565b60088401556003820154612289908261330c565b60038301555b815461229b908861330c565b8255604080518881529051899133917f90890809c654f11d6e72a28fa60149770a0d11ec6c92319d6ceb2bb0a4ea1a159181900360200190a3505060018055505050505050565b6122ea613366565b6001600160a01b03166122fb611767565b6001600160a01b031614612356576040805162461bcd60e51b815260206004820181905260248201527f4f776e61626c653a2063616c6c6572206973206e6f7420746865206f776e6572604482015290519081900360640190fd5b816009848154811061236457fe5b906000526020600020906009020160000160006101000a8154816001600160a01b0302191690836001600160a01b0316021790555080600984815481106123a757fe5b906000526020600020906009020160010181905550505050565b600080600983815481106123d157fe5b906000526020600020906009020190506123ef438260060154613682565b9392505050565b6000806009838154811061240657fe5b906000526020600020906009020190506123ef600754826005015461324c90919063ffffffff16565b612437613366565b6001600160a01b0316612448611767565b6001600160a01b0316146124a3576040805162461bcd60e51b815260206004820181905260248201527f4f776e61626c653a2063616c6c6572206973206e6f7420746865206f776e6572604482015290519081900360640190fd5b6001600160a01b0381166124e85760405162461bcd60e51b81526004018080602001828103825260268152602001806139376026913960400191505060405180910390fd5b600080546040516001600160a01b03808516939216917f8be0079c531659141344cd1fd0a4f28419497f9722a3daafe3b4186f6b6457e091a3600080547fffffffffffffffffffffffff0000000000000000000000000000000000000000166001600160a01b0392909216919091179055565b612563613366565b6001600160a01b0316612574611767565b6001600160a01b0316146125cf576040805162461bcd60e51b815260206004820181905260248201527f4f776e61626c653a2063616c6c6572206973206e6f7420746865206f776e6572604482015290519081900360640190fd5b60408051610120810182526001600160a01b039384168152602081019283526000918101828152606082018381526080830184815260a0840185815260c0850186815260e086018781526101008701888152600980546001810182559981905297517f6e1540171b6c0c960b71a7020d9f60077f6af931a8bbf590da0223dacf75c7af9990980298890180547fffffffffffffffffffffffff00000000000000000000000000000000000000001698909b169790971790995596517f6e1540171b6c0c960b71a7020d9f60077f6af931a8bbf590da0223dacf75c7b087015592517f6e1540171b6c0c960b71a7020d9f60077f6af931a8bbf590da0223dacf75c7b186015590517f6e1540171b6c0c960b71a7020d9f60077f6af931a8bbf590da0223dacf75c7b2850155517f6e1540171b6c0c960b71a7020d9f60077f6af931a8bbf590da0223dacf75c7b3840155517f6e1540171b6c0c960b71a7020d9f60077f6af931a8bbf590da0223dacf75c7b483015591517f6e1540171b6c0c960b71a7020d9f60077f6af931a8bbf590da0223dacf75c7b582015591517f6e1540171b6c0c960b71a7020d9f60077f6af931a8bbf590da0223dacf75c7b6830155517f6e1540171b6c0c960b71a7020d9f60077f6af931a8bbf590da0223dacf75c7b790910155565b80600080600983815481106127c957fe5b906000526020600020906009020190506127e283610bdd565b60038201556127f0836123c1565b60028201556001600160a01b03821615612841576000838152600a602090815260408083206001600160a01b038616845290915290206128308484611a79565b600182015560038201546002909101555b6003546001600160a01b031633146128a0576040805162461bcd60e51b815260206004820152600d60248201527f6e6f7420647261696e6374726c00000000000000000000000000000000000000604482015290519081900360640190fd5b6000600985815481106128af57fe5b60009182526020822060099091020180546001820154604080517f53d6afd40000000000000000000000000000000000000000000000000000000081526001600160a01b0390931660048401819052602484018b90526044840183905290519395509390927344DdA8E799dE6A4a4a50052793D208B3bE16cA33926353d6afd4926064808301939192829003018186803b15801561294c57600080fd5b505af4158015612960573d6000803e3d6000fd5b5050604080517fb50c4fb60000000000000000000000000000000000000000000000000000000081526001600160a01b0386166004820152602481018b90529051600093507344DdA8E799dE6A4a4a50052793D208B3bE16cA33925063b50c4fb691604480820192602092909190829003018186803b1580156129e257600080fd5b505af41580156129f6573d6000803e3d6000fd5b505050506040513d6020811015612a0c57600080fd5b5051604080517f70a0823100000000000000000000000000000000000000000000000000000000815230600482015290519192506000916001600160a01b038416916370a08231916024808301926020929190829003018186803b158015612a7357600080fd5b505afa158015612a87573d6000803e3d6000fd5b505050506040513d6020811015612a9d57600080fd5b5051905080612ab0575050505050611a73565b604080517ff35294550000000000000000000000000000000000000000000000000000000081526001600160a01b0386166004820152602481018b90526044810183905230606482015290516000917344DdA8E799dE6A4a4a50052793D208B3bE16cA339163f352945591608480820192602092909190829003018186803b158015612b3b57600080fd5b505af4158015612b4f573d6000803e3d6000fd5b505050506040513d6020811015612b6557600080fd5b5051600854909150600090612b83906103e890610cf690859061324c565b90508015612c565760048054604080517fa9059cbb0000000000000000000000000000000000000000000000000000000081526001600160a01b039283169381019390935260248301849052517f00000000000000000000000000000000000000000000000000000000000000009091169163a9059cbb9160448083019260209291908290030181600087803b158015612c1c57600080fd5b505af1158015612c30573d6000803e3d6000fd5b505050506040513d6020811015612c4657600080fd5b50612c53905082826131ef565b91505b600254604080517fe3d670d700000000000000000000000000000000000000000000000000000000815230600482015290516000926001600160a01b03169163e3d670d7916024808301926020929190829003018186803b158015612cba57600080fd5b505afa158015612cce573d6000803e3d6000fd5b505050506040513d6020811015612ce457600080fd5b505160025460408051602480820188905282518083039091018152604490910182526020810180517bffffffffffffffffffffffffffffffffffffffffffffffffffffffff167f104f823c00000000000000000000000000000000000000000000000000000000178152915181519495506000946001600160a01b0390941693919290918291908083835b60208310612dac57805182527fffffffffffffffffffffffffffffffffffffffffffffffffffffffffffffffe09092019160209182019101612d6f565b6001836020036101000a038019825116818451168082178552505050505050905001915050600060405180830381855af49150503d8060008114612e0c576040519150601f19603f3d011682016040523d82523d6000602084013e612e11565b606091505b5050905080612e515760405162461bcd60e51b815260040180806020018281038252603681526020018061397e6036913960400191505060405180910390fd5b600254604080517fe3d670d700000000000000000000000000000000000000000000000000000000815230600482015290516000926001600160a01b03169163e3d670d7916024808301926020929190829003018186803b158015612eb557600080fd5b505afa158015612ec9573d6000803e3d6000fd5b505050506040513d6020811015612edf57600080fd5b505190506000612eef82856131ef565b60048c0154909150612f01908261330c565b60048c015560068b01544310612f2957600754612f1f9082906132a5565b60058c0155612f72565b60068b0154600090612f3b90436131ef565b90506000612f568d600501548361324c90919063ffffffff16565b600754909150612f6a90610cf6858461330c565b60058e015550505b4360028c01819055600754612f87919061330c565b8b600601819055508e7ff7580ecfeb93fe4d13723dc9622b0a0b3647488def26a04ceac8e648c0a35843826040518082815260200191505060405180910390a2505050505050505050505050505050565b612fe0613366565b6001600160a01b0316612ff1611767565b6001600160a01b03161461304c576040805162461bcd60e51b815260206004820181905260248201527f4f776e61626c653a2063616c6c6572206973206e6f7420746865206f776e6572604482015290519081900360640190fd5b600280546001600160a01b038084167fffffffffffffffffffffffff0000000000000000000000000000000000000000909216919091179182905560408051600481526024810182526020810180517bffffffffffffffffffffffffffffffffffffffffffffffffffffffff167f8fd3ab80000000000000000000000000000000000000000000000000000000001781529151815160009590941693919290918291908083835b6020831061313057805182527fffffffffffffffffffffffffffffffffffffffffffffffffffffffffffffffe090920191602091820191016130f3565b6001836020036101000a038019825116818451168082178552505050505050905001915050600060405180830381855af49150503d8060008114613190576040519150601f19603f3d011682016040523d82523d6000602084013e613195565b606091505b50509050806131eb576040805162461bcd60e51b815260206004820152601e60248201527f6d69677261746528292064656c656761746563616c6c206661696c65642e0000604482015290519081900360640190fd5b5050565b600082821115613246576040805162461bcd60e51b815260206004820152601e60248201527f536166654d6174683a207375627472616374696f6e206f766572666c6f770000604482015290519081900360640190fd5b50900390565b60008261325b57506000610b6c565b8282028284828161326857fe5b04146123ef5760405162461bcd60e51b815260040180806020018281038252602181526020018061395d6021913960400191505060405180910390fd5b60008082116132fb576040805162461bcd60e51b815260206004820152601a60248201527f536166654d6174683a206469766973696f6e206279207a65726f000000000000604482015290519081900360640190fd5b81838161330457fe5b049392505050565b6000828201838110156123ef576040805162461bcd60e51b815260206004820152601b60248201527f536166654d6174683a206164646974696f6e206f766572666c6f770000000000604482015290519081900360640190fd5b3390565b604080516001600160a01b038416602482015260448082018490528251808303909101815260649091019091526020810180517bffffffffffffffffffffffffffffffffffffffffffffffffffffffff167fa9059cbb00000000000000000000000000000000000000000000000000000000179052611897908490613698565b6000600984815481106133f957fe5b60009182526020808320878452600a82526040808520338652909252922060018101546009909202909201925080156135f25760006001830155600483015481811015613444578091505b60025460408051602481018590526044810189905260ff881660648083019190915282518083039091018152608490910182526020810180517bffffffffffffffffffffffffffffffffffffffffffffffffffffffff167fb939f40700000000000000000000000000000000000000000000000000000000178152915181516000946001600160a01b03169382918083835b6020831061351357805182527fffffffffffffffffffffffffffffffffffffffffffffffffffffffffffffffe090920191602091820191016134d6565b6001836020036101000a038019825116818451168082178552505050505050905001915050600060405180830381855af49150503d8060008114613573576040519150601f19603f3d011682016040523d82523d6000602084013e613578565b606091505b50509050806135b85760405162461bcd60e51b81526004018080602001828103825260508152602001806139de6050913960600191505060405180910390fd5b604080518481529051899133917ff01da32686223933d8a18a391060918c7f11a3648639edd87ae013e2e27317439181900360200190a350505b505050505050565b604080516001600160a01b0380861660248301528416604482015260648082018490528251808303909101815260849091019091526020810180517bffffffffffffffffffffffffffffffffffffffffffffffffffffffff167f23b872dd00000000000000000000000000000000000000000000000000000000179052611a73908590613698565b600081831061369157816123ef565b5090919050565b60006136ed826040518060400160405280602081526020017f5361666545524332303a206c6f772d6c6576656c2063616c6c206661696c6564815250856001600160a01b03166137499092919063ffffffff16565b8051909150156118975780806020019051602081101561370c57600080fd5b50516118975760405162461bcd60e51b815260040180806020018281038252602a8152602001806139b4602a913960400191505060405180910390fd5b6060611ad784846000858561375d8561388c565b6137ae576040805162461bcd60e51b815260206004820152601d60248201527f416464726573733a2063616c6c20746f206e6f6e2d636f6e7472616374000000604482015290519081900360640190fd5b600080866001600160a01b031685876040518082805190602001908083835b6020831061380a57805182527fffffffffffffffffffffffffffffffffffffffffffffffffffffffffffffffe090920191602091820191016137cd565b6001836020036101000a03801982511681845116808217855250505050505090500191505060006040518083038185875af1925050503d806000811461386c576040519150601f19603f3d011682016040523d82523d6000602084013e613871565b606091505b5091509150613881828286613892565b979650505050505050565b3b151590565b606083156138a15750816123ef565b8251156138b15782518084602001fd5b8160405162461bcd60e51b81526004018080602001828103825283818151815260200191508051906020019080838360005b838110156138fb5781810151838201526020016138e3565b50505050905090810190601f1680156139285780820380516001836020036101000a031916815260200191505b509250505060405180910390fdfe4f776e61626c653a206e6577206f776e657220697320746865207a65726f2061646472657373536166654d6174683a206d756c7469706c69636174696f6e206f766572666c6f7768616e646c65447261696e6564574554482875696e7432353620616d6f756e74292064656c656761746563616c6c206661696c65642e5361666545524332303a204552433230206f7065726174696f6e20646964206e6f74207375636365656468616e646c65436c61696d2875696e743235362070656e64696e672c2075696e7432353620746970416d6f756e742c2075696e743820666c6167292064656c656761746563616c6c206661696c65642ea264697066735822122097dd08139b580c22836548606d5d8db95bb4cae537c80dcad9f205e17c2d3bf164736f6c63430007060033",
  "deployedBytecode": "0x6080604052600436106102895760003560e01c806394a1af4611610153578063e10f8f06116100cb578063efedb5d61161007f578063f5d82b6b11610064578063f5d82b6b146109f6578063f6b19c7414610a2f578063feab159214610a5957610290565b8063efedb5d614610999578063f2fde38b146109c357610290565b8063e2bbb158116100b0578063e2bbb15814610900578063ede2302e14610930578063eeca15621461096f57610290565b8063e10f8f06146108b8578063e22fae06146108cd57610290565b8063cbb4e2e111610122578063d35e295a11610107578063d35e295a146107b7578063d4c2840d146107e3578063e0a9b09d146108a357610290565b8063cbb4e2e11461075a578063d17f2a591461078d57610290565b806394a1af461461060e5780639b501723146106c9578063a081ddbd146106de578063b6f525a71461072157610290565b8063592e7def1161020157806385033762116101b55780638da5cb5b1161019a5780638da5cb5b1461058557806392f2cff01461059a57806393f1a40b146105af57610290565b8063850337621461052857806389c70e791461055b57610290565b8063715018a6116101e6578063715018a6146104a857806374e9d093146104bd5780637fd7dc8a146104ef57610290565b8063592e7def1461047e57806368cdd86e1461049357610290565b806333fc552e11610258578063431de0071161023d578063431de007146103f55780635312ea8e1461042a578063577fbd5f1461045457610290565b806333fc552e1461039a5780633ad10ef6146103c457610290565b80630661cefb14610295578063081e3eda146102e05780631526fe27146102f5578063217f9c391461037057610290565b3661029057005b600080fd5b3480156102a157600080fd5b506102ce600480360360408110156102b857600080fd5b50803590602001356001600160a01b0316610a8c565b60408051918252519081900360200190f35b3480156102ec57600080fd5b506102ce610b72565b34801561030157600080fd5b5061031f6004803603602081101561031857600080fd5b5035610b78565b604080516001600160a01b03909a168a5260208a0198909852888801969096526060880194909452608087019290925260a086015260c085015260e084015261010083015251908190036101200190f35b34801561037c57600080fd5b506102ce6004803603602081101561039357600080fd5b5035610bdd565b3480156103a657600080fd5b506102ce600480360360208110156103bd57600080fd5b5035610d11565b3480156103d057600080fd5b506103d9610d3c565b604080516001600160a01b039092168252519081900360200190f35b34801561040157600080fd5b506104286004803603602081101561041857600080fd5b50356001600160a01b0316610d4b565b005b34801561043657600080fd5b506104286004803603602081101561044d57600080fd5b5035610df9565b34801561046057600080fd5b506104286004803603602081101561047757600080fd5b5035611065565b34801561048a57600080fd5b506103d96110c9565b34801561049f57600080fd5b506103d96110d8565b3480156104b457600080fd5b506104286110e7565b610428600480360360808110156104d357600080fd5b508035906020810135906040810135906060013560ff166111bd565b3480156104fb57600080fd5b506104286004803603604081101561051257600080fd5b50803590602001356001600160a01b0316611527565b34801561053457600080fd5b506104286004803603602081101561054b57600080fd5b50356001600160a01b03166115f3565b34801561056757600080fd5b506102ce6004803603602081101561057e57600080fd5b503561168c565b34801561059157600080fd5b506103d9611767565b3480156105a657600080fd5b506103d9611776565b3480156105bb57600080fd5b506105e8600480360360408110156105d257600080fd5b50803590602001356001600160a01b0316611785565b604080519485526020850193909352838301919091526060830152519081900360800190f35b34801561061a57600080fd5b506104286004803603604081101561063157600080fd5b81019060208101813564010000000081111561064c57600080fd5b82018360208201111561065e57600080fd5b8035906020019184602083028401116401000000008311171561068057600080fd5b919080806020026020016040519081016040528093929190818152602001838360200280828437600092019190915250929550505090356001600160a01b031691506117b79050565b3480156106d557600080fd5b506102ce61189c565b3480156106ea57600080fd5b506104286004803603606081101561070157600080fd5b506001600160a01b038135811691602081013591604090910135166118a2565b34801561072d57600080fd5b506102ce6004803603604081101561074457600080fd5b50803590602001356001600160a01b0316611a79565b34801561076657600080fd5b506104286004803603602081101561077d57600080fd5b50356001600160a01b0316611adf565b34801561079957600080fd5b50610428600480360360208110156107b057600080fd5b5035611b8d565b610428600480360360608110156107cd57600080fd5b508035906020810135906040013560ff16611c06565b3480156107ef57600080fd5b506104286004803603604081101561080657600080fd5b6001600160a01b03823516919081019060408101602082013564010000000081111561083157600080fd5b82018360208201111561084357600080fd5b8035906020019184602083028401116401000000008311171561086557600080fd5b919080806020026020016040519081016040528093929190818152602001838360200280828437600092019190915250929550611d06945050505050565b3480156108af57600080fd5b506103d9611e91565b3480156108c457600080fd5b506102ce611ea0565b3480156108d957600080fd5b50610428600480360360208110156108f057600080fd5b50356001600160a01b0316611ea6565b34801561090c57600080fd5b506104286004803603604081101561092357600080fd5b5080359060200135611f54565b34801561093c57600080fd5b506104286004803603606081101561095357600080fd5b508035906001600160a01b0360208201351690604001356122e2565b34801561097b57600080fd5b506102ce6004803603602081101561099257600080fd5b50356123c1565b3480156109a557600080fd5b506102ce600480360360208110156109bc57600080fd5b50356123f6565b3480156109cf57600080fd5b50610428600480360360208110156109e657600080fd5b50356001600160a01b031661242f565b348015610a0257600080fd5b5061042860048036036040811015610a1957600080fd5b506001600160a01b03813516906020013561255b565b348015610a3b57600080fd5b5061042860048036036020811015610a5257600080fd5b50356127b8565b348015610a6557600080fd5b5061042860048036036020811015610a7c57600080fd5b50356001600160a01b0316612fd8565b600080610a998484611a79565b600254604080517f9d3f50390000000000000000000000000000000000000000000000000000000081526004810184905290519293506000926001600160a01b0390921691639d3f50399160248082019260209290919082900301818787803b158015610b0557600080fd5b505af1158015610b19573d6000803e3d6000fd5b505050506040513d6020811015610b2f57600080fd5b50516040805182815290519192507fb37961da3972b7b5f62cae2d8c10d43840dbe99529a868d75b318ad6f2c09c0e919081900360200190a19150505b92915050565b60095490565b60098181548110610b8857600080fd5b60009182526020909120600990910201805460018201546002830154600384015460048501546005860154600687015460078801546008909801546001600160a01b0390971698509496939592949193909289565b60008060098381548110610bed57fe5b60009182526020808320600990920290910180546001820154604080517f1e95069c0000000000000000000000000000000000000000000000000000000081526001600160a01b03909316600484015260248301919091525191945073__$73c6edfe3f2e6e88b24dd13808d31aba3f$__92631e95069c92604480840193829003018186803b158015610c7f57600080fd5b505af4158015610c93573d6000803e3d6000fd5b505050506040513d6020811015610ca957600080fd5b5051905080610cbe5750600301549050610d0c565b610d07610cfc82610cf6670de0b6b3a7640000610cf08760050154610cf08960020154610cea8d6123c1565b906131ef565b9061324c565b906132a5565b60038401549061330c565b925050505b919050565b60008060098381548110610d2157fe5b60009182526020909120600460099092020101549392505050565b6006546001600160a01b031681565b610d53613366565b6001600160a01b0316610d64611767565b6001600160a01b031614610dbf576040805162461bcd60e51b815260206004820181905260248201527f4f776e61626c653a2063616c6c6572206973206e6f7420746865206f776e6572604482015290519081900360640190fd5b600480547fffffffffffffffffffffffff0000000000000000000000000000000000000000166001600160a01b0392909216919091179055565b60026001541415610e51576040805162461bcd60e51b815260206004820152601f60248201527f5265656e7472616e637947756172643a207265656e7472616e742063616c6c00604482015290519081900360640190fd5b6002600181905550600060098281548110610e6857fe5b60009182526020808320858452600a8252604080852033865283529384902060099093020180546001820154845486517fa2c16fe70000000000000000000000000000000000000000000000000000000081526001600160a01b03939093166004840152602483019190915260448201529351909450919273__$73c6edfe3f2e6e88b24dd13808d31aba3f$__9263a2c16fe792606480840193919291829003018186803b158015610f1957600080fd5b505af4158015610f2d573d6000803e3d6000fd5b505050506040513d6020811015610f4357600080fd5b5050805482546001840154604080517f9f7433410000000000000000000000000000000000000000000000000000000081526001600160a01b03909316600484015260248301919091525161100d923392909173__$73c6edfe3f2e6e88b24dd13808d31aba3f$__91639f743341916044808301926020929190829003018186803b158015610fd157600080fd5b505af4158015610fe5573d6000803e3d6000fd5b505050506040513d6020811015610ffb57600080fd5b50516001600160a01b0316919061336a565b80546040805191825251849133917fbb757047c2b5f3974fe26b7c10f732e7bce710b0952a71082702781e62ae05959181900360200190a3600080825560018083018290556002830182905560039092015580555050565b6005546001600160a01b031633146110c4576040805162461bcd60e51b815260206004820152601260248201527f6e6f742072657761726420757064617465720000000000000000000000000000604482015290519081900360640190fd5b600755565b6002546001600160a01b031681565b6005546001600160a01b031681565b6110ef613366565b6001600160a01b0316611100611767565b6001600160a01b03161461115b576040805162461bcd60e51b815260206004820181905260248201527f4f776e61626c653a2063616c6c6572206973206e6f7420746865206f776e6572604482015290519081900360640190fd5b600080546040516001600160a01b03909116907f8be0079c531659141344cd1fd0a4f28419497f9722a3daafe3b4186f6b6457e0908390a3600080547fffffffffffffffffffffffff0000000000000000000000000000000000000000169055565b60026001541415611215576040805162461bcd60e51b815260206004820152601f60248201527f5265656e7472616e637947756172643a207265656e7472616e742063616c6c00604482015290519081900360640190fd5b6002600181905550833360006009838154811061122e57fe5b9060005260206000209060090201905061124783610bdd565b6003820155611255836123c1565b60028201556001600160a01b038216156112a6576000838152600a602090815260408083206001600160a01b038616845290915290206112958484611a79565b600182015560038201546002909101555b6000600988815481106112b557fe5b600091825260208083208b8452600a8252604080852033865290925292206009909102909101915087158015906112ed575080548811155b61133e576040805162461bcd60e51b815260206004820152601260248201527f77697468647261773a206e6f7420676f6f640000000000000000000000000000604482015290519081900360640190fd5b805461134a90896131ef565b815581546001830154604080517fa2c16fe70000000000000000000000000000000000000000000000000000000081526001600160a01b0390931660048401526024830191909152604482018a90525160009173__$73c6edfe3f2e6e88b24dd13808d31aba3f$__9163a2c16fe791606480820192602092909190829003018186803b1580156113d957600080fd5b505af41580156113ed573d6000803e3d6000fd5b505050506040513d602081101561140357600080fd5b50519050801561144a57600783015461141c90826131ef565b60078401556008830154611430908a6131ef565b6008840155600382015461144490826131ef565b60038301555b82546001840154604080517f9f7433410000000000000000000000000000000000000000000000000000000081526001600160a01b0390931660048401526024830191909152516114d59133918c9173__$73c6edfe3f2e6e88b24dd13808d31aba3f$__91639f74334191604480820192602092909190829003018186803b158015610fd157600080fd5b6114e08a89896133ea565b604080518a815290518b9133917ff279e6a1f5e320cca91135676d9cb6e44ca8a08c0b88342bcdb1144f6511b5689181900360200190a35050600180555050505050505050565b61152f613366565b6001600160a01b0316611540611767565b6001600160a01b03161461159b576040805162461bcd60e51b815260206004820181905260248201527f4f776e61626c653a2063616c6c6572206973206e6f7420746865206f776e6572604482015290519081900360640190fd5b80600983815481106115a957fe5b6000918252602090912060099091020180547fffffffffffffffffffffffff0000000000000000000000000000000000000000166001600160a01b03929092169190911790555050565b6006546001600160a01b03163314611652576040805162461bcd60e51b815260206004820152600760248201527f6e6f742064657600000000000000000000000000000000000000000000000000604482015290519081900360640190fd5b600680547fffffffffffffffffffffffff0000000000000000000000000000000000000000166001600160a01b0392909216919091179055565b6000806009838154811061169c57fe5b600091825260209182902060099091020180546001820154604080517f3d0dfc3b0000000000000000000000000000000000000000000000000000000081526001600160a01b0390931660048401526024830188905260448301919091525191935073__$73c6edfe3f2e6e88b24dd13808d31aba3f$__92633d0dfc3b92606480840193829003018186803b15801561173457600080fd5b505af4158015611748573d6000803e3d6000fd5b505050506040513d602081101561175e57600080fd5b50519392505050565b6000546001600160a01b031690565b6004546001600160a01b031681565b600a60209081526000928352604080842090915290825290208054600182015460028301546003909301549192909184565b6005546001600160a01b03163314611816576040805162461bcd60e51b815260206004820152601260248201527f6e6f742072657761726420757064617465720000000000000000000000000000604482015290519081900360640190fd5b60005b825181101561189757600083828151811061183057fe5b60200260200101519050826009828154811061184857fe5b6000918252602090912060099091020180547fffffffffffffffffffffffff0000000000000000000000000000000000000000166001600160a01b039290921691909117905550600101611819565b505050565b60075481565b6118aa613366565b6001600160a01b03166118bb611767565b6001600160a01b031614611916576040805162461bcd60e51b815260206004820181905260248201527f4f776e61626c653a2063616c6c6572206973206e6f7420746865206f776e6572604482015290519081900360640190fd5b60095460005b81811015611a5e5760006009828154811061193357fe5b60009182526020808320600990920290910180546001820154604080517f9f7433410000000000000000000000000000000000000000000000000000000081526001600160a01b03909316600484015260248301919091525191945073__$73c6edfe3f2e6e88b24dd13808d31aba3f$__92639f74334192604480840193829003018186803b1580156119c557600080fd5b505af41580156119d9573d6000803e3d6000fd5b505050506040513d60208110156119ef57600080fd5b505190506001600160a01b038781169082161415611a54576040805162461bcd60e51b815260206004820152600d60248201527f21706f6f6c2e6c70546f6b656e00000000000000000000000000000000000000604482015290519081900360640190fd5b505060010161191c565b50611a736001600160a01b038516838561336a565b50505050565b6000828152600a602090815260408083206001600160a01b0385168452909152812060018101546002820154611ad79190611ad190670de0b6b3a764000090610cf690611ac990610cea8b610bdd565b86549061324c565b9061330c565b949350505050565b611ae7613366565b6001600160a01b0316611af8611767565b6001600160a01b031614611b53576040805162461bcd60e51b815260206004820181905260248201527f4f776e61626c653a2063616c6c6572206973206e6f7420746865206f776e6572604482015290519081900360640190fd5b600380547fffffffffffffffffffffffff0000000000000000000000000000000000000000166001600160a01b0392909216919091179055565b611b95613366565b6001600160a01b0316611ba6611767565b6001600160a01b031614611c01576040805162461bcd60e51b815260206004820181905260248201527f4f776e61626c653a2063616c6c6572206973206e6f7420746865206f776e6572604482015290519081900360640190fd5b600855565b60026001541415611c5e576040805162461bcd60e51b815260206004820152601f60248201527f5265656e7472616e637947756172643a207265656e7472616e742063616c6c00604482015290519081900360640190fd5b60026001819055508233600060098381548110611c7757fe5b90600052602060002090600902019050611c9083610bdd565b6003820155611c9e836123c1565b60028201556001600160a01b03821615611cef576000838152600a602090815260408083206001600160a01b03861684529091529020611cde8484611a79565b600182015560038201546002909101555b611cfa8686866133ea565b50506001805550505050565b611d0e613366565b6001600160a01b0316611d1f611767565b6001600160a01b031614611d7a576040805162461bcd60e51b815260206004820181905260248201527f4f776e61626c653a2063616c6c6572206973206e6f7420746865206f776e6572604482015290519081900360640190fd5b60005b8151811015611897576009604051806101200160405280856001600160a01b03168152602001848481518110611daf57fe5b6020908102919091018101518252600082820181905260408084018290526060808501839052608080860184905260a080870185905260c080880186905260e0978801869052895460018082018c559a875295879020895160099097020180547fffffffffffffffffffffffff0000000000000000000000000000000000000000166001600160a01b0390971696909617865595880151858a0155928701516002850155908601516003840155850151600483015584015160058201559083015160068201559082015160078201556101009091015160089091015501611d7d565b6003546001600160a01b031681565b60085481565b611eae613366565b6001600160a01b0316611ebf611767565b6001600160a01b031614611f1a576040805162461bcd60e51b815260206004820181905260248201527f4f776e61626c653a2063616c6c6572206973206e6f7420746865206f776e6572604482015290519081900360640190fd5b600580547fffffffffffffffffffffffff0000000000000000000000000000000000000000166001600160a01b0392909216919091179055565b60026001541415611fac576040805162461bcd60e51b815260206004820152601f60248201527f5265656e7472616e637947756172643a207265656e7472616e742063616c6c00604482015290519081900360640190fd5b60026001819055508133600060098381548110611fc557fe5b90600052602060002090600902019050611fde83610bdd565b6003820155611fec836123c1565b60028201556001600160a01b0382161561203d576000838152600a602090815260408083206001600160a01b0386168452909152902061202c8484611a79565b600182015560038201546002909101555b60008411612092576040805162461bcd60e51b815260206004820152601060248201527f43616e6e6f74206465706f736974203000000000000000000000000000000000604482015290519081900360640190fd5b6000600986815481106120a157fe5b60009182526020808320898452600a82526040808520338087529084529481902060099094029091018054600182015483517f9f7433410000000000000000000000000000000000000000000000000000000081526001600160a01b0392909216600483015260248201529151909550929361219193909230928b9273__$73c6edfe3f2e6e88b24dd13808d31aba3f$__92639f7433419260448082019391829003018186803b15801561215457600080fd5b505af4158015612168573d6000803e3d6000fd5b505050506040513d602081101561217e57600080fd5b50516001600160a01b03169291906135fa565b81546001830154604080517ff8c35b370000000000000000000000000000000000000000000000000000000081526001600160a01b0390931660048401526024830191909152604482018890525160009173__$73c6edfe3f2e6e88b24dd13808d31aba3f$__9163f8c35b3791606480820192602092909190829003018186803b15801561221e57600080fd5b505af4158015612232573d6000803e3d6000fd5b505050506040513d602081101561224857600080fd5b50519050801561228f576007830154612261908261330c565b60078401556008830154612275908861330c565b60088401556003820154612289908261330c565b60038301555b815461229b908861330c565b8255604080518881529051899133917f90890809c654f11d6e72a28fa60149770a0d11ec6c92319d6ceb2bb0a4ea1a159181900360200190a3505060018055505050505050565b6122ea613366565b6001600160a01b03166122fb611767565b6001600160a01b031614612356576040805162461bcd60e51b815260206004820181905260248201527f4f776e61626c653a2063616c6c6572206973206e6f7420746865206f776e6572604482015290519081900360640190fd5b816009848154811061236457fe5b906000526020600020906009020160000160006101000a8154816001600160a01b0302191690836001600160a01b0316021790555080600984815481106123a757fe5b906000526020600020906009020160010181905550505050565b600080600983815481106123d157fe5b906000526020600020906009020190506123ef438260060154613682565b9392505050565b6000806009838154811061240657fe5b906000526020600020906009020190506123ef600754826005015461324c90919063ffffffff16565b612437613366565b6001600160a01b0316612448611767565b6001600160a01b0316146124a3576040805162461bcd60e51b815260206004820181905260248201527f4f776e61626c653a2063616c6c6572206973206e6f7420746865206f776e6572604482015290519081900360640190fd5b6001600160a01b0381166124e85760405162461bcd60e51b81526004018080602001828103825260268152602001806139376026913960400191505060405180910390fd5b600080546040516001600160a01b03808516939216917f8be0079c531659141344cd1fd0a4f28419497f9722a3daafe3b4186f6b6457e091a3600080547fffffffffffffffffffffffff0000000000000000000000000000000000000000166001600160a01b0392909216919091179055565b612563613366565b6001600160a01b0316612574611767565b6001600160a01b0316146125cf576040805162461bcd60e51b815260206004820181905260248201527f4f776e61626c653a2063616c6c6572206973206e6f7420746865206f776e6572604482015290519081900360640190fd5b60408051610120810182526001600160a01b039384168152602081019283526000918101828152606082018381526080830184815260a0840185815260c0850186815260e086018781526101008701888152600980546001810182559981905297517f6e1540171b6c0c960b71a7020d9f60077f6af931a8bbf590da0223dacf75c7af9990980298890180547fffffffffffffffffffffffff00000000000000000000000000000000000000001698909b169790971790995596517f6e1540171b6c0c960b71a7020d9f60077f6af931a8bbf590da0223dacf75c7b087015592517f6e1540171b6c0c960b71a7020d9f60077f6af931a8bbf590da0223dacf75c7b186015590517f6e1540171b6c0c960b71a7020d9f60077f6af931a8bbf590da0223dacf75c7b2850155517f6e1540171b6c0c960b71a7020d9f60077f6af931a8bbf590da0223dacf75c7b3840155517f6e1540171b6c0c960b71a7020d9f60077f6af931a8bbf590da0223dacf75c7b483015591517f6e1540171b6c0c960b71a7020d9f60077f6af931a8bbf590da0223dacf75c7b582015591517f6e1540171b6c0c960b71a7020d9f60077f6af931a8bbf590da0223dacf75c7b6830155517f6e1540171b6c0c960b71a7020d9f60077f6af931a8bbf590da0223dacf75c7b790910155565b80600080600983815481106127c957fe5b906000526020600020906009020190506127e283610bdd565b60038201556127f0836123c1565b60028201556001600160a01b03821615612841576000838152600a602090815260408083206001600160a01b038616845290915290206128308484611a79565b600182015560038201546002909101555b6003546001600160a01b031633146128a0576040805162461bcd60e51b815260206004820152600d60248201527f6e6f7420647261696e6374726c00000000000000000000000000000000000000604482015290519081900360640190fd5b6000600985815481106128af57fe5b60009182526020822060099091020180546001820154604080517f53d6afd40000000000000000000000000000000000000000000000000000000081526001600160a01b0390931660048401819052602484018b905260448401839052905193955093909273__$73c6edfe3f2e6e88b24dd13808d31aba3f$__926353d6afd4926064808301939192829003018186803b15801561294c57600080fd5b505af4158015612960573d6000803e3d6000fd5b5050604080517fb50c4fb60000000000000000000000000000000000000000000000000000000081526001600160a01b0386166004820152602481018b905290516000935073__$73c6edfe3f2e6e88b24dd13808d31aba3f$__925063b50c4fb691604480820192602092909190829003018186803b1580156129e257600080fd5b505af41580156129f6573d6000803e3d6000fd5b505050506040513d6020811015612a0c57600080fd5b5051604080517f70a0823100000000000000000000000000000000000000000000000000000000815230600482015290519192506000916001600160a01b038416916370a08231916024808301926020929190829003018186803b158015612a7357600080fd5b505afa158015612a87573d6000803e3d6000fd5b505050506040513d6020811015612a9d57600080fd5b5051905080612ab0575050505050611a73565b604080517ff35294550000000000000000000000000000000000000000000000000000000081526001600160a01b0386166004820152602481018b905260448101839052306064820152905160009173__$73c6edfe3f2e6e88b24dd13808d31aba3f$__9163f352945591608480820192602092909190829003018186803b158015612b3b57600080fd5b505af4158015612b4f573d6000803e3d6000fd5b505050506040513d6020811015612b6557600080fd5b5051600854909150600090612b83906103e890610cf690859061324c565b90508015612c565760048054604080517fa9059cbb0000000000000000000000000000000000000000000000000000000081526001600160a01b039283169381019390935260248301849052517f00000000000000000000000000000000000000000000000000000000000000009091169163a9059cbb9160448083019260209291908290030181600087803b158015612c1c57600080fd5b505af1158015612c30573d6000803e3d6000fd5b505050506040513d6020811015612c4657600080fd5b50612c53905082826131ef565b91505b600254604080517fe3d670d700000000000000000000000000000000000000000000000000000000815230600482015290516000926001600160a01b03169163e3d670d7916024808301926020929190829003018186803b158015612cba57600080fd5b505afa158015612cce573d6000803e3d6000fd5b505050506040513d6020811015612ce457600080fd5b505160025460408051602480820188905282518083039091018152604490910182526020810180517bffffffffffffffffffffffffffffffffffffffffffffffffffffffff167f104f823c00000000000000000000000000000000000000000000000000000000178152915181519495506000946001600160a01b0390941693919290918291908083835b60208310612dac57805182527fffffffffffffffffffffffffffffffffffffffffffffffffffffffffffffffe09092019160209182019101612d6f565b6001836020036101000a038019825116818451168082178552505050505050905001915050600060405180830381855af49150503d8060008114612e0c576040519150601f19603f3d011682016040523d82523d6000602084013e612e11565b606091505b5050905080612e515760405162461bcd60e51b815260040180806020018281038252603681526020018061397e6036913960400191505060405180910390fd5b600254604080517fe3d670d700000000000000000000000000000000000000000000000000000000815230600482015290516000926001600160a01b03169163e3d670d7916024808301926020929190829003018186803b158015612eb557600080fd5b505afa158015612ec9573d6000803e3d6000fd5b505050506040513d6020811015612edf57600080fd5b505190506000612eef82856131ef565b60048c0154909150612f01908261330c565b60048c015560068b01544310612f2957600754612f1f9082906132a5565b60058c0155612f72565b60068b0154600090612f3b90436131ef565b90506000612f568d600501548361324c90919063ffffffff16565b600754909150612f6a90610cf6858461330c565b60058e015550505b4360028c01819055600754612f87919061330c565b8b600601819055508e7ff7580ecfeb93fe4d13723dc9622b0a0b3647488def26a04ceac8e648c0a35843826040518082815260200191505060405180910390a2505050505050505050505050505050565b612fe0613366565b6001600160a01b0316612ff1611767565b6001600160a01b03161461304c576040805162461bcd60e51b815260206004820181905260248201527f4f776e61626c653a2063616c6c6572206973206e6f7420746865206f776e6572604482015290519081900360640190fd5b600280546001600160a01b038084167fffffffffffffffffffffffff0000000000000000000000000000000000000000909216919091179182905560408051600481526024810182526020810180517bffffffffffffffffffffffffffffffffffffffffffffffffffffffff167f8fd3ab80000000000000000000000000000000000000000000000000000000001781529151815160009590941693919290918291908083835b6020831061313057805182527fffffffffffffffffffffffffffffffffffffffffffffffffffffffffffffffe090920191602091820191016130f3565b6001836020036101000a038019825116818451168082178552505050505050905001915050600060405180830381855af49150503d8060008114613190576040519150601f19603f3d011682016040523d82523d6000602084013e613195565b606091505b50509050806131eb576040805162461bcd60e51b815260206004820152601e60248201527f6d69677261746528292064656c656761746563616c6c206661696c65642e0000604482015290519081900360640190fd5b5050565b600082821115613246576040805162461bcd60e51b815260206004820152601e60248201527f536166654d6174683a207375627472616374696f6e206f766572666c6f770000604482015290519081900360640190fd5b50900390565b60008261325b57506000610b6c565b8282028284828161326857fe5b04146123ef5760405162461bcd60e51b815260040180806020018281038252602181526020018061395d6021913960400191505060405180910390fd5b60008082116132fb576040805162461bcd60e51b815260206004820152601a60248201527f536166654d6174683a206469766973696f6e206279207a65726f000000000000604482015290519081900360640190fd5b81838161330457fe5b049392505050565b6000828201838110156123ef576040805162461bcd60e51b815260206004820152601b60248201527f536166654d6174683a206164646974696f6e206f766572666c6f770000000000604482015290519081900360640190fd5b3390565b604080516001600160a01b038416602482015260448082018490528251808303909101815260649091019091526020810180517bffffffffffffffffffffffffffffffffffffffffffffffffffffffff167fa9059cbb00000000000000000000000000000000000000000000000000000000179052611897908490613698565b6000600984815481106133f957fe5b60009182526020808320878452600a82526040808520338652909252922060018101546009909202909201925080156135f25760006001830155600483015481811015613444578091505b60025460408051602481018590526044810189905260ff881660648083019190915282518083039091018152608490910182526020810180517bffffffffffffffffffffffffffffffffffffffffffffffffffffffff167fb939f40700000000000000000000000000000000000000000000000000000000178152915181516000946001600160a01b03169382918083835b6020831061351357805182527fffffffffffffffffffffffffffffffffffffffffffffffffffffffffffffffe090920191602091820191016134d6565b6001836020036101000a038019825116818451168082178552505050505050905001915050600060405180830381855af49150503d8060008114613573576040519150601f19603f3d011682016040523d82523d6000602084013e613578565b606091505b50509050806135b85760405162461bcd60e51b81526004018080602001828103825260508152602001806139de6050913960600191505060405180910390fd5b604080518481529051899133917ff01da32686223933d8a18a391060918c7f11a3648639edd87ae013e2e27317439181900360200190a350505b505050505050565b604080516001600160a01b0380861660248301528416604482015260648082018490528251808303909101815260849091019091526020810180517bffffffffffffffffffffffffffffffffffffffffffffffffffffffff167f23b872dd00000000000000000000000000000000000000000000000000000000179052611a73908590613698565b600081831061369157816123ef565b5090919050565b60006136ed826040518060400160405280602081526020017f5361666545524332303a206c6f772d6c6576656c2063616c6c206661696c6564815250856001600160a01b03166137499092919063ffffffff16565b8051909150156118975780806020019051602081101561370c57600080fd5b50516118975760405162461bcd60e51b815260040180806020018281038252602a8152602001806139b4602a913960400191505060405180910390fd5b6060611ad784846000858561375d8561388c565b6137ae576040805162461bcd60e51b815260206004820152601d60248201527f416464726573733a2063616c6c20746f206e6f6e2d636f6e7472616374000000604482015290519081900360640190fd5b600080866001600160a01b031685876040518082805190602001908083835b6020831061380a57805182527fffffffffffffffffffffffffffffffffffffffffffffffffffffffffffffffe090920191602091820191016137cd565b6001836020036101000a03801982511681845116808217855250505050505090500191505060006040518083038185875af1925050503d806000811461386c576040519150601f19603f3d011682016040523d82523d6000602084013e613871565b606091505b5091509150613881828286613892565b979650505050505050565b3b151590565b606083156138a15750816123ef565b8251156138b15782518084602001fd5b8160405162461bcd60e51b81526004018080602001828103825283818151815260200191508051906020019080838360005b838110156138fb5781810151838201526020016138e3565b50505050905090810190601f1680156139285780820380516001836020036101000a031916815260200191505b509250505060405180910390fdfe4f776e61626c653a206e6577206f776e657220697320746865207a65726f2061646472657373536166654d6174683a206d756c7469706c69636174696f6e206f766572666c6f7768616e646c65447261696e6564574554482875696e7432353620616d6f756e74292064656c656761746563616c6c206661696c65642e5361666545524332303a204552433230206f7065726174696f6e20646964206e6f74207375636365656468616e646c65436c61696d2875696e743235362070656e64696e672c2075696e7432353620746970416d6f756e742c2075696e743820666c6167292064656c656761746563616c6c206661696c65642ea264697066735822122097dd08139b580c22836548606d5d8db95bb4cae537c80dcad9f205e17c2d3bf164736f6c63430007060033",
  "libraries": {
    "VampireAdapter": "0x44DdA8E799dE6A4a4a50052793D208B3bE16cA33"
  },
  "devdoc": {
    "kind": "dev",
    "methods": {
      "owner()": {
        "details": "Returns the address of the current owner."
      },
      "renounceOwnership()": {
        "details": "Leaves the contract without owner. It will not be possible to call `onlyOwner` functions anymore. Can only be called by the current owner. NOTE: Renouncing ownership will leave the contract without an owner, thereby removing any functionality that is only available to the owner."
      },
      "transferOwnership(address)": {
        "details": "Transfers ownership of the contract to a new account (`newOwner`). Can only be called by the current owner."
      }
    },
    "version": 1
  },
  "userdoc": {
    "kind": "user",
    "methods": {
      "drain(uint256)": {
        "notice": "Can only be called by DrainController"
      },
      "recoverUnsupported(address,uint256,address)": {
        "notice": "This function allows owner to take unsupported tokens out of the contract. It also allows for removal of airdropped tokens."
      }
    },
    "version": 1
  },
  "storageLayout": {
    "storage": [
      {
        "astId": 7,
        "contract": "contracts/MasterVampire.sol:MasterVampire",
        "label": "_owner",
        "offset": 0,
        "slot": "0",
        "type": "t_address"
      },
      {
        "astId": 2153,
        "contract": "contracts/MasterVampire.sol:MasterVampire",
        "label": "_status",
        "offset": 0,
        "slot": "1",
        "type": "t_uint256"
      },
      {
        "astId": 5102,
        "contract": "contracts/MasterVampire.sol:MasterVampire",
        "label": "IBVETH",
        "offset": 0,
        "slot": "2",
        "type": "t_address"
      },
      {
        "astId": 5104,
        "contract": "contracts/MasterVampire.sol:MasterVampire",
        "label": "drainController",
        "offset": 0,
        "slot": "3",
        "type": "t_address"
      },
      {
        "astId": 5106,
        "contract": "contracts/MasterVampire.sol:MasterVampire",
        "label": "drainAddress",
        "offset": 0,
        "slot": "4",
        "type": "t_address"
      },
      {
        "astId": 5108,
        "contract": "contracts/MasterVampire.sol:MasterVampire",
        "label": "poolRewardUpdater",
        "offset": 0,
        "slot": "5",
        "type": "t_address"
      },
      {
        "astId": 5110,
        "contract": "contracts/MasterVampire.sol:MasterVampire",
        "label": "devAddress",
        "offset": 0,
        "slot": "6",
        "type": "t_address"
      },
      {
        "astId": 5113,
        "contract": "contracts/MasterVampire.sol:MasterVampire",
        "label": "distributionPeriod",
        "offset": 0,
        "slot": "7",
        "type": "t_uint256"
      },
      {
        "astId": 5116,
        "contract": "contracts/MasterVampire.sol:MasterVampire",
        "label": "wethDrainModifier",
        "offset": 0,
        "slot": "8",
        "type": "t_uint256"
      },
      {
        "astId": 5119,
        "contract": "contracts/MasterVampire.sol:MasterVampire",
        "label": "poolInfo",
        "offset": 0,
        "slot": "9",
        "type": "t_array(t_struct(PoolInfo)5100_storage)dyn_storage"
      },
      {
        "astId": 5125,
        "contract": "contracts/MasterVampire.sol:MasterVampire",
        "label": "userInfo",
        "offset": 0,
        "slot": "10",
        "type": "t_mapping(t_uint256,t_mapping(t_address,t_struct(UserInfo)5081_storage))"
      }
    ],
    "types": {
      "t_address": {
        "encoding": "inplace",
        "label": "address",
        "numberOfBytes": "20"
      },
      "t_array(t_struct(PoolInfo)5100_storage)dyn_storage": {
        "base": "t_struct(PoolInfo)5100_storage",
        "encoding": "dynamic_array",
        "label": "struct IMasterVampire.PoolInfo[]",
        "numberOfBytes": "32"
      },
      "t_contract(Victim)7763": {
        "encoding": "inplace",
        "label": "contract Victim",
        "numberOfBytes": "20"
      },
      "t_mapping(t_address,t_struct(UserInfo)5081_storage)": {
        "encoding": "mapping",
        "key": "t_address",
        "label": "mapping(address => struct IMasterVampire.UserInfo)",
        "numberOfBytes": "32",
        "value": "t_struct(UserInfo)5081_storage"
      },
      "t_mapping(t_uint256,t_mapping(t_address,t_struct(UserInfo)5081_storage))": {
        "encoding": "mapping",
        "key": "t_uint256",
        "label": "mapping(uint256 => mapping(address => struct IMasterVampire.UserInfo))",
        "numberOfBytes": "32",
        "value": "t_mapping(t_address,t_struct(UserInfo)5081_storage)"
      },
      "t_struct(PoolInfo)5100_storage": {
        "encoding": "inplace",
        "label": "struct IMasterVampire.PoolInfo",
        "members": [
          {
            "astId": 5083,
            "contract": "contracts/MasterVampire.sol:MasterVampire",
            "label": "victim",
            "offset": 0,
            "slot": "0",
            "type": "t_contract(Victim)7763"
          },
          {
            "astId": 5085,
            "contract": "contracts/MasterVampire.sol:MasterVampire",
            "label": "victimPoolId",
            "offset": 0,
            "slot": "1",
            "type": "t_uint256"
          },
          {
            "astId": 5087,
            "contract": "contracts/MasterVampire.sol:MasterVampire",
            "label": "lastUpdateBlock",
            "offset": 0,
            "slot": "2",
            "type": "t_uint256"
          },
          {
            "astId": 5089,
            "contract": "contracts/MasterVampire.sol:MasterVampire",
            "label": "accWethPerShare",
            "offset": 0,
            "slot": "3",
            "type": "t_uint256"
          },
          {
            "astId": 5091,
            "contract": "contracts/MasterVampire.sol:MasterVampire",
            "label": "wethAccumulator",
            "offset": 0,
            "slot": "4",
            "type": "t_uint256"
          },
          {
            "astId": 5093,
            "contract": "contracts/MasterVampire.sol:MasterVampire",
            "label": "rewardRate",
            "offset": 0,
            "slot": "5",
            "type": "t_uint256"
          },
          {
            "astId": 5095,
            "contract": "contracts/MasterVampire.sol:MasterVampire",
            "label": "periodFinish",
            "offset": 0,
            "slot": "6",
            "type": "t_uint256"
          },
          {
            "astId": 5097,
            "contract": "contracts/MasterVampire.sol:MasterVampire",
            "label": "basePoolShares",
            "offset": 0,
            "slot": "7",
            "type": "t_uint256"
          },
          {
            "astId": 5099,
            "contract": "contracts/MasterVampire.sol:MasterVampire",
            "label": "baseDeposits",
            "offset": 0,
            "slot": "8",
            "type": "t_uint256"
          }
        ],
        "numberOfBytes": "288"
      },
      "t_struct(UserInfo)5081_storage": {
        "encoding": "inplace",
        "label": "struct IMasterVampire.UserInfo",
        "members": [
          {
            "astId": 5074,
            "contract": "contracts/MasterVampire.sol:MasterVampire",
            "label": "amount",
            "offset": 0,
            "slot": "0",
            "type": "t_uint256"
          },
          {
            "astId": 5076,
            "contract": "contracts/MasterVampire.sol:MasterVampire",
            "label": "rewards",
            "offset": 0,
            "slot": "1",
            "type": "t_uint256"
          },
          {
            "astId": 5078,
            "contract": "contracts/MasterVampire.sol:MasterVampire",
            "label": "rewardDebt",
            "offset": 0,
            "slot": "2",
            "type": "t_uint256"
          },
          {
            "astId": 5080,
            "contract": "contracts/MasterVampire.sol:MasterVampire",
            "label": "poolShares",
            "offset": 0,
            "slot": "3",
            "type": "t_uint256"
          }
        ],
        "numberOfBytes": "128"
      },
      "t_uint256": {
        "encoding": "inplace",
        "label": "uint256",
        "numberOfBytes": "32"
      }
    }
  }
}