{
  "address": "0x4918944100507ED88F825D2ffBFD74875dd7EdC5",
  "abi": [
    {
      "inputs": [
        {
          "internalType": "address",
          "name": "_dracula",
          "type": "address"
        },
        {
          "internalType": "address",
          "name": "_weth",
          "type": "address"
        },
        {
          "internalType": "address",
          "name": "_swapFactory",
          "type": "address"
        },
        {
          "internalType": "address",
          "name": "_yvToken",
          "type": "address"
        }
      ],
      "stateMutability": "nonpayable",
      "type": "constructor"
    },
    {
      "anonymous": false,
      "inputs": [
        {
          "indexed": true,
          "internalType": "address",
          "name": "previousOwner",
          "type": "address"
        },
        {
          "indexed": true,
          "internalType": "address",
          "name": "newOwner",
          "type": "address"
        }
      ],
      "name": "OwnershipTransferred",
      "type": "event"
    },
    {
      "inputs": [],
      "name": "IBVETH",
      "outputs": [
        {
          "internalType": "address",
          "name": "",
          "type": "address"
        }
      ],
      "stateMutability": "view",
      "type": "function"
    },
    {
      "inputs": [
        {
          "internalType": "address",
          "name": "account",
          "type": "address"
        }
      ],
      "name": "balance",
      "outputs": [
        {
          "internalType": "uint256",
          "name": "",
          "type": "uint256"
        }
      ],
      "stateMutability": "view",
      "type": "function"
    },
    {
      "inputs": [],
      "name": "devAddress",
      "outputs": [
        {
          "internalType": "address",
          "name": "",
          "type": "address"
        }
      ],
      "stateMutability": "view",
      "type": "function"
    },
    {
      "inputs": [],
      "name": "distributionPeriod",
      "outputs": [
        {
          "internalType": "uint256",
          "name": "",
          "type": "uint256"
        }
      ],
      "stateMutability": "view",
      "type": "function"
    },
    {
      "inputs": [],
      "name": "drainAddress",
      "outputs": [
        {
          "internalType": "address",
          "name": "",
          "type": "address"
        }
      ],
      "stateMutability": "view",
      "type": "function"
    },
    {
      "inputs": [],
      "name": "drainController",
      "outputs": [
        {
          "internalType": "address",
          "name": "",
          "type": "address"
        }
      ],
      "stateMutability": "view",
      "type": "function"
    },
    {
      "inputs": [
        {
          "internalType": "address",
          "name": "account",
          "type": "address"
        }
      ],
      "name": "ethBalance",
      "outputs": [
        {
          "internalType": "uint256",
          "name": "",
          "type": "uint256"
        }
      ],
      "stateMutability": "nonpayable",
      "type": "function"
    },
    {
      "inputs": [
        {
          "internalType": "uint256",
          "name": "pendingShares",
          "type": "uint256"
        },
        {
          "internalType": "uint256",
          "name": "tipAmount",
          "type": "uint256"
        },
        {
          "internalType": "uint8",
          "name": "flag",
          "type": "uint8"
        }
      ],
      "name": "handleClaim",
      "outputs": [],
      "stateMutability": "payable",
      "type": "function"
    },
    {
      "inputs": [
        {
          "internalType": "uint256",
          "name": "amount",
          "type": "uint256"
        }
      ],
      "name": "handleDrainedWETH",
      "outputs": [],
      "stateMutability": "nonpayable",
      "type": "function"
    },
    {
      "inputs": [
        {
          "internalType": "uint256",
          "name": "shares",
          "type": "uint256"
        }
      ],
      "name": "ibETHValue",
      "outputs": [
        {
          "internalType": "uint256",
          "name": "",
          "type": "uint256"
        }
      ],
      "stateMutability": "nonpayable",
      "type": "function"
    },
    {
      "inputs": [],
      "name": "ibToken",
      "outputs": [
        {
          "internalType": "contract IERC20",
          "name": "",
          "type": "address"
        }
      ],
      "stateMutability": "view",
      "type": "function"
    },
    {
      "inputs": [],
      "name": "migrate",
      "outputs": [],
      "stateMutability": "pure",
      "type": "function"
    },
    {
      "inputs": [],
      "name": "owner",
      "outputs": [
        {
          "internalType": "address",
          "name": "",
          "type": "address"
        }
      ],
      "stateMutability": "view",
      "type": "function"
    },
    {
      "inputs": [
        {
          "internalType": "uint256",
          "name": "",
          "type": "uint256"
        }
      ],
      "name": "poolInfo",
      "outputs": [
        {
          "internalType": "contract Victim",
          "name": "victim",
          "type": "address"
        },
        {
          "internalType": "uint256",
          "name": "victimPoolId",
          "type": "uint256"
        },
        {
          "internalType": "uint256",
          "name": "lastUpdateBlock",
          "type": "uint256"
        },
        {
          "internalType": "uint256",
          "name": "accWethPerShare",
          "type": "uint256"
        },
        {
          "internalType": "uint256",
          "name": "wethAccumulator",
          "type": "uint256"
        },
        {
          "internalType": "uint256",
          "name": "rewardRate",
          "type": "uint256"
        },
        {
          "internalType": "uint256",
          "name": "periodFinish",
          "type": "uint256"
        },
        {
          "internalType": "uint256",
          "name": "basePoolShares",
          "type": "uint256"
        },
        {
          "internalType": "uint256",
          "name": "baseDeposits",
          "type": "uint256"
        }
      ],
      "stateMutability": "view",
      "type": "function"
    },
    {
      "inputs": [],
      "name": "poolRewardUpdater",
      "outputs": [
        {
          "internalType": "address",
          "name": "",
          "type": "address"
        }
      ],
      "stateMutability": "view",
      "type": "function"
    },
    {
      "inputs": [],
      "name": "renounceOwnership",
      "outputs": [],
      "stateMutability": "nonpayable",
      "type": "function"
    },
    {
      "inputs": [
        {
          "internalType": "address",
          "name": "newOwner",
          "type": "address"
        }
      ],
      "name": "transferOwnership",
      "outputs": [],
      "stateMutability": "nonpayable",
      "type": "function"
    },
    {
      "inputs": [
        {
          "internalType": "uint256",
          "name": "",
          "type": "uint256"
        },
        {
          "internalType": "address",
          "name": "",
          "type": "address"
        }
      ],
      "name": "userInfo",
      "outputs": [
        {
          "internalType": "uint256",
          "name": "amount",
          "type": "uint256"
        },
        {
          "internalType": "uint256",
          "name": "rewards",
          "type": "uint256"
        },
        {
          "internalType": "uint256",
          "name": "rewardDebt",
          "type": "uint256"
        },
        {
          "internalType": "uint256",
          "name": "poolShares",
          "type": "uint256"
        }
      ],
      "stateMutability": "view",
      "type": "function"
    },
    {
      "inputs": [],
      "name": "wethDrainModifier",
      "outputs": [
        {
          "internalType": "uint256",
          "name": "",
          "type": "uint256"
        }
      ],
      "stateMutability": "view",
      "type": "function"
    }
  ],
  "transactionHash": "0xf573b7094f76d60cd05506f48d951029681ba53ec833bf88e59f7168785e9c54",
  "args": [
    "0xb78B3320493a4EFaa1028130C5Ba26f0B6085Ef8",
    "0xC02aaA39b223FE8D0A0e5C4F27eAD9083C756Cc2",
    "0xC0AEe478e3658e2610c5F7A4A2E1777cE9e4f2Ac",
    "0xa9fE4601811213c340e850ea305481afF02f5b28"
  ],
  "solcInputHash": "e166554613407b5e5de9c2eccf5906c7",
  "bytecode": "0x610100604052611977600755609660085534801561001c57600080fd5b5060405162001c9838038062001c988339818101604052608081101561004157600080fd5b508051602082015160408301516060938401519382901b6001600160601b03191660805291929091906000610074610178565b600080546001600160a01b0319166001600160a01b0383169081178255604051929350917f8be0079c531659141344cd1fd0a4f28419497f9722a3daafe3b4186f6b6457e0908290a350600180556001600160601b0319606085901b1660e0526040805163e6a4390560e01b81526001600160a01b03858116600483015280871660248301529151849283169163e6a43905916044808301926020929190829003018186803b15801561012657600080fd5b505afa15801561013a573d6000803e3d6000fd5b505050506040513d602081101561015057600080fd5b50516001600160601b0319606091821b811660c05292901b90911660a0525061017c92505050565b3390565b60805160601c60a05160601c60c05160601c60e05160601c611a8f620002096000395080610a3b5280610af95280610c5b5280610d5352508061045552806104a652806104cd528061077252806108eb5280610e795280610f4a5280610fee5250806104845280610817528061094f5280610a0b5280610b8f5280610bed5280610c2c5250611a8f6000f3fe6080604052600436106101445760003560e01c806392f2cff0116100c0578063d8f3790f11610074578063e10f8f0611610059578063e10f8f06146103d8578063e3d670d7146103ed578063f2fde38b1461042057610144565b8063d8f3790f14610390578063e0a9b09d146103c357610144565b80639b501723116100a55780639b501723146103135780639d3f50391461033a578063b939f4071461036457610144565b806392f2cff01461029f57806393f1a40b146102b457610144565b8063592e7def11610117578063715018a6116100fc578063715018a6146102605780638da5cb5b146102755780638fd3ab801461028a57610144565b8063592e7def1461023657806368cdd86e1461024b57610144565b80630a8a5a5f14610149578063104f823c1461017a5780631526fe27146101a65780633ad10ef614610221575b600080fd5b34801561015557600080fd5b5061015e610453565b604080516001600160a01b039092168252519081900360200190f35b34801561018657600080fd5b506101a46004803603602081101561019d57600080fd5b5035610477565b005b3480156101b257600080fd5b506101d0600480360360208110156101c957600080fd5b5035610560565b604080516001600160a01b03909a168a5260208a0198909852888801969096526060880194909452608087019290925260a086015260c085015260e084015261010083015251908190036101200190f35b34801561022d57600080fd5b5061015e6105c5565b34801561024257600080fd5b5061015e6105d4565b34801561025757600080fd5b5061015e6105e3565b34801561026c57600080fd5b506101a46105f2565b34801561028157600080fd5b5061015e6106c8565b34801561029657600080fd5b506101a46106d7565b3480156102ab57600080fd5b5061015e610724565b3480156102c057600080fd5b506102ed600480360360408110156102d757600080fd5b50803590602001356001600160a01b0316610733565b604080519485526020850193909352838301919091526060830152519081900360800190f35b34801561031f57600080fd5b50610328610765565b60408051918252519081900360200190f35b34801561034657600080fd5b506103286004803603602081101561035d57600080fd5b503561076b565b6101a46004803603606081101561037a57600080fd5b508035906020810135906040013560ff16610813565b34801561039c57600080fd5b50610328600480360360208110156103b357600080fd5b50356001600160a01b0316610e74565b3480156103cf57600080fd5b5061015e610fd5565b3480156103e457600080fd5b50610328610fe4565b3480156103f957600080fd5b506103286004803603602081101561041057600080fd5b50356001600160a01b0316610fea565b34801561042c57600080fd5b506101a46004803603602081101561044357600080fd5b50356001600160a01b031661108b565b7f000000000000000000000000000000000000000000000000000000000000000090565b6104cb6001600160a01b037f0000000000000000000000000000000000000000000000000000000000000000167f0000000000000000000000000000000000000000000000000000000000000000836111b7565b7f00000000000000000000000000000000000000000000000000000000000000006001600160a01b031663b6b55f25826040518263ffffffff1660e01b815260040180828152602001915050602060405180830381600087803b15801561053157600080fd5b505af1158015610545573d6000803e3d6000fd5b505050506040513d602081101561055b57600080fd5b505050565b6009818154811061057057600080fd5b60009182526020909120600990910201805460018201546002830154600384015460048501546005860154600687015460078801546008909801546001600160a01b0390971698509496939592949193909289565b6006546001600160a01b031681565b6002546001600160a01b031681565b6005546001600160a01b031681565b6105fa611311565b6001600160a01b031661060b6106c8565b6001600160a01b031614610666576040805162461bcd60e51b815260206004820181905260248201527f4f776e61626c653a2063616c6c6572206973206e6f7420746865206f776e6572604482015290519081900360640190fd5b600080546040516001600160a01b03909116907f8be0079c531659141344cd1fd0a4f28419497f9722a3daafe3b4186f6b6457e0908390a3600080547fffffffffffffffffffffffff0000000000000000000000000000000000000000169055565b6000546001600160a01b031690565b6040805162461bcd60e51b815260206004820152600f60248201527f6e6f7420696d706c656d656e7465640000000000000000000000000000000000604482015290519081900360640190fd5b6004546001600160a01b031681565b600a60209081526000928352604080842090915290825290208054600182015460028301546003909301549192909184565b60075481565b600061080d7f00000000000000000000000000000000000000000000000000000000000000006001600160a01b03166399530b066040518163ffffffff1660e01b815260040160206040518083038186803b1580156107c957600080fd5b505afa1580156107dd573d6000803e3d6000fd5b505050506040513d60208110156107f357600080fd5b505161080784670de0b6b3a7640000611315565b9061136e565b92915050565b60007f00000000000000000000000000000000000000000000000000000000000000006001600160a01b03166370a08231306040518263ffffffff1660e01b815260040180826001600160a01b0316815260200191505060206040518083038186803b15801561088257600080fd5b505afa158015610896573d6000803e3d6000fd5b505050506040513d60208110156108ac57600080fd5b5051604080517f2e1a7d4d0000000000000000000000000000000000000000000000000000000081526004810187905290519192506001600160a01b037f00000000000000000000000000000000000000000000000000000000000000001691632e1a7d4d9160248082019260009290919082900301818387803b15801561093357600080fd5b505af1158015610947573d6000803e3d6000fd5b5050505060007f00000000000000000000000000000000000000000000000000000000000000006001600160a01b03166370a08231306040518263ffffffff1660e01b815260040180826001600160a01b0316815260200191505060206040518083038186803b1580156109ba57600080fd5b505afa1580156109ce573d6000803e3d6000fd5b505050506040513d60208110156109e457600080fd5b5051905060006109f482846113d5565b905060028416610a3757610a326001600160a01b037f0000000000000000000000000000000000000000000000000000000000000000163383611432565b610e6c565b60007f00000000000000000000000000000000000000000000000000000000000000006001600160a01b0316630dfe16816040518163ffffffff1660e01b815260040160206040518083038186803b158015610a9257600080fd5b505afa158015610aa6573d6000803e3d6000fd5b505050506040513d6020811015610abc57600080fd5b5051604080517f0902f1ac000000000000000000000000000000000000000000000000000000008152905191925060009182916001600160a01b037f00000000000000000000000000000000000000000000000000000000000000001691630902f1ac91600480820192606092909190829003018186803b158015610b4057600080fd5b505afa158015610b54573d6000803e3d6000fd5b505050506040513d6060811015610b6a57600080fd5b5080516020909101516dffffffffffffffffffffffffffff91821693501690506000807f00000000000000000000000000000000000000000000000000000000000000006001600160a01b0390811690861614610bc8578284610bcb565b83835b915091506000610bdc8784846114b2565b9050600080876001600160a01b03167f00000000000000000000000000000000000000000000000000000000000000006001600160a01b031614610c2257826000610c26565b6000835b915091507f00000000000000000000000000000000000000000000000000000000000000006001600160a01b031663a9059cbb7f00000000000000000000000000000000000000000000000000000000000000008b6040518363ffffffff1660e01b815260040180836001600160a01b0316815260200182815260200192505050602060405180830381600087803b158015610cc157600080fd5b505af1158015610cd5573d6000803e3d6000fd5b505050506040513d6020811015610ceb57600080fd5b505060408051600080825260208201928390527f022c0d9f00000000000000000000000000000000000000000000000000000000835260248201858152604483018590523360648401819052608060848501908152845160a486018190526001600160a01b037f0000000000000000000000000000000000000000000000000000000000000000169663022c0d9f968a968a9691949193919260c486019290918190849084905b83811015610daa578181015183820152602001610d92565b50505050905090810190601f168015610dd75780820380516001836020036101000a031916815260200191505b5095505050505050600060405180830381600087803b158015610df957600080fd5b505af1158015610e0d573d6000803e3d6000fd5b5050505060008d1115610e635760405141908e90600081818185875af1925050503d8060008114610e5a576040519150601f19603f3d011682016040523d82523d6000602084013e610e5f565b606091505b5050505b50505050505050505b505050505050565b6000807f00000000000000000000000000000000000000000000000000000000000000006001600160a01b03166370a08231846040518263ffffffff1660e01b815260040180826001600160a01b0316815260200191505060206040518083038186803b158015610ee457600080fd5b505afa158015610ef8573d6000803e3d6000fd5b505050506040513d6020811015610f0e57600080fd5b5051604080517f99530b060000000000000000000000000000000000000000000000000000000081529051919250610fce916001600160a01b037f000000000000000000000000000000000000000000000000000000000000000016916399530b06916004808301926020929190829003018186803b158015610f9057600080fd5b505afa158015610fa4573d6000803e3d6000fd5b505050506040513d6020811015610fba57600080fd5b505161080783670de0b6b3a7640000611315565b9392505050565b6003546001600160a01b031681565b60085481565b60007f00000000000000000000000000000000000000000000000000000000000000006001600160a01b03166370a08231836040518263ffffffff1660e01b815260040180826001600160a01b0316815260200191505060206040518083038186803b15801561105957600080fd5b505afa15801561106d573d6000803e3d6000fd5b505050506040513d602081101561108357600080fd5b505192915050565b611093611311565b6001600160a01b03166110a46106c8565b6001600160a01b0316146110ff576040805162461bcd60e51b815260206004820181905260248201527f4f776e61626c653a2063616c6c6572206973206e6f7420746865206f776e6572604482015290519081900360640190fd5b6001600160a01b0381166111445760405162461bcd60e51b815260040180806020018281038252602681526020018061193a6026913960400191505060405180910390fd5b600080546040516001600160a01b03808516939216917f8be0079c531659141344cd1fd0a4f28419497f9722a3daafe3b4186f6b6457e091a3600080547fffffffffffffffffffffffff0000000000000000000000000000000000000000166001600160a01b0392909216919091179055565b8015806112565750604080517fdd62ed3e0000000000000000000000000000000000000000000000000000000081523060048201526001600160a01b03848116602483015291519185169163dd62ed3e91604480820192602092909190829003018186803b15801561122857600080fd5b505afa15801561123c573d6000803e3d6000fd5b505050506040513d602081101561125257600080fd5b5051155b6112915760405162461bcd60e51b8152600401808060200182810382526036815260200180611a246036913960400191505060405180910390fd5b604080516001600160a01b038416602482015260448082018490528251808303909101815260649091019091526020810180517bffffffffffffffffffffffffffffffffffffffffffffffffffffffff167f095ea7b30000000000000000000000000000000000000000000000000000000017905261055b90849061158a565b3390565b6000826113245750600061080d565b8282028284828161133157fe5b0414610fce5760405162461bcd60e51b81526004018080602001828103825260218152602001806119ae6021913960400191505060405180910390fd5b60008082116113c4576040805162461bcd60e51b815260206004820152601a60248201527f536166654d6174683a206469766973696f6e206279207a65726f000000000000604482015290519081900360640190fd5b8183816113cd57fe5b049392505050565b60008282111561142c576040805162461bcd60e51b815260206004820152601e60248201527f536166654d6174683a207375627472616374696f6e206f766572666c6f770000604482015290519081900360640190fd5b50900390565b604080516001600160a01b038416602482015260448082018490528251808303909101815260649091019091526020810180517bffffffffffffffffffffffffffffffffffffffffffffffffffffffff167fa9059cbb0000000000000000000000000000000000000000000000000000000017905261055b90849061158a565b60008084116114f25760405162461bcd60e51b815260040180806020018281038252602b8152602001806119f9602b913960400191505060405180910390fd5b6000831180156115025750600082115b61153d5760405162461bcd60e51b81526004018080602001828103825260288152602001806119866028913960400191505060405180910390fd5b600061154b856103e561163b565b90506000611559828561163b565b905060006115738361156d886103e861163b565b906116a7565b905080828161157e57fe5b04979650505050505050565b60006115df826040518060400160405280602081526020017f5361666545524332303a206c6f772d6c6576656c2063616c6c206661696c6564815250856001600160a01b03166116ff9092919063ffffffff16565b80519091501561055b578080602001905160208110156115fe57600080fd5b505161055b5760405162461bcd60e51b815260040180806020018281038252602a8152602001806119cf602a913960400191505060405180910390fd5b60008115806116565750508082028282828161165357fe5b04145b61080d576040805162461bcd60e51b815260206004820152601460248201527f64732d6d6174682d6d756c2d6f766572666c6f77000000000000000000000000604482015290519081900360640190fd5b8082018281101561080d576040805162461bcd60e51b815260206004820152601460248201527f64732d6d6174682d6164642d6f766572666c6f77000000000000000000000000604482015290519081900360640190fd5b606061170e8484600085611716565b949350505050565b6060824710156117575760405162461bcd60e51b81526004018080602001828103825260268152602001806119606026913960400191505060405180910390fd5b6117608561188f565b6117b1576040805162461bcd60e51b815260206004820152601d60248201527f416464726573733a2063616c6c20746f206e6f6e2d636f6e7472616374000000604482015290519081900360640190fd5b600080866001600160a01b031685876040518082805190602001908083835b6020831061180d57805182527fffffffffffffffffffffffffffffffffffffffffffffffffffffffffffffffe090920191602091820191016117d0565b6001836020036101000a03801982511681845116808217855250505050505090500191505060006040518083038185875af1925050503d806000811461186f576040519150601f19603f3d011682016040523d82523d6000602084013e611874565b606091505b5091509150611884828286611895565b979650505050505050565b3b151590565b606083156118a4575081610fce565b8251156118b45782518084602001fd5b8160405162461bcd60e51b81526004018080602001828103825283818151815260200191508051906020019080838360005b838110156118fe5781810151838201526020016118e6565b50505050905090810190601f16801561192b5780820380516001836020036101000a031916815260200191505b509250505060405180910390fdfe4f776e61626c653a206e6577206f776e657220697320746865207a65726f2061646472657373416464726573733a20696e73756666696369656e742062616c616e636520666f722063616c6c556e697377617056324c6962726172793a20494e53554646494349454e545f4c4951554944495459536166654d6174683a206d756c7469706c69636174696f6e206f766572666c6f775361666545524332303a204552433230206f7065726174696f6e20646964206e6f742073756363656564556e697377617056324c6962726172793a20494e53554646494349454e545f494e5055545f414d4f554e545361666545524332303a20617070726f76652066726f6d206e6f6e2d7a65726f20746f206e6f6e2d7a65726f20616c6c6f77616e6365a26469706673582212209facb50c82f9c34b4c5e88cf3f427371fd00e797d3f8aa4df5019cb6ed155e9f64736f6c63430007060033",
  "devdoc": {
    "kind": "dev",
    "methods": {
      "owner()": {
        "details": "Returns the address of the current owner."
      },
      "renounceOwnership()": {
        "details": "Leaves the contract without owner. It will not be possible to call `onlyOwner` functions anymore. Can only be called by the current owner. NOTE: Renouncing ownership will leave the contract without an owner, thereby removing any functionality that is only available to the owner."
      },
      "transferOwnership(address)": {
        "details": "Transfers ownership of the contract to a new account (`newOwner`). Can only be called by the current owner."
      }
    },
    "title": "YearnV2 WETH Vault",
    "version": 1
  },
  "userdoc": {
    "kind": "user",
    "methods": {},
    "version": 1
  },
  "storageLayout": {
    "storage": [
      {
        "astId": 7,
        "contract": "contracts/strategies/YearnV2WETH.sol:YearnV2WETH",
        "label": "_owner",
        "offset": 0,
        "slot": "0",
        "type": "t_address"
      },
      {
        "astId": 2153,
        "contract": "contracts/strategies/YearnV2WETH.sol:YearnV2WETH",
        "label": "_status",
        "offset": 0,
        "slot": "1",
        "type": "t_uint256"
      },
      {
        "astId": 5102,
        "contract": "contracts/strategies/YearnV2WETH.sol:YearnV2WETH",
        "label": "IBVETH",
        "offset": 0,
        "slot": "2",
        "type": "t_address"
      },
      {
        "astId": 5104,
        "contract": "contracts/strategies/YearnV2WETH.sol:YearnV2WETH",
        "label": "drainController",
        "offset": 0,
        "slot": "3",
        "type": "t_address"
      },
      {
        "astId": 5106,
        "contract": "contracts/strategies/YearnV2WETH.sol:YearnV2WETH",
        "label": "drainAddress",
        "offset": 0,
        "slot": "4",
        "type": "t_address"
      },
      {
        "astId": 5108,
        "contract": "contracts/strategies/YearnV2WETH.sol:YearnV2WETH",
        "label": "poolRewardUpdater",
        "offset": 0,
        "slot": "5",
        "type": "t_address"
      },
      {
        "astId": 5110,
        "contract": "contracts/strategies/YearnV2WETH.sol:YearnV2WETH",
        "label": "devAddress",
        "offset": 0,
        "slot": "6",
        "type": "t_address"
      },
      {
        "astId": 5113,
        "contract": "contracts/strategies/YearnV2WETH.sol:YearnV2WETH",
        "label": "distributionPeriod",
        "offset": 0,
        "slot": "7",
        "type": "t_uint256"
      },
      {
        "astId": 5116,
        "contract": "contracts/strategies/YearnV2WETH.sol:YearnV2WETH",
        "label": "wethDrainModifier",
        "offset": 0,
        "slot": "8",
        "type": "t_uint256"
      },
      {
        "astId": 5119,
        "contract": "contracts/strategies/YearnV2WETH.sol:YearnV2WETH",
        "label": "poolInfo",
        "offset": 0,
        "slot": "9",
        "type": "t_array(t_struct(PoolInfo)5100_storage)dyn_storage"
      },
      {
        "astId": 5125,
        "contract": "contracts/strategies/YearnV2WETH.sol:YearnV2WETH",
        "label": "userInfo",
        "offset": 0,
        "slot": "10",
        "type": "t_mapping(t_uint256,t_mapping(t_address,t_struct(UserInfo)5081_storage))"
      }
    ],
    "types": {
      "t_address": {
        "encoding": "inplace",
        "label": "address",
        "numberOfBytes": "20"
      },
      "t_array(t_struct(PoolInfo)5100_storage)dyn_storage": {
        "base": "t_struct(PoolInfo)5100_storage",
        "encoding": "dynamic_array",
        "label": "struct IMasterVampire.PoolInfo[]",
        "numberOfBytes": "32"
      },
      "t_contract(Victim)7763": {
        "encoding": "inplace",
        "label": "contract Victim",
        "numberOfBytes": "20"
      },
      "t_mapping(t_address,t_struct(UserInfo)5081_storage)": {
        "encoding": "mapping",
        "key": "t_address",
        "label": "mapping(address => struct IMasterVampire.UserInfo)",
        "numberOfBytes": "32",
        "value": "t_struct(UserInfo)5081_storage"
      },
      "t_mapping(t_uint256,t_mapping(t_address,t_struct(UserInfo)5081_storage))": {
        "encoding": "mapping",
        "key": "t_uint256",
        "label": "mapping(uint256 => mapping(address => struct IMasterVampire.UserInfo))",
        "numberOfBytes": "32",
        "value": "t_mapping(t_address,t_struct(UserInfo)5081_storage)"
      },
      "t_struct(PoolInfo)5100_storage": {
        "encoding": "inplace",
        "label": "struct IMasterVampire.PoolInfo",
        "members": [
          {
            "astId": 5083,
            "contract": "contracts/strategies/YearnV2WETH.sol:YearnV2WETH",
            "label": "victim",
            "offset": 0,
            "slot": "0",
            "type": "t_contract(Victim)7763"
          },
          {
            "astId": 5085,
            "contract": "contracts/strategies/YearnV2WETH.sol:YearnV2WETH",
            "label": "victimPoolId",
            "offset": 0,
            "slot": "1",
            "type": "t_uint256"
          },
          {
            "astId": 5087,
            "contract": "contracts/strategies/YearnV2WETH.sol:YearnV2WETH",
            "label": "lastUpdateBlock",
            "offset": 0,
            "slot": "2",
            "type": "t_uint256"
          },
          {
            "astId": 5089,
            "contract": "contracts/strategies/YearnV2WETH.sol:YearnV2WETH",
            "label": "accWethPerShare",
            "offset": 0,
            "slot": "3",
            "type": "t_uint256"
          },
          {
            "astId": 5091,
            "contract": "contracts/strategies/YearnV2WETH.sol:YearnV2WETH",
            "label": "wethAccumulator",
            "offset": 0,
            "slot": "4",
            "type": "t_uint256"
          },
          {
            "astId": 5093,
            "contract": "contracts/strategies/YearnV2WETH.sol:YearnV2WETH",
            "label": "rewardRate",
            "offset": 0,
            "slot": "5",
            "type": "t_uint256"
          },
          {
            "astId": 5095,
            "contract": "contracts/strategies/YearnV2WETH.sol:YearnV2WETH",
            "label": "periodFinish",
            "offset": 0,
            "slot": "6",
            "type": "t_uint256"
          },
          {
            "astId": 5097,
            "contract": "contracts/strategies/YearnV2WETH.sol:YearnV2WETH",
            "label": "basePoolShares",
            "offset": 0,
            "slot": "7",
            "type": "t_uint256"
          },
          {
            "astId": 5099,
            "contract": "contracts/strategies/YearnV2WETH.sol:YearnV2WETH",
            "label": "baseDeposits",
            "offset": 0,
            "slot": "8",
            "type": "t_uint256"
          }
        ],
        "numberOfBytes": "288"
      },
      "t_struct(UserInfo)5081_storage": {
        "encoding": "inplace",
        "label": "struct IMasterVampire.UserInfo",
        "members": [
          {
            "astId": 5074,
            "contract": "contracts/strategies/YearnV2WETH.sol:YearnV2WETH",
            "label": "amount",
            "offset": 0,
            "slot": "0",
            "type": "t_uint256"
          },
          {
            "astId": 5076,
            "contract": "contracts/strategies/YearnV2WETH.sol:YearnV2WETH",
            "label": "rewards",
            "offset": 0,
            "slot": "1",
            "type": "t_uint256"
          },
          {
            "astId": 5078,
            "contract": "contracts/strategies/YearnV2WETH.sol:YearnV2WETH",
            "label": "rewardDebt",
            "offset": 0,
            "slot": "2",
            "type": "t_uint256"
          },
          {
            "astId": 5080,
            "contract": "contracts/strategies/YearnV2WETH.sol:YearnV2WETH",
            "label": "poolShares",
            "offset": 0,
            "slot": "3",
            "type": "t_uint256"
          }
        ],
        "numberOfBytes": "128"
      },
      "t_uint256": {
        "encoding": "inplace",
        "label": "uint256",
        "numberOfBytes": "32"
      }
    }
  }
}